{
  "_format": "hh-sol-artifact-1",
  "contractName": "AnimalTracking",
  "sourceName": "contracts/AnimalTracking.sol",
  "abi": [
    {
      "inputs": [],
      "stateMutability": "nonpayable",
      "type": "constructor"
    },
    {
      "anonymous": false,
      "inputs": [
        {
          "indexed": true,
          "internalType": "uint256",
          "name": "id",
          "type": "uint256"
        },
        {
          "indexed": false,
          "internalType": "string",
          "name": "name",
          "type": "string"
        },
        {
          "indexed": false,
          "internalType": "string",
          "name": "species",
          "type": "string"
        },
        {
          "indexed": false,
          "internalType": "uint256",
          "name": "age",
          "type": "uint256"
        },
        {
          "indexed": false,
          "internalType": "string",
          "name": "ownerName",
          "type": "string"
        },
        {
          "indexed": false,
          "internalType": "string",
          "name": "ownerPhone",
          "type": "string"
        },
        {
          "indexed": false,
          "internalType": "string",
          "name": "ownerAddress",
          "type": "string"
        },
        {
          "indexed": false,
          "internalType": "string",
          "name": "shelterName",
          "type": "string"
        },
        {
          "indexed": false,
          "internalType": "string",
          "name": "gender",
          "type": "string"
        },
        {
          "indexed": false,
          "internalType": "uint32",
          "name": "weight",
          "type": "uint32"
        },
        {
          "indexed": false,
          "internalType": "uint32",
          "name": "height",
          "type": "uint32"
        },
        {
          "indexed": false,
          "internalType": "string",
          "name": "illnesses",
          "type": "string"
        },
        {
          "indexed": false,
          "internalType": "string",
          "name": "vaccines",
          "type": "string"
        },
        {
          "indexed": true,
          "internalType": "address",
          "name": "addedBy",
          "type": "address"
        }
      ],
      "name": "AnimalAdded",
      "type": "event"
    },
    {
      "inputs": [
        {
          "internalType": "string",
          "name": "_name",
          "type": "string"
        },
        {
          "internalType": "string",
          "name": "_species",
          "type": "string"
        },
        {
          "internalType": "uint256",
          "name": "_age",
          "type": "uint256"
        },
        {
          "internalType": "string",
          "name": "_ownerName",
          "type": "string"
        },
        {
          "internalType": "string",
          "name": "_ownerPhone",
          "type": "string"
        },
        {
          "internalType": "string",
          "name": "_ownerAddress",
          "type": "string"
        },
        {
          "internalType": "string",
          "name": "_shelterName",
          "type": "string"
        },
        {
          "internalType": "string",
          "name": "_gender",
          "type": "string"
        },
        {
          "internalType": "uint32",
          "name": "_weight",
          "type": "uint32"
        },
        {
          "internalType": "uint32",
          "name": "_height",
          "type": "uint32"
        },
        {
          "internalType": "string",
          "name": "_illnesses",
          "type": "string"
        },
        {
          "internalType": "string",
          "name": "_vaccines",
          "type": "string"
        },
        {
          "internalType": "string",
          "name": "_additionalInfo",
          "type": "string"
        }
      ],
      "name": "addAnimal",
      "outputs": [],
      "stateMutability": "nonpayable",
      "type": "function"
    },
    {
      "inputs": [
        {
          "internalType": "uint256",
          "name": "",
          "type": "uint256"
        }
      ],
      "name": "animalIds",
      "outputs": [
        {
          "internalType": "uint256",
          "name": "",
          "type": "uint256"
        }
      ],
      "stateMutability": "view",
      "type": "function"
    },
    {
      "inputs": [
        {
          "internalType": "uint256",
          "name": "",
          "type": "uint256"
        }
      ],
      "name": "animals",
      "outputs": [
        {
          "internalType": "uint256",
          "name": "id",
          "type": "uint256"
        },
        {
          "internalType": "string",
          "name": "name",
          "type": "string"
        },
        {
          "internalType": "string",
          "name": "species",
          "type": "string"
        },
        {
          "internalType": "uint256",
          "name": "age",
          "type": "uint256"
        },
        {
          "internalType": "string",
          "name": "ownerName",
          "type": "string"
        },
        {
          "internalType": "string",
          "name": "ownerPhone",
          "type": "string"
        },
        {
          "internalType": "string",
          "name": "ownerAddress",
          "type": "string"
        },
        {
          "internalType": "string",
          "name": "shelterName",
          "type": "string"
        },
        {
          "internalType": "string",
          "name": "gender",
          "type": "string"
        },
        {
          "internalType": "uint32",
          "name": "weight",
          "type": "uint32"
        },
        {
          "internalType": "uint32",
          "name": "height",
          "type": "uint32"
        },
        {
          "internalType": "string",
          "name": "illnesses",
          "type": "string"
        },
        {
          "internalType": "string",
          "name": "vaccines",
          "type": "string"
        },
        {
          "internalType": "string",
          "name": "additionalInfo",
          "type": "string"
        },
        {
          "internalType": "address",
          "name": "addedBy",
          "type": "address"
        },
        {
          "internalType": "uint256",
          "name": "timestamp",
          "type": "uint256"
        }
      ],
      "stateMutability": "view",
      "type": "function"
    },
    {
      "inputs": [
        {
          "internalType": "uint256",
          "name": "animalId",
          "type": "uint256"
        }
      ],
      "name": "getAnimal",
      "outputs": [
        {
          "components": [
            {
              "internalType": "uint256",
              "name": "id",
              "type": "uint256"
            },
            {
              "internalType": "string",
              "name": "name",
              "type": "string"
            },
            {
              "internalType": "string",
              "name": "species",
              "type": "string"
            },
            {
              "internalType": "uint256",
              "name": "age",
              "type": "uint256"
            },
            {
              "internalType": "string",
              "name": "ownerName",
              "type": "string"
            },
            {
              "internalType": "string",
              "name": "ownerPhone",
              "type": "string"
            },
            {
              "internalType": "string",
              "name": "ownerAddress",
              "type": "string"
            },
            {
              "internalType": "string",
              "name": "shelterName",
              "type": "string"
            },
            {
              "internalType": "string",
              "name": "gender",
              "type": "string"
            },
            {
              "internalType": "uint32",
              "name": "weight",
              "type": "uint32"
            },
            {
              "internalType": "uint32",
              "name": "height",
              "type": "uint32"
            },
            {
              "internalType": "string",
              "name": "illnesses",
              "type": "string"
            },
            {
              "internalType": "string",
              "name": "vaccines",
              "type": "string"
            },
            {
              "internalType": "string",
              "name": "additionalInfo",
              "type": "string"
            },
            {
              "internalType": "address",
              "name": "addedBy",
              "type": "address"
            },
            {
              "internalType": "uint256",
              "name": "timestamp",
              "type": "uint256"
            }
          ],
          "internalType": "struct AnimalTracking.Animal",
          "name": "",
          "type": "tuple"
        }
      ],
      "stateMutability": "view",
      "type": "function"
    },
    {
      "inputs": [],
      "name": "getAnimalCount",
      "outputs": [
        {
          "internalType": "uint256",
          "name": "",
          "type": "uint256"
        }
      ],
      "stateMutability": "view",
      "type": "function"
    },
    {
      "inputs": [],
      "name": "getNextId",
      "outputs": [
        {
          "internalType": "uint256",
          "name": "",
          "type": "uint256"
        }
      ],
      "stateMutability": "view",
      "type": "function"
    }
  ],
  "bytecode": "0x60808060405234601a57600160005561172490816100208239f35b600080fdfe6080604052600436101561001257600080fd5b60003560e01c80633b8cd9de146105df57806345d3cc811461028e5780634efead561461025657806366634a1614610238578063998dd3ca146100815763bc9683261461005e57600080fd5b3461007c57600036600319011261007c576020600054604051908152f35b600080fd5b3461007c57602036600319011261007c5760043560005260016020526040600020805490600181016100b29061164a565b906100bf6002820161164a565b600382015490936100d26004840161164a565b6100de6005850161164a565b6100ea6006860161164a565b6100f66007870161164a565b6101026008880161164a565b90600988015492600a89016101169061164a565b94610123600b8b0161164a565b96610130600c8c0161164a565b98600160a01b60019003600d8d0154169b600e01549a6040519e8f9e8f93845260208401610200905261020084016101679161159e565b83810360408501526101789161159e565b91606001528c808203906080015261018f9161159e565b8b810360a08d01526101a09161159e565b8a810360c08c01526101b19161159e565b89810360e08b01526101c29161159e565b8881036101008a01526101d49161159e565b9063ffffffff811661012089015260201c63ffffffff166101408801528681036101608801526102039161159e565b8581036101808701526102159161159e565b8481036101a08601526102279161159e565b916101c08401526101e08301520390f35b3461007c57600036600319011261007c576020600254604051908152f35b3461007c57602036600319011261007c5760043560025481101561007c5761027f6020916115df565b90549060031b1c604051908152f35b3461007c57602036600319011261007c5760043560006101e06040516102b38161150b565b828152606060208201526060604082015282606082015260606080820152606060a0820152606060c0820152606060e0820152606061010082015282610120820152826101408201526060610160820152606061018082015260606101a0820152826101c08201520152806000526001602052604060002054156105a757600052600160205261022060206040600020600e604051916103528361150b565b805483526103626001820161164a565b848401526103726002820161164a565b60408401526003810154606084015261038d6004820161164a565b608084015261039e6005820161164a565b60a08401526103af6006820161164a565b60c08401526103c06007820161164a565b60e08401526103d16008820161164a565b61010084015263ffffffff6009820154818116610120860152851c166101408401526103ff600a820161164a565b610160840152610411600b820161164a565b610180840152610423600c820161164a565b6101a084015260018060a01b03600d820154166101c084015201546101e08201526101e061058761056f61055761051b6105036104ec6104d66104c061049f6104898b6040519e8f9e8f928184528051828501520151916102006040820152019061159e565b60408c01518d8203601f190160608f015261159e565b60608b015160808d015260808b01518c60a0601f198285030191015261159e565b60a08a01518b8203601f190160c08d015261159e565b60c08901518a8203601f190160e08c015261159e565b60e0880151898203601f19016101008b015261159e565b610100870151888203601f19016101208a015261159e565b63ffffffff6101208701511661014088015263ffffffff61014087015116610160880152610160860151601f198883030161018089015261159e565b610180850151868203601f19016101a088015261159e565b6101a0840151858203601f19016101c087015261159e565b6101c08301516001600160a01b0316848301529101516102008301520390f35b60405162461bcd60e51b815260206004820152601060248201526f105b9a5b585b081b9bdd08199bdd5b9960821b6044820152606490fd5b3461007c576101a036600319011261007c576004356001600160401b03811161007c57610610903690600401611548565b6024356001600160401b03811161007c5761062f903690600401611548565b6064356001600160401b03811161007c5761064e903690600401611548565b906084356001600160401b03811161007c5761066e903690600401611548565b9260a4356001600160401b03811161007c5761068e903690600401611548565b60c4356001600160401b03811161007c576106ad903690600401611548565b60e4356001600160401b03811161007c576106cc903690600401611548565b90610104359163ffffffff8316830361007c57610124359163ffffffff8316830361007c57610144356001600160401b03811161007c57610711903690600401611548565b94610164356001600160401b03811161007c57610732903690600401611548565b99610184356001600160401b03811161007c57610753903690600401611548565b998b6000549b604051906107668261150b565b8d825260208201928c84528d604084015260443560608401528460808401528560a08401528660c08401528760e08401528861010084015263ffffffff8b1661012084015263ffffffff8a166101408401528b6101608401526101808301526101a0820152336101c0820152426101e08201528c600052600160205260406000209181518355518051906001600160401b038211610d4157819061080d6001860154611610565b601f81116114b8575b50602090601f83116001146114475760009261143c575b50508160011b916000199060031b1c19161760018301555b60408101518051906001600160401b038211610d4157819061086a6002860154611610565b601f81116113e9575b50602090601f83116001146113785760009261136d575b50508160011b916000199060031b1c19161760028301555b606081015160038301556004820160808201518051906001600160401b038211610d415781906108d28454611610565b601f811161131a575b50602090601f83116001146112b5576000926112aa575b50508160011b916000199060031b1c19161790555b6005820160a08201518051906001600160401b038211610d4157819061092d8454611610565b601f8111611257575b50602090601f83116001146111f2576000926111e7575b50508160011b916000199060031b1c19161790555b6006820160c08201518051906001600160401b038211610d415781906109888454611610565b601f8111611194575b50602090601f831160011461112f57600092611124575b50508160011b916000199060031b1c19161790555b6007820160e08201518051906001600160401b038211610d415781906109e38454611610565b601f81116110d1575b50602090601f831160011461106c57600092611061575b50508160011b916000199060031b1c19161790555b600882016101008201518051906001600160401b038211610d41578190610a3f8454611610565b601f811161100e575b50602090601f8311600114610fa957600092610f9e575b50508160011b916000199060031b1c19161790555b6009820163ffffffff6101208301511681549067ffffffff0000000061014085015160201b16916001600160401b03191617179055600a82016101608201518051906001600160401b038211610d41578190610ad08454611610565b601f8111610f4b575b50602090601f8311600114610ee657600092610edb575b50508160011b916000199060031b1c19161790555b600b82016101808201518051906001600160401b038211610d41578190610b2c8454611610565b601f8111610e88575b50602090601f8311600114610e2357600092610e18575b50508160011b916000199060031b1c19161790555b600c82016101a08201518051906001600160401b038211610d4157610b868354611610565b601f8111610dd0575b50602090601f8311600114610d625791806101e09492600e9694600092610d57575b50508160011b916000199060031b1c19161790555b600d840160018060a01b036101c0830151166bffffffffffffffffffffffff60a01b825416179055015191015560025468010000000000000000811015610d415760018101600255610c17906115df565b81549060031b908d821b91600019901b1916179055604051998a996101808b526101808b01610c459161159e565b8a810360208c0152610c569161159e565b60443560408b015289810360608b0152610c6f9161159e565b88810360808a0152610c809161159e565b87810360a0890152610c919161159e565b86810360c0880152610ca29161159e565b85810360e0870152610cb39161159e565b9163ffffffff1661010085015263ffffffff16610120840152828103610140840152610cde9161159e565b938185036101608301523394610cf39161159e565b037f96eddd90beb787d447ae60c3556b219d3aa5e175d8b72c9c66c5a348f01e8dde91a36000546000198114610d2b57600101600055005b634e487b7160e01b600052601160045260246000fd5b634e487b7160e01b600052604160045260246000fd5b015190503880610bb1565b90601f1983169184600052816000209260005b818110610db85750926001928592600e98966101e0989610610d9f575b505050811b019055610bc6565b015160001960f88460031b161c19169055388080610d92565b92936020600181928786015181550195019301610d75565b836000526020600020601f840160051c81019160208510610e0e575b601f0160051c01905b818110610e025750610b8f565b60008155600101610df5565b9091508190610dec565b015190503880610b4c565b60008581528281209350601f198516905b818110610e705750908460019594939210610e57575b505050811b019055610b61565b015160001960f88460031b161c19169055388080610e4a565b92936020600181928786015181550195019301610e34565b909150836000526020600020601f840160051c81019160208510610ed1575b90601f859493920160051c01905b818110610ec25750610b35565b60008155849350600101610eb5565b9091508190610ea7565b015190503880610af0565b60008581528281209350601f198516905b818110610f335750908460019594939210610f1a575b505050811b019055610b05565b015160001960f88460031b161c19169055388080610f0d565b92936020600181928786015181550195019301610ef7565b909150836000526020600020601f840160051c81019160208510610f94575b90601f859493920160051c01905b818110610f855750610ad9565b60008155849350600101610f78565b9091508190610f6a565b015190503880610a5f565b60008581528281209350601f198516905b818110610ff65750908460019594939210610fdd575b505050811b019055610a74565b015160001960f88460031b161c19169055388080610fd0565b92936020600181928786015181550195019301610fba565b909150836000526020600020601f840160051c81019160208510611057575b90601f859493920160051c01905b8181106110485750610a48565b6000815584935060010161103b565b909150819061102d565b015190503880610a03565b60008581528281209350601f198516905b8181106110b957509084600195949392106110a0575b505050811b019055610a18565b015160001960f88460031b161c19169055388080611093565b9293602060018192878601518155019501930161107d565b909150836000526020600020601f840160051c8101916020851061111a575b90601f859493920160051c01905b81811061110b57506109ec565b600081558493506001016110fe565b90915081906110f0565b0151905038806109a8565b60008581528281209350601f198516905b81811061117c5750908460019594939210611163575b505050811b0190556109bd565b015160001960f88460031b161c19169055388080611156565b92936020600181928786015181550195019301611140565b909150836000526020600020601f840160051c810191602085106111dd575b90601f859493920160051c01905b8181106111ce5750610991565b600081558493506001016111c1565b90915081906111b3565b01519050388061094d565b60008581528281209350601f198516905b81811061123f5750908460019594939210611226575b505050811b019055610962565b015160001960f88460031b161c19169055388080611219565b92936020600181928786015181550195019301611203565b909150836000526020600020601f840160051c810191602085106112a0575b90601f859493920160051c01905b8181106112915750610936565b60008155849350600101611284565b9091508190611276565b0151905038806108f2565b60008581528281209350601f198516905b81811061130257509084600195949392106112e9575b505050811b019055610907565b015160001960f88460031b161c191690553880806112dc565b929360206001819287860151815501950193016112c6565b909150836000526020600020601f840160051c81019160208510611363575b90601f859493920160051c01905b81811061135457506108db565b60008155849350600101611347565b9091508190611339565b01519050388061088a565b92506002850160005280600020906000935b601f19841685106113ce576001945083601f198116106113b5575b505050811b0160028301556108a2565b015160001960f88460031b161c191690553880806113a5565b8181015183556020948501946001909301929091019061138a565b909150600285016000526020600020601f840160051c810160208510611435575b90849392915b601f830160051c82018110611426575050610873565b60008155859450600101611410565b508061140a565b01519050388061082d565b92506001850160005280600020906000935b601f198416851061149d576001945083601f19811610611484575b505050811b016001830155610845565b015160001960f88460031b161c19169055388080611474565b81810151835560209485019460019093019290910190611459565b909150600185016000526020600020601f840160051c810160208510611504575b90849392915b601f830160051c820181106114f5575050610816565b600081558594506001016114df565b50806114d9565b61020081019081106001600160401b03821117610d4157604052565b90601f801991011681019081106001600160401b03821117610d4157604052565b81601f8201121561007c578035906001600160401b038211610d41576040519261157c601f8401601f191660200185611527565b8284526020838301011161007c57816000926020809301838601378301015290565b919082519283825260005b8481106115ca575050826000602080949584010152601f8019910116010190565b806020809284010151828286010152016115a9565b6002548110156115fa57600260005260206000200190600090565b634e487b7160e01b600052603260045260246000fd5b90600182811c92168015611640575b602083101461162a57565b634e487b7160e01b600052602260045260246000fd5b91607f169161161f565b906040519182600082549261165e84611610565b80845293600181169081156116cc5750600114611685575b5061168392500383611527565b565b90506000929192526020600020906000915b8183106116b05750509060206116839282010138611676565b6020919350806001915483858901015201910190918492611697565b90506020925061168394915060ff191682840152151560051b8201013861167656fea2646970667358221220aad4ac36f78c73aae67fda29b5f6ddb2814eb046b77ff1ad46d1f6e61f424a5164736f6c634300081c0033",
  "linkReferences": {},
  "deployedLinkReferences": {}
}