{
  "_format": "hh-sol-artifact-1",
  "contractName": "AnimalTracking",
  "sourceName": "contracts/AnimalTracking.sol",
  "abi": [
    {
      "inputs": [],
      "stateMutability": "nonpayable",
      "type": "constructor"
    },
    {
      "anonymous": false,
      "inputs": [
        {
          "indexed": true,
          "internalType": "uint256",
          "name": "id",
          "type": "uint256"
        },
        {
          "indexed": false,
          "internalType": "string",
          "name": "name",
          "type": "string"
        },
        {
          "indexed": false,
          "internalType": "string",
          "name": "species",
          "type": "string"
        },
        {
          "indexed": true,
          "internalType": "address",
          "name": "addedBy",
          "type": "address"
        }
      ],
      "name": "AnimalAdded",
      "type": "event"
    },
    {
      "inputs": [
        {
          "internalType": "string",
          "name": "_name",
          "type": "string"
        },
        {
          "internalType": "string",
          "name": "_species",
          "type": "string"
        },
        {
          "internalType": "uint256",
          "name": "_age",
          "type": "uint256"
        },
        {
          "internalType": "string",
          "name": "_ownerName",
          "type": "string"
        },
        {
          "internalType": "string",
          "name": "_ownerPhone",
          "type": "string"
        },
        {
          "internalType": "string",
          "name": "_ownerAddress",
          "type": "string"
        },
        {
          "internalType": "string",
          "name": "_shelterName",
          "type": "string"
        },
        {
          "internalType": "string",
          "name": "_gender",
          "type": "string"
        },
        {
          "internalType": "uint32",
          "name": "_weight",
          "type": "uint32"
        },
        {
          "internalType": "uint32",
          "name": "_height",
          "type": "uint32"
        },
        {
          "internalType": "string",
          "name": "_illnesses",
          "type": "string"
        },
        {
          "internalType": "string",
          "name": "_vaccines",
          "type": "string"
        },
        {
          "internalType": "string",
          "name": "_additionalInfo",
          "type": "string"
        }
      ],
      "name": "addAnimal",
      "outputs": [],
      "stateMutability": "nonpayable",
      "type": "function"
    },
    {
      "inputs": [
        {
          "internalType": "uint256",
          "name": "",
          "type": "uint256"
        }
      ],
      "name": "animalIds",
      "outputs": [
        {
          "internalType": "uint256",
          "name": "",
          "type": "uint256"
        }
      ],
      "stateMutability": "view",
      "type": "function"
    },
    {
      "inputs": [
        {
          "internalType": "uint256",
          "name": "",
          "type": "uint256"
        }
      ],
      "name": "animals",
      "outputs": [
        {
          "internalType": "uint256",
          "name": "id",
          "type": "uint256"
        },
        {
          "internalType": "string",
          "name": "name",
          "type": "string"
        },
        {
          "internalType": "string",
          "name": "species",
          "type": "string"
        },
        {
          "internalType": "uint256",
          "name": "age",
          "type": "uint256"
        },
        {
          "internalType": "string",
          "name": "ownerName",
          "type": "string"
        },
        {
          "internalType": "string",
          "name": "ownerPhone",
          "type": "string"
        },
        {
          "internalType": "string",
          "name": "ownerAddress",
          "type": "string"
        },
        {
          "internalType": "string",
          "name": "shelterName",
          "type": "string"
        },
        {
          "internalType": "string",
          "name": "gender",
          "type": "string"
        },
        {
          "internalType": "uint32",
          "name": "weight",
          "type": "uint32"
        },
        {
          "internalType": "uint32",
          "name": "height",
          "type": "uint32"
        },
        {
          "internalType": "string",
          "name": "illnesses",
          "type": "string"
        },
        {
          "internalType": "string",
          "name": "vaccines",
          "type": "string"
        },
        {
          "internalType": "string",
          "name": "additionalInfo",
          "type": "string"
        },
        {
          "internalType": "address",
          "name": "addedBy",
          "type": "address"
        },
        {
          "internalType": "uint256",
          "name": "timestamp",
          "type": "uint256"
        }
      ],
      "stateMutability": "view",
      "type": "function"
    },
    {
      "inputs": [
        {
          "internalType": "uint256",
          "name": "animalId",
          "type": "uint256"
        }
      ],
      "name": "getAnimal",
      "outputs": [
        {
          "components": [
            {
              "internalType": "uint256",
              "name": "id",
              "type": "uint256"
            },
            {
              "internalType": "string",
              "name": "name",
              "type": "string"
            },
            {
              "internalType": "string",
              "name": "species",
              "type": "string"
            },
            {
              "internalType": "uint256",
              "name": "age",
              "type": "uint256"
            },
            {
              "internalType": "string",
              "name": "ownerName",
              "type": "string"
            },
            {
              "internalType": "string",
              "name": "ownerPhone",
              "type": "string"
            },
            {
              "internalType": "string",
              "name": "ownerAddress",
              "type": "string"
            },
            {
              "internalType": "string",
              "name": "shelterName",
              "type": "string"
            },
            {
              "internalType": "string",
              "name": "gender",
              "type": "string"
            },
            {
              "internalType": "uint32",
              "name": "weight",
              "type": "uint32"
            },
            {
              "internalType": "uint32",
              "name": "height",
              "type": "uint32"
            },
            {
              "internalType": "string",
              "name": "illnesses",
              "type": "string"
            },
            {
              "internalType": "string",
              "name": "vaccines",
              "type": "string"
            },
            {
              "internalType": "string",
              "name": "additionalInfo",
              "type": "string"
            },
            {
              "internalType": "address",
              "name": "addedBy",
              "type": "address"
            },
            {
              "internalType": "uint256",
              "name": "timestamp",
              "type": "uint256"
            }
          ],
          "internalType": "struct AnimalTracking.Animal",
          "name": "",
          "type": "tuple"
        }
      ],
      "stateMutability": "view",
      "type": "function"
    },
    {
      "inputs": [],
      "name": "getAnimalCount",
      "outputs": [
        {
          "internalType": "uint256",
          "name": "",
          "type": "uint256"
        }
      ],
      "stateMutability": "view",
      "type": "function"
    }
  ],
  "bytecode": "0x60808060405234601a57600160005561164c90816100208239f35b600080fdfe6080604052600436101561001257600080fd5b60003560e01c80633b8cd9de146105b657806345d3cc81146102655780634efead561461022d57806366634a161461020f5763998dd3ca1461005357600080fd5b3461020a57602036600319011261020a57600435600052600160205260406000208054906001810161008490611572565b9061009160028201611572565b600382015490936100a460048401611572565b6100b060058501611572565b6100bc60068601611572565b6100c860078701611572565b6100d460088801611572565b90600988015492600a89016100e890611572565b946100f5600b8b01611572565b96610102600c8c01611572565b98600160a01b60019003600d8d0154169b600e01549a6040519e8f9e8f9384526020840161020090526102008401610139916114c6565b838103604085015261014a916114c6565b91606001528c8082039060800152610161916114c6565b8b810360a08d0152610172916114c6565b8a810360c08c0152610183916114c6565b89810360e08b0152610194916114c6565b8881036101008a01526101a6916114c6565b9063ffffffff811661012089015260201c63ffffffff166101408801528681036101608801526101d5916114c6565b8581036101808701526101e7916114c6565b8481036101a08601526101f9916114c6565b916101c08401526101e08301520390f35b600080fd5b3461020a57600036600319011261020a576020600254604051908152f35b3461020a57602036600319011261020a5760043560025481101561020a57610256602091611507565b90549060031b1c604051908152f35b3461020a57602036600319011261020a5760043560006101e060405161028a81611433565b828152606060208201526060604082015282606082015260606080820152606060a0820152606060c0820152606060e0820152606061010082015282610120820152826101408201526060610160820152606061018082015260606101a0820152826101c082015201528060005260016020526040600020541561057e57600052600160205261022060206040600020600e6040519161032983611433565b8054835261033960018201611572565b8484015261034960028201611572565b60408401526003810154606084015261036460048201611572565b608084015261037560058201611572565b60a084015261038660068201611572565b60c084015261039760078201611572565b60e08401526103a860088201611572565b61010084015263ffffffff6009820154818116610120860152851c166101408401526103d6600a8201611572565b6101608401526103e8600b8201611572565b6101808401526103fa600c8201611572565b6101a084015260018060a01b03600d820154166101c084015201546101e08201526101e061055e61054661052e6104f26104da6104c36104ad6104976104766104608b6040519e8f9e8f92818452805182850152015191610200604082015201906114c6565b60408c01518d8203601f190160608f01526114c6565b60608b015160808d015260808b01518c60a0601f19828503019101526114c6565b60a08a01518b8203601f190160c08d01526114c6565b60c08901518a8203601f190160e08c01526114c6565b60e0880151898203601f19016101008b01526114c6565b610100870151888203601f19016101208a01526114c6565b63ffffffff6101208701511661014088015263ffffffff61014087015116610160880152610160860151601f19888303016101808901526114c6565b610180850151868203601f19016101a08801526114c6565b6101a0840151858203601f19016101c08701526114c6565b6101c08301516001600160a01b0316848301529101516102008301520390f35b60405162461bcd60e51b815260206004820152601060248201526f105b9a5b585b081b9bdd08199bdd5b9960821b6044820152606490fd5b3461020a576101a036600319011261020a576004356001600160401b03811161020a576105e7903690600401611470565b6024356001600160401b03811161020a57610606903690600401611470565b906064356001600160401b03811161020a57610626903690600401611470565b906084356001600160401b03811161020a57610646903690600401611470565b9160a4356001600160401b03811161020a57610666903690600401611470565b9060c4356001600160401b03811161020a57610686903690600401611470565b9160e4356001600160401b03811161020a576106a6903690600401611470565b6101043563ffffffff811680910361020a576101243563ffffffff811680910361020a57610144356001600160401b03811161020a576106ea903690600401611470565b91610164356001600160401b03811161020a5761070b903690600401611470565b9361018435976001600160401b03891161020a5761072e8c993690600401611470565b966000549b604051996107408b611433565b8d8b5260208b019b8d8d5260408c015260443560608c015260808b015260a08a015260c089015260e08801526101008701526101208601526101408501526101608401526101808301526101a0820152336101c0820152426101e082015283600052600160205260406000209181518355518051906001600160401b038211610c695781906107d26001860154611538565b601f81116113e0575b50602090601f831160011461136f57600092611364575b50508160011b916000199060031b1c19161760018301555b60408101518051906001600160401b038211610c6957819061082f6002860154611538565b601f8111611311575b50602090601f83116001146112a057600092611295575b50508160011b916000199060031b1c19161760028301555b606081015160038301556004820160808201518051906001600160401b038211610c695781906108978454611538565b601f8111611242575b50602090601f83116001146111dd576000926111d2575b50508160011b916000199060031b1c19161790555b6005820160a08201518051906001600160401b038211610c695781906108f28454611538565b601f811161117f575b50602090601f831160011461111a5760009261110f575b50508160011b916000199060031b1c19161790555b6006820160c08201518051906001600160401b038211610c6957819061094d8454611538565b601f81116110bc575b50602090601f83116001146110575760009261104c575b50508160011b916000199060031b1c19161790555b6007820160e08201518051906001600160401b038211610c695781906109a88454611538565b601f8111610ff9575b50602090601f8311600114610f9457600092610f89575b50508160011b916000199060031b1c19161790555b600882016101008201518051906001600160401b038211610c69578190610a048454611538565b601f8111610f36575b50602090601f8311600114610ed157600092610ec6575b50508160011b916000199060031b1c19161790555b6009820163ffffffff6101208301511681549067ffffffff0000000061014085015160201b16916001600160401b03191617179055600a82016101608201518051906001600160401b038211610c69578190610a958454611538565b601f8111610e73575b50602090601f8311600114610e0e57600092610e03575b50508160011b916000199060031b1c19161790555b600b82016101808201518051906001600160401b038211610c69578190610af18454611538565b601f8111610db0575b50602090601f8311600114610d4b57600092610d40575b50508160011b916000199060031b1c19161790555b600c82016101a08201518051906001600160401b038211610c6957610b4b8354611538565b601f8111610cf8575b50602090601f8311600114610c8a5791806101e09492600e9694600092610c7f575b50508160011b916000199060031b1c19161790555b600d840160018060a01b036101c0830151166bffffffffffffffffffffffff60a01b825416179055015191015560025468010000000000000000811015610c69577fbec88f0688ffbe1eb884c48e22da13a44b912444f86ac435675a95f23a07deef91610c01826001610c2d9401600255611507565b81549060031b9086821b91600019901b1916179055610c3c6040519283926040845260408401906114c6565b828103602084015233966114c6565b0390a36000546000198114610c5357600101600055005b634e487b7160e01b600052601160045260246000fd5b634e487b7160e01b600052604160045260246000fd5b015190508a80610b76565b90601f1983169184600052816000209260005b818110610ce05750926001928592600e98966101e0989610610cc7575b505050811b019055610b8b565b015160001960f88460031b161c191690558a8080610cba565b92936020600181928786015181550195019301610c9d565b836000526020600020601f840160051c81019160208510610d36575b601f0160051c01905b818110610d2a5750610b54565b60008155600101610d1d565b9091508190610d14565b015190508880610b11565b60008581528281209350601f198516905b818110610d985750908460019594939210610d7f575b505050811b019055610b26565b015160001960f88460031b161c19169055888080610d72565b92936020600181928786015181550195019301610d5c565b909150836000526020600020601f840160051c81019160208510610df9575b90601f859493920160051c01905b818110610dea5750610afa565b60008155849350600101610ddd565b9091508190610dcf565b015190508880610ab5565b60008581528281209350601f198516905b818110610e5b5750908460019594939210610e42575b505050811b019055610aca565b015160001960f88460031b161c19169055888080610e35565b92936020600181928786015181550195019301610e1f565b909150836000526020600020601f840160051c81019160208510610ebc575b90601f859493920160051c01905b818110610ead5750610a9e565b60008155849350600101610ea0565b9091508190610e92565b015190508880610a24565b60008581528281209350601f198516905b818110610f1e5750908460019594939210610f05575b505050811b019055610a39565b015160001960f88460031b161c19169055888080610ef8565b92936020600181928786015181550195019301610ee2565b909150836000526020600020601f840160051c81019160208510610f7f575b90601f859493920160051c01905b818110610f705750610a0d565b60008155849350600101610f63565b9091508190610f55565b0151905088806109c8565b60008581528281209350601f198516905b818110610fe15750908460019594939210610fc8575b505050811b0190556109dd565b015160001960f88460031b161c19169055888080610fbb565b92936020600181928786015181550195019301610fa5565b909150836000526020600020601f840160051c81019160208510611042575b90601f859493920160051c01905b81811061103357506109b1565b60008155849350600101611026565b9091508190611018565b01519050888061096d565b60008581528281209350601f198516905b8181106110a4575090846001959493921061108b575b505050811b019055610982565b015160001960f88460031b161c1916905588808061107e565b92936020600181928786015181550195019301611068565b909150836000526020600020601f840160051c81019160208510611105575b90601f859493920160051c01905b8181106110f65750610956565b600081558493506001016110e9565b90915081906110db565b015190508880610912565b60008581528281209350601f198516905b818110611167575090846001959493921061114e575b505050811b019055610927565b015160001960f88460031b161c19169055888080611141565b9293602060018192878601518155019501930161112b565b909150836000526020600020601f840160051c810191602085106111c8575b90601f859493920160051c01905b8181106111b957506108fb565b600081558493506001016111ac565b909150819061119e565b0151905088806108b7565b60008581528281209350601f198516905b81811061122a5750908460019594939210611211575b505050811b0190556108cc565b015160001960f88460031b161c19169055888080611204565b929360206001819287860151815501950193016111ee565b909150836000526020600020601f840160051c8101916020851061128b575b90601f859493920160051c01905b81811061127c57506108a0565b6000815584935060010161126f565b9091508190611261565b01519050878061084f565b92506002850160005280600020906000935b601f19841685106112f6576001945083601f198116106112dd575b505050811b016002830155610867565b015160001960f88460031b161c191690558780806112cd565b818101518355602094850194600190930192909101906112b2565b909150600285016000526020600020601f840160051c81016020851061135d575b90849392915b601f830160051c8201811061134e575050610838565b60008155859450600101611338565b5080611332565b0151905087806107f2565b92506001850160005280600020906000935b601f19841685106113c5576001945083601f198116106113ac575b505050811b01600183015561080a565b015160001960f88460031b161c1916905587808061139c565b81810151835560209485019460019093019290910190611381565b909150600185016000526020600020601f840160051c81016020851061142c575b90849392915b601f830160051c8201811061141d5750506107db565b60008155859450600101611407565b5080611401565b61020081019081106001600160401b03821117610c6957604052565b90601f801991011681019081106001600160401b03821117610c6957604052565b81601f8201121561020a578035906001600160401b038211610c6957604051926114a4601f8401601f19166020018561144f565b8284526020838301011161020a57816000926020809301838601378301015290565b919082519283825260005b8481106114f2575050826000602080949584010152601f8019910116010190565b806020809284010151828286010152016114d1565b60025481101561152257600260005260206000200190600090565b634e487b7160e01b600052603260045260246000fd5b90600182811c92168015611568575b602083101461155257565b634e487b7160e01b600052602260045260246000fd5b91607f1691611547565b906040519182600082549261158684611538565b80845293600181169081156115f457506001146115ad575b506115ab9250038361144f565b565b90506000929192526020600020906000915b8183106115d85750509060206115ab928201013861159e565b60209193508060019154838589010152019101909184926115bf565b9050602092506115ab94915060ff191682840152151560051b8201013861159e56fea2646970667358221220fb2818185357caf11119fde03422df9d768dc54e3ba596515a833a689f10ca8b64736f6c634300081c0033",
  "linkReferences": {},
  "deployedLinkReferences": {}
}