{
  "_format": "hh-sol-artifact-1",
  "contractName": "AnimalTracking",
  "sourceName": "contracts/AnimalTracking.sol",
  "abi": [
    {
      "anonymous": false,
      "inputs": [
        {
          "indexed": true,
          "internalType": "uint256",
          "name": "id",
          "type": "uint256"
        },
        {
          "indexed": false,
          "internalType": "string",
          "name": "name",
          "type": "string"
        },
        {
          "indexed": false,
          "internalType": "string",
          "name": "species",
          "type": "string"
        },
        {
          "indexed": true,
          "internalType": "address",
          "name": "addedBy",
          "type": "address"
        }
      ],
      "name": "AnimalAdded",
      "type": "event"
    },
    {
      "inputs": [
        {
          "internalType": "uint256",
          "name": "_id",
          "type": "uint256"
        },
        {
          "internalType": "string",
          "name": "_name",
          "type": "string"
        },
        {
          "internalType": "string",
          "name": "_species",
          "type": "string"
        },
        {
          "internalType": "uint256",
          "name": "_age",
          "type": "uint256"
        },
        {
          "internalType": "string",
          "name": "_additionalInfo",
          "type": "string"
        }
      ],
      "name": "addAnimal",
      "outputs": [],
      "stateMutability": "nonpayable",
      "type": "function"
    },
    {
      "inputs": [
        {
          "internalType": "uint256",
          "name": "",
          "type": "uint256"
        }
      ],
      "name": "animalIds",
      "outputs": [
        {
          "internalType": "uint256",
          "name": "",
          "type": "uint256"
        }
      ],
      "stateMutability": "view",
      "type": "function"
    },
    {
      "inputs": [
        {
          "internalType": "uint256",
          "name": "",
          "type": "uint256"
        }
      ],
      "name": "animals",
      "outputs": [
        {
          "internalType": "uint256",
          "name": "id",
          "type": "uint256"
        },
        {
          "internalType": "string",
          "name": "name",
          "type": "string"
        },
        {
          "internalType": "string",
          "name": "species",
          "type": "string"
        },
        {
          "internalType": "uint256",
          "name": "age",
          "type": "uint256"
        },
        {
          "internalType": "string",
          "name": "additionalInfo",
          "type": "string"
        },
        {
          "internalType": "address",
          "name": "addedBy",
          "type": "address"
        },
        {
          "internalType": "uint256",
          "name": "timestamp",
          "type": "uint256"
        }
      ],
      "stateMutability": "view",
      "type": "function"
    },
    {
      "inputs": [
        {
          "internalType": "uint256",
          "name": "_id",
          "type": "uint256"
        }
      ],
      "name": "getAnimal",
      "outputs": [
        {
          "components": [
            {
              "internalType": "uint256",
              "name": "id",
              "type": "uint256"
            },
            {
              "internalType": "string",
              "name": "name",
              "type": "string"
            },
            {
              "internalType": "string",
              "name": "species",
              "type": "string"
            },
            {
              "internalType": "uint256",
              "name": "age",
              "type": "uint256"
            },
            {
              "internalType": "string",
              "name": "additionalInfo",
              "type": "string"
            },
            {
              "internalType": "address",
              "name": "addedBy",
              "type": "address"
            },
            {
              "internalType": "uint256",
              "name": "timestamp",
              "type": "uint256"
            }
          ],
          "internalType": "struct AnimalTracking.Animal",
          "name": "",
          "type": "tuple"
        }
      ],
      "stateMutability": "view",
      "type": "function"
    },
    {
      "inputs": [],
      "name": "getAnimalCount",
      "outputs": [
        {
          "internalType": "uint256",
          "name": "",
          "type": "uint256"
        }
      ],
      "stateMutability": "view",
      "type": "function"
    }
  ],
  "bytecode": "0x6080604052348015600f57600080fd5b506111ad8061001f6000396000f3fe608060405234801561001057600080fd5b50600436106100575760003560e01c806345d3cc811461005c5780634efead561461008c57806366634a16146100bc578063998dd3ca146100da578063a2e9f9d414610110575b600080fd5b61007660048036038101906100719190610880565b61012c565b6040516100839190610a37565b60405180910390f35b6100a660048036038101906100a19190610880565b6103da565b6040516100b39190610a68565b60405180910390f35b6100c46103fe565b6040516100d19190610a68565b60405180910390f35b6100f460048036038101906100ef9190610880565b61040b565b6040516101079796959493929190610adc565b60405180910390f35b61012a60048036038101906101259190610c95565b610605565b005b6101346107e3565b6000806000848152602001908152602001600020600001540361018c576040517f08c379a000000000000000000000000000000000000000000000000000000000815260040161018390610db0565b60405180910390fd5b6000808381526020019081526020016000206040518060e0016040529081600082015481526020016001820180546101c390610dff565b80601f01602080910402602001604051908101604052809291908181526020018280546101ef90610dff565b801561023c5780601f106102115761010080835404028352916020019161023c565b820191906000526020600020905b81548152906001019060200180831161021f57829003601f168201915b5050505050815260200160028201805461025590610dff565b80601f016020809104026020016040519081016040528092919081815260200182805461028190610dff565b80156102ce5780601f106102a3576101008083540402835291602001916102ce565b820191906000526020600020905b8154815290600101906020018083116102b157829003601f168201915b50505050508152602001600382015481526020016004820180546102f190610dff565b80601f016020809104026020016040519081016040528092919081815260200182805461031d90610dff565b801561036a5780601f1061033f5761010080835404028352916020019161036a565b820191906000526020600020905b81548152906001019060200180831161034d57829003601f168201915b505050505081526020016005820160009054906101000a900473ffffffffffffffffffffffffffffffffffffffff1673ffffffffffffffffffffffffffffffffffffffff1673ffffffffffffffffffffffffffffffffffffffff1681526020016006820154815250509050919050565b600181815481106103ea57600080fd5b906000526020600020016000915090505481565b6000600180549050905090565b600060205280600052604060002060009150905080600001549080600101805461043490610dff565b80601f016020809104026020016040519081016040528092919081815260200182805461046090610dff565b80156104ad5780601f10610482576101008083540402835291602001916104ad565b820191906000526020600020905b81548152906001019060200180831161049057829003601f168201915b5050505050908060020180546104c290610dff565b80601f01602080910402602001604051908101604052809291908181526020018280546104ee90610dff565b801561053b5780601f106105105761010080835404028352916020019161053b565b820191906000526020600020905b81548152906001019060200180831161051e57829003601f168201915b50505050509080600301549080600401805461055690610dff565b80601f016020809104026020016040519081016040528092919081815260200182805461058290610dff565b80156105cf5780601f106105a4576101008083540402835291602001916105cf565b820191906000526020600020905b8154815290600101906020018083116105b257829003601f168201915b5050505050908060050160009054906101000a900473ffffffffffffffffffffffffffffffffffffffff16908060060154905087565b6000806000878152602001908152602001600020600001541461065d576040517f08c379a000000000000000000000000000000000000000000000000000000000815260040161065490610ea2565b60405180910390fd5b6040518060e001604052808681526020018581526020018481526020018381526020018281526020013373ffffffffffffffffffffffffffffffffffffffff168152602001428152506000808781526020019081526020016000206000820151816000015560208201518160010190816106d7919061106e565b5060408201518160020190816106ed919061106e565b5060608201518160030155608082015181600401908161070d919061106e565b5060a08201518160050160006101000a81548173ffffffffffffffffffffffffffffffffffffffff021916908373ffffffffffffffffffffffffffffffffffffffff16021790555060c0820151816006015590505060018590806001815401808255809150506001900390600052602060002001600090919091909150553373ffffffffffffffffffffffffffffffffffffffff16857fbec88f0688ffbe1eb884c48e22da13a44b912444f86ac435675a95f23a07deef86866040516107d4929190611140565b60405180910390a35050505050565b6040518060e001604052806000815260200160608152602001606081526020016000815260200160608152602001600073ffffffffffffffffffffffffffffffffffffffff168152602001600081525090565b6000604051905090565b600080fd5b600080fd5b6000819050919050565b61085d8161084a565b811461086857600080fd5b50565b60008135905061087a81610854565b92915050565b60006020828403121561089657610895610840565b5b60006108a48482850161086b565b91505092915050565b6108b68161084a565b82525050565b600081519050919050565b600082825260208201905092915050565b60005b838110156108f65780820151818401526020810190506108db565b60008484015250505050565b6000601f19601f8301169050919050565b600061091e826108bc565b61092881856108c7565b93506109388185602086016108d8565b61094181610902565b840191505092915050565b600073ffffffffffffffffffffffffffffffffffffffff82169050919050565b60006109778261094c565b9050919050565b6109878161096c565b82525050565b600060e0830160008301516109a560008601826108ad565b50602083015184820360208601526109bd8282610913565b915050604083015184820360408601526109d78282610913565b91505060608301516109ec60608601826108ad565b5060808301518482036080860152610a048282610913565b91505060a0830151610a1960a086018261097e565b5060c0830151610a2c60c08601826108ad565b508091505092915050565b60006020820190508181036000830152610a51818461098d565b905092915050565b610a628161084a565b82525050565b6000602082019050610a7d6000830184610a59565b92915050565b600082825260208201905092915050565b6000610a9f826108bc565b610aa98185610a83565b9350610ab98185602086016108d8565b610ac281610902565b840191505092915050565b610ad68161096c565b82525050565b600060e082019050610af1600083018a610a59565b8181036020830152610b038189610a94565b90508181036040830152610b178188610a94565b9050610b266060830187610a59565b8181036080830152610b388186610a94565b9050610b4760a0830185610acd565b610b5460c0830184610a59565b98975050505050505050565b600080fd5b600080fd5b7f4e487b7100000000000000000000000000000000000000000000000000000000600052604160045260246000fd5b610ba282610902565b810181811067ffffffffffffffff82111715610bc157610bc0610b6a565b5b80604052505050565b6000610bd4610836565b9050610be08282610b99565b919050565b600067ffffffffffffffff821115610c0057610bff610b6a565b5b610c0982610902565b9050602081019050919050565b82818337600083830152505050565b6000610c38610c3384610be5565b610bca565b905082815260208101848484011115610c5457610c53610b65565b5b610c5f848285610c16565b509392505050565b600082601f830112610c7c57610c7b610b60565b5b8135610c8c848260208601610c25565b91505092915050565b600080600080600060a08688031215610cb157610cb0610840565b5b6000610cbf8882890161086b565b955050602086013567ffffffffffffffff811115610ce057610cdf610845565b5b610cec88828901610c67565b945050604086013567ffffffffffffffff811115610d0d57610d0c610845565b5b610d1988828901610c67565b9350506060610d2a8882890161086b565b925050608086013567ffffffffffffffff811115610d4b57610d4a610845565b5b610d5788828901610c67565b9150509295509295909350565b7f416e696d616c206e6f7420666f756e6400000000000000000000000000000000600082015250565b6000610d9a601083610a83565b9150610da582610d64565b602082019050919050565b60006020820190508181036000830152610dc981610d8d565b9050919050565b7f4e487b7100000000000000000000000000000000000000000000000000000000600052602260045260246000fd5b60006002820490506001821680610e1757607f821691505b602082108103610e2a57610e29610dd0565b5b50919050565b7f416e696d616c2077697468207468697320494420616c7265616479206578697360008201527f7473000000000000000000000000000000000000000000000000000000000000602082015250565b6000610e8c602283610a83565b9150610e9782610e30565b604082019050919050565b60006020820190508181036000830152610ebb81610e7f565b9050919050565b60008190508160005260206000209050919050565b60006020601f8301049050919050565b600082821b905092915050565b600060088302610f247fffffffffffffffffffffffffffffffffffffffffffffffffffffffffffffffff82610ee7565b610f2e8683610ee7565b95508019841693508086168417925050509392505050565b6000819050919050565b6000610f6b610f66610f618461084a565b610f46565b61084a565b9050919050565b6000819050919050565b610f8583610f50565b610f99610f9182610f72565b848454610ef4565b825550505050565b600090565b610fae610fa1565b610fb9818484610f7c565b505050565b5b81811015610fdd57610fd2600082610fa6565b600181019050610fbf565b5050565b601f82111561102257610ff381610ec2565b610ffc84610ed7565b8101602085101561100b578190505b61101f61101785610ed7565b830182610fbe565b50505b505050565b600082821c905092915050565b600061104560001984600802611027565b1980831691505092915050565b600061105e8383611034565b9150826002028217905092915050565b611077826108bc565b67ffffffffffffffff8111156110905761108f610b6a565b5b61109a8254610dff565b6110a5828285610fe1565b600060209050601f8311600181146110d857600084156110c6578287015190505b6110d08582611052565b865550611138565b601f1984166110e686610ec2565b60005b8281101561110e578489015182556001820191506020850194506020810190506110e9565b8683101561112b5784890151611127601f891682611034565b8355505b6001600288020188555050505b505050505050565b6000604082019050818103600083015261115a8185610a94565b9050818103602083015261116e8184610a94565b9050939250505056fea2646970667358221220a94e036f802bd9df5d077f28a1cbc080fd4947188d5838b0ffa7dde8763e4b8b64736f6c634300081c0033",
  "linkReferences": {},
  "deployedLinkReferences": {}
}