{
  "contracts/AnimalTracking.sol": {
    "AnimalTracking": {
      "abi": [
        {
          "inputs": [],
          "stateMutability": "nonpayable",
          "type": "constructor"
        },
        {
          "anonymous": false,
          "inputs": [
            {
              "indexed": true,
              "internalType": "uint256",
              "name": "id",
              "type": "uint256"
            },
            {
              "indexed": false,
              "internalType": "string",
              "name": "name",
              "type": "string"
            },
            {
              "indexed": false,
              "internalType": "string",
              "name": "species",
              "type": "string"
            },
            {
              "indexed": true,
              "internalType": "address",
              "name": "addedBy",
              "type": "address"
            }
          ],
          "name": "AnimalAdded",
          "type": "event"
        },
        {
          "inputs": [
            {
              "internalType": "string",
              "name": "_name",
              "type": "string"
            },
            {
              "internalType": "string",
              "name": "_species",
              "type": "string"
            },
            {
              "internalType": "uint256",
              "name": "_age",
              "type": "uint256"
            },
            {
              "internalType": "string",
              "name": "_ownerName",
              "type": "string"
            },
            {
              "internalType": "string",
              "name": "_ownerPhone",
              "type": "string"
            },
            {
              "internalType": "string",
              "name": "_ownerAddress",
              "type": "string"
            },
            {
              "internalType": "string",
              "name": "_shelterName",
              "type": "string"
            },
            {
              "internalType": "string",
              "name": "_gender",
              "type": "string"
            },
            {
              "internalType": "uint32",
              "name": "_weight",
              "type": "uint32"
            },
            {
              "internalType": "uint32",
              "name": "_height",
              "type": "uint32"
            },
            {
              "internalType": "string",
              "name": "_illnesses",
              "type": "string"
            },
            {
              "internalType": "string",
              "name": "_vaccines",
              "type": "string"
            },
            {
              "internalType": "string",
              "name": "_additionalInfo",
              "type": "string"
            }
          ],
          "name": "addAnimal",
          "outputs": [],
          "stateMutability": "nonpayable",
          "type": "function"
        },
        {
          "inputs": [
            {
              "internalType": "uint256",
              "name": "",
              "type": "uint256"
            }
          ],
          "name": "animalIds",
          "outputs": [
            {
              "internalType": "uint256",
              "name": "",
              "type": "uint256"
            }
          ],
          "stateMutability": "view",
          "type": "function"
        },
        {
          "inputs": [
            {
              "internalType": "uint256",
              "name": "",
              "type": "uint256"
            }
          ],
          "name": "animals",
          "outputs": [
            {
              "internalType": "uint256",
              "name": "id",
              "type": "uint256"
            },
            {
              "internalType": "string",
              "name": "name",
              "type": "string"
            },
            {
              "internalType": "string",
              "name": "species",
              "type": "string"
            },
            {
              "internalType": "uint256",
              "name": "age",
              "type": "uint256"
            },
            {
              "internalType": "string",
              "name": "ownerName",
              "type": "string"
            },
            {
              "internalType": "string",
              "name": "ownerPhone",
              "type": "string"
            },
            {
              "internalType": "string",
              "name": "ownerAddress",
              "type": "string"
            },
            {
              "internalType": "string",
              "name": "shelterName",
              "type": "string"
            },
            {
              "internalType": "string",
              "name": "gender",
              "type": "string"
            },
            {
              "internalType": "uint32",
              "name": "weight",
              "type": "uint32"
            },
            {
              "internalType": "uint32",
              "name": "height",
              "type": "uint32"
            },
            {
              "internalType": "string",
              "name": "illnesses",
              "type": "string"
            },
            {
              "internalType": "string",
              "name": "vaccines",
              "type": "string"
            },
            {
              "internalType": "string",
              "name": "additionalInfo",
              "type": "string"
            },
            {
              "internalType": "address",
              "name": "addedBy",
              "type": "address"
            },
            {
              "internalType": "uint256",
              "name": "timestamp",
              "type": "uint256"
            }
          ],
          "stateMutability": "view",
          "type": "function"
        },
        {
          "inputs": [
            {
              "internalType": "uint256",
              "name": "animalId",
              "type": "uint256"
            }
          ],
          "name": "getAnimal",
          "outputs": [
            {
              "components": [
                {
                  "internalType": "uint256",
                  "name": "id",
                  "type": "uint256"
                },
                {
                  "internalType": "string",
                  "name": "name",
                  "type": "string"
                },
                {
                  "internalType": "string",
                  "name": "species",
                  "type": "string"
                },
                {
                  "internalType": "uint256",
                  "name": "age",
                  "type": "uint256"
                },
                {
                  "internalType": "string",
                  "name": "ownerName",
                  "type": "string"
                },
                {
                  "internalType": "string",
                  "name": "ownerPhone",
                  "type": "string"
                },
                {
                  "internalType": "string",
                  "name": "ownerAddress",
                  "type": "string"
                },
                {
                  "internalType": "string",
                  "name": "shelterName",
                  "type": "string"
                },
                {
                  "internalType": "string",
                  "name": "gender",
                  "type": "string"
                },
                {
                  "internalType": "uint32",
                  "name": "weight",
                  "type": "uint32"
                },
                {
                  "internalType": "uint32",
                  "name": "height",
                  "type": "uint32"
                },
                {
                  "internalType": "string",
                  "name": "illnesses",
                  "type": "string"
                },
                {
                  "internalType": "string",
                  "name": "vaccines",
                  "type": "string"
                },
                {
                  "internalType": "string",
                  "name": "additionalInfo",
                  "type": "string"
                },
                {
                  "internalType": "address",
                  "name": "addedBy",
                  "type": "address"
                },
                {
                  "internalType": "uint256",
                  "name": "timestamp",
                  "type": "uint256"
                }
              ],
              "internalType": "struct AnimalTracking.Animal",
              "name": "",
              "type": "tuple"
            }
          ],
          "stateMutability": "view",
          "type": "function"
        },
        {
          "inputs": [],
          "name": "getAnimalCount",
          "outputs": [
            {
              "internalType": "uint256",
              "name": "",
              "type": "uint256"
            }
          ],
          "stateMutability": "view",
          "type": "function"
        }
      ],
      "evm": {
        "bytecode": {
          "linkReferences": {},
          "object": "60808060405234601a57600160005561164c90816100208239f35b600080fdfe6080604052600436101561001257600080fd5b60003560e01c80633b8cd9de146105b657806345d3cc81146102655780634efead561461022d57806366634a161461020f5763998dd3ca1461005357600080fd5b3461020a57602036600319011261020a57600435600052600160205260406000208054906001810161008490611572565b9061009160028201611572565b600382015490936100a460048401611572565b6100b060058501611572565b6100bc60068601611572565b6100c860078701611572565b6100d460088801611572565b90600988015492600a89016100e890611572565b946100f5600b8b01611572565b96610102600c8c01611572565b98600160a01b60019003600d8d0154169b600e01549a6040519e8f9e8f9384526020840161020090526102008401610139916114c6565b838103604085015261014a916114c6565b91606001528c8082039060800152610161916114c6565b8b810360a08d0152610172916114c6565b8a810360c08c0152610183916114c6565b89810360e08b0152610194916114c6565b8881036101008a01526101a6916114c6565b9063ffffffff811661012089015260201c63ffffffff166101408801528681036101608801526101d5916114c6565b8581036101808701526101e7916114c6565b8481036101a08601526101f9916114c6565b916101c08401526101e08301520390f35b600080fd5b3461020a57600036600319011261020a576020600254604051908152f35b3461020a57602036600319011261020a5760043560025481101561020a57610256602091611507565b90549060031b1c604051908152f35b3461020a57602036600319011261020a5760043560006101e060405161028a81611433565b828152606060208201526060604082015282606082015260606080820152606060a0820152606060c0820152606060e0820152606061010082015282610120820152826101408201526060610160820152606061018082015260606101a0820152826101c082015201528060005260016020526040600020541561057e57600052600160205261022060206040600020600e6040519161032983611433565b8054835261033960018201611572565b8484015261034960028201611572565b60408401526003810154606084015261036460048201611572565b608084015261037560058201611572565b60a084015261038660068201611572565b60c084015261039760078201611572565b60e08401526103a860088201611572565b61010084015263ffffffff6009820154818116610120860152851c166101408401526103d6600a8201611572565b6101608401526103e8600b8201611572565b6101808401526103fa600c8201611572565b6101a084015260018060a01b03600d820154166101c084015201546101e08201526101e061055e61054661052e6104f26104da6104c36104ad6104976104766104608b6040519e8f9e8f92818452805182850152015191610200604082015201906114c6565b60408c01518d8203601f190160608f01526114c6565b60608b015160808d015260808b01518c60a0601f19828503019101526114c6565b60a08a01518b8203601f190160c08d01526114c6565b60c08901518a8203601f190160e08c01526114c6565b60e0880151898203601f19016101008b01526114c6565b610100870151888203601f19016101208a01526114c6565b63ffffffff6101208701511661014088015263ffffffff61014087015116610160880152610160860151601f19888303016101808901526114c6565b610180850151868203601f19016101a08801526114c6565b6101a0840151858203601f19016101c08701526114c6565b6101c08301516001600160a01b0316848301529101516102008301520390f35b60405162461bcd60e51b815260206004820152601060248201526f105b9a5b585b081b9bdd08199bdd5b9960821b6044820152606490fd5b3461020a576101a036600319011261020a576004356001600160401b03811161020a576105e7903690600401611470565b6024356001600160401b03811161020a57610606903690600401611470565b906064356001600160401b03811161020a57610626903690600401611470565b906084356001600160401b03811161020a57610646903690600401611470565b9160a4356001600160401b03811161020a57610666903690600401611470565b9060c4356001600160401b03811161020a57610686903690600401611470565b9160e4356001600160401b03811161020a576106a6903690600401611470565b6101043563ffffffff811680910361020a576101243563ffffffff811680910361020a57610144356001600160401b03811161020a576106ea903690600401611470565b91610164356001600160401b03811161020a5761070b903690600401611470565b9361018435976001600160401b03891161020a5761072e8c993690600401611470565b966000549b604051996107408b611433565b8d8b5260208b019b8d8d5260408c015260443560608c015260808b015260a08a015260c089015260e08801526101008701526101208601526101408501526101608401526101808301526101a0820152336101c0820152426101e082015283600052600160205260406000209181518355518051906001600160401b038211610c695781906107d26001860154611538565b601f81116113e0575b50602090601f831160011461136f57600092611364575b50508160011b916000199060031b1c19161760018301555b60408101518051906001600160401b038211610c6957819061082f6002860154611538565b601f8111611311575b50602090601f83116001146112a057600092611295575b50508160011b916000199060031b1c19161760028301555b606081015160038301556004820160808201518051906001600160401b038211610c695781906108978454611538565b601f8111611242575b50602090601f83116001146111dd576000926111d2575b50508160011b916000199060031b1c19161790555b6005820160a08201518051906001600160401b038211610c695781906108f28454611538565b601f811161117f575b50602090601f831160011461111a5760009261110f575b50508160011b916000199060031b1c19161790555b6006820160c08201518051906001600160401b038211610c6957819061094d8454611538565b601f81116110bc575b50602090601f83116001146110575760009261104c575b50508160011b916000199060031b1c19161790555b6007820160e08201518051906001600160401b038211610c695781906109a88454611538565b601f8111610ff9575b50602090601f8311600114610f9457600092610f89575b50508160011b916000199060031b1c19161790555b600882016101008201518051906001600160401b038211610c69578190610a048454611538565b601f8111610f36575b50602090601f8311600114610ed157600092610ec6575b50508160011b916000199060031b1c19161790555b6009820163ffffffff6101208301511681549067ffffffff0000000061014085015160201b16916001600160401b03191617179055600a82016101608201518051906001600160401b038211610c69578190610a958454611538565b601f8111610e73575b50602090601f8311600114610e0e57600092610e03575b50508160011b916000199060031b1c19161790555b600b82016101808201518051906001600160401b038211610c69578190610af18454611538565b601f8111610db0575b50602090601f8311600114610d4b57600092610d40575b50508160011b916000199060031b1c19161790555b600c82016101a08201518051906001600160401b038211610c6957610b4b8354611538565b601f8111610cf8575b50602090601f8311600114610c8a5791806101e09492600e9694600092610c7f575b50508160011b916000199060031b1c19161790555b600d840160018060a01b036101c0830151166bffffffffffffffffffffffff60a01b825416179055015191015560025468010000000000000000811015610c69577fbec88f0688ffbe1eb884c48e22da13a44b912444f86ac435675a95f23a07deef91610c01826001610c2d9401600255611507565b81549060031b9086821b91600019901b1916179055610c3c6040519283926040845260408401906114c6565b828103602084015233966114c6565b0390a36000546000198114610c5357600101600055005b634e487b7160e01b600052601160045260246000fd5b634e487b7160e01b600052604160045260246000fd5b015190508a80610b76565b90601f1983169184600052816000209260005b818110610ce05750926001928592600e98966101e0989610610cc7575b505050811b019055610b8b565b015160001960f88460031b161c191690558a8080610cba565b92936020600181928786015181550195019301610c9d565b836000526020600020601f840160051c81019160208510610d36575b601f0160051c01905b818110610d2a5750610b54565b60008155600101610d1d565b9091508190610d14565b015190508880610b11565b60008581528281209350601f198516905b818110610d985750908460019594939210610d7f575b505050811b019055610b26565b015160001960f88460031b161c19169055888080610d72565b92936020600181928786015181550195019301610d5c565b909150836000526020600020601f840160051c81019160208510610df9575b90601f859493920160051c01905b818110610dea5750610afa565b60008155849350600101610ddd565b9091508190610dcf565b015190508880610ab5565b60008581528281209350601f198516905b818110610e5b5750908460019594939210610e42575b505050811b019055610aca565b015160001960f88460031b161c19169055888080610e35565b92936020600181928786015181550195019301610e1f565b909150836000526020600020601f840160051c81019160208510610ebc575b90601f859493920160051c01905b818110610ead5750610a9e565b60008155849350600101610ea0565b9091508190610e92565b015190508880610a24565b60008581528281209350601f198516905b818110610f1e5750908460019594939210610f05575b505050811b019055610a39565b015160001960f88460031b161c19169055888080610ef8565b92936020600181928786015181550195019301610ee2565b909150836000526020600020601f840160051c81019160208510610f7f575b90601f859493920160051c01905b818110610f705750610a0d565b60008155849350600101610f63565b9091508190610f55565b0151905088806109c8565b60008581528281209350601f198516905b818110610fe15750908460019594939210610fc8575b505050811b0190556109dd565b015160001960f88460031b161c19169055888080610fbb565b92936020600181928786015181550195019301610fa5565b909150836000526020600020601f840160051c81019160208510611042575b90601f859493920160051c01905b81811061103357506109b1565b60008155849350600101611026565b9091508190611018565b01519050888061096d565b60008581528281209350601f198516905b8181106110a4575090846001959493921061108b575b505050811b019055610982565b015160001960f88460031b161c1916905588808061107e565b92936020600181928786015181550195019301611068565b909150836000526020600020601f840160051c81019160208510611105575b90601f859493920160051c01905b8181106110f65750610956565b600081558493506001016110e9565b90915081906110db565b015190508880610912565b60008581528281209350601f198516905b818110611167575090846001959493921061114e575b505050811b019055610927565b015160001960f88460031b161c19169055888080611141565b9293602060018192878601518155019501930161112b565b909150836000526020600020601f840160051c810191602085106111c8575b90601f859493920160051c01905b8181106111b957506108fb565b600081558493506001016111ac565b909150819061119e565b0151905088806108b7565b60008581528281209350601f198516905b81811061122a5750908460019594939210611211575b505050811b0190556108cc565b015160001960f88460031b161c19169055888080611204565b929360206001819287860151815501950193016111ee565b909150836000526020600020601f840160051c8101916020851061128b575b90601f859493920160051c01905b81811061127c57506108a0565b6000815584935060010161126f565b9091508190611261565b01519050878061084f565b92506002850160005280600020906000935b601f19841685106112f6576001945083601f198116106112dd575b505050811b016002830155610867565b015160001960f88460031b161c191690558780806112cd565b818101518355602094850194600190930192909101906112b2565b909150600285016000526020600020601f840160051c81016020851061135d575b90849392915b601f830160051c8201811061134e575050610838565b60008155859450600101611338565b5080611332565b0151905087806107f2565b92506001850160005280600020906000935b601f19841685106113c5576001945083601f198116106113ac575b505050811b01600183015561080a565b015160001960f88460031b161c1916905587808061139c565b81810151835560209485019460019093019290910190611381565b909150600185016000526020600020601f840160051c81016020851061142c575b90849392915b601f830160051c8201811061141d5750506107db565b60008155859450600101611407565b5080611401565b61020081019081106001600160401b03821117610c6957604052565b90601f801991011681019081106001600160401b03821117610c6957604052565b81601f8201121561020a578035906001600160401b038211610c6957604051926114a4601f8401601f19166020018561144f565b8284526020838301011161020a57816000926020809301838601378301015290565b919082519283825260005b8481106114f2575050826000602080949584010152601f8019910116010190565b806020809284010151828286010152016114d1565b60025481101561152257600260005260206000200190600090565b634e487b7160e01b600052603260045260246000fd5b90600182811c92168015611568575b602083101461155257565b634e487b7160e01b600052602260045260246000fd5b91607f1691611547565b906040519182600082549261158684611538565b80845293600181169081156115f457506001146115ad575b506115ab9250038361144f565b565b90506000929192526020600020906000915b8183106115d85750509060206115ab928201013861159e565b60209193508060019154838589010152019101909184926115bf565b9050602092506115ab94915060ff191682840152151560051b8201013861159e56fea2646970667358221220fb2818185357caf11119fde03422df9d768dc54e3ba596515a833a689f10ca8b64736f6c634300081c0033",
          "opcodes": "PUSH1 0x80 DUP1 PUSH1 0x40 MSTORE CALLVALUE PUSH1 0x1A JUMPI PUSH1 0x1 PUSH1 0x0 SSTORE PUSH2 0x164C SWAP1 DUP2 PUSH2 0x20 DUP3 CODECOPY RETURN JUMPDEST PUSH1 0x0 DUP1 REVERT INVALID PUSH1 0x80 PUSH1 0x40 MSTORE PUSH1 0x4 CALLDATASIZE LT ISZERO PUSH2 0x12 JUMPI PUSH1 0x0 DUP1 REVERT JUMPDEST PUSH1 0x0 CALLDATALOAD PUSH1 0xE0 SHR DUP1 PUSH4 0x3B8CD9DE EQ PUSH2 0x5B6 JUMPI DUP1 PUSH4 0x45D3CC81 EQ PUSH2 0x265 JUMPI DUP1 PUSH4 0x4EFEAD56 EQ PUSH2 0x22D JUMPI DUP1 PUSH4 0x66634A16 EQ PUSH2 0x20F JUMPI PUSH4 0x998DD3CA EQ PUSH2 0x53 JUMPI PUSH1 0x0 DUP1 REVERT JUMPDEST CALLVALUE PUSH2 0x20A JUMPI PUSH1 0x20 CALLDATASIZE PUSH1 0x3 NOT ADD SLT PUSH2 0x20A JUMPI PUSH1 0x4 CALLDATALOAD PUSH1 0x0 MSTORE PUSH1 0x1 PUSH1 0x20 MSTORE PUSH1 0x40 PUSH1 0x0 KECCAK256 DUP1 SLOAD SWAP1 PUSH1 0x1 DUP2 ADD PUSH2 0x84 SWAP1 PUSH2 0x1572 JUMP JUMPDEST SWAP1 PUSH2 0x91 PUSH1 0x2 DUP3 ADD PUSH2 0x1572 JUMP JUMPDEST PUSH1 0x3 DUP3 ADD SLOAD SWAP1 SWAP4 PUSH2 0xA4 PUSH1 0x4 DUP5 ADD PUSH2 0x1572 JUMP JUMPDEST PUSH2 0xB0 PUSH1 0x5 DUP6 ADD PUSH2 0x1572 JUMP JUMPDEST PUSH2 0xBC PUSH1 0x6 DUP7 ADD PUSH2 0x1572 JUMP JUMPDEST PUSH2 0xC8 PUSH1 0x7 DUP8 ADD PUSH2 0x1572 JUMP JUMPDEST PUSH2 0xD4 PUSH1 0x8 DUP9 ADD PUSH2 0x1572 JUMP JUMPDEST SWAP1 PUSH1 0x9 DUP9 ADD SLOAD SWAP3 PUSH1 0xA DUP10 ADD PUSH2 0xE8 SWAP1 PUSH2 0x1572 JUMP JUMPDEST SWAP5 PUSH2 0xF5 PUSH1 0xB DUP12 ADD PUSH2 0x1572 JUMP JUMPDEST SWAP7 PUSH2 0x102 PUSH1 0xC DUP13 ADD PUSH2 0x1572 JUMP JUMPDEST SWAP9 PUSH1 0x1 PUSH1 0xA0 SHL PUSH1 0x1 SWAP1 SUB PUSH1 0xD DUP14 ADD SLOAD AND SWAP12 PUSH1 0xE ADD SLOAD SWAP11 PUSH1 0x40 MLOAD SWAP15 DUP16 SWAP15 DUP16 SWAP4 DUP5 MSTORE PUSH1 0x20 DUP5 ADD PUSH2 0x200 SWAP1 MSTORE PUSH2 0x200 DUP5 ADD PUSH2 0x139 SWAP2 PUSH2 0x14C6 JUMP JUMPDEST DUP4 DUP2 SUB PUSH1 0x40 DUP6 ADD MSTORE PUSH2 0x14A SWAP2 PUSH2 0x14C6 JUMP JUMPDEST SWAP2 PUSH1 0x60 ADD MSTORE DUP13 DUP1 DUP3 SUB SWAP1 PUSH1 0x80 ADD MSTORE PUSH2 0x161 SWAP2 PUSH2 0x14C6 JUMP JUMPDEST DUP12 DUP2 SUB PUSH1 0xA0 DUP14 ADD MSTORE PUSH2 0x172 SWAP2 PUSH2 0x14C6 JUMP JUMPDEST DUP11 DUP2 SUB PUSH1 0xC0 DUP13 ADD MSTORE PUSH2 0x183 SWAP2 PUSH2 0x14C6 JUMP JUMPDEST DUP10 DUP2 SUB PUSH1 0xE0 DUP12 ADD MSTORE PUSH2 0x194 SWAP2 PUSH2 0x14C6 JUMP JUMPDEST DUP9 DUP2 SUB PUSH2 0x100 DUP11 ADD MSTORE PUSH2 0x1A6 SWAP2 PUSH2 0x14C6 JUMP JUMPDEST SWAP1 PUSH4 0xFFFFFFFF DUP2 AND PUSH2 0x120 DUP10 ADD MSTORE PUSH1 0x20 SHR PUSH4 0xFFFFFFFF AND PUSH2 0x140 DUP9 ADD MSTORE DUP7 DUP2 SUB PUSH2 0x160 DUP9 ADD MSTORE PUSH2 0x1D5 SWAP2 PUSH2 0x14C6 JUMP JUMPDEST DUP6 DUP2 SUB PUSH2 0x180 DUP8 ADD MSTORE PUSH2 0x1E7 SWAP2 PUSH2 0x14C6 JUMP JUMPDEST DUP5 DUP2 SUB PUSH2 0x1A0 DUP7 ADD MSTORE PUSH2 0x1F9 SWAP2 PUSH2 0x14C6 JUMP JUMPDEST SWAP2 PUSH2 0x1C0 DUP5 ADD MSTORE PUSH2 0x1E0 DUP4 ADD MSTORE SUB SWAP1 RETURN JUMPDEST PUSH1 0x0 DUP1 REVERT JUMPDEST CALLVALUE PUSH2 0x20A JUMPI PUSH1 0x0 CALLDATASIZE PUSH1 0x3 NOT ADD SLT PUSH2 0x20A JUMPI PUSH1 0x20 PUSH1 0x2 SLOAD PUSH1 0x40 MLOAD SWAP1 DUP2 MSTORE RETURN JUMPDEST CALLVALUE PUSH2 0x20A JUMPI PUSH1 0x20 CALLDATASIZE PUSH1 0x3 NOT ADD SLT PUSH2 0x20A JUMPI PUSH1 0x4 CALLDATALOAD PUSH1 0x2 SLOAD DUP2 LT ISZERO PUSH2 0x20A JUMPI PUSH2 0x256 PUSH1 0x20 SWAP2 PUSH2 0x1507 JUMP JUMPDEST SWAP1 SLOAD SWAP1 PUSH1 0x3 SHL SHR PUSH1 0x40 MLOAD SWAP1 DUP2 MSTORE RETURN JUMPDEST CALLVALUE PUSH2 0x20A JUMPI PUSH1 0x20 CALLDATASIZE PUSH1 0x3 NOT ADD SLT PUSH2 0x20A JUMPI PUSH1 0x4 CALLDATALOAD PUSH1 0x0 PUSH2 0x1E0 PUSH1 0x40 MLOAD PUSH2 0x28A DUP2 PUSH2 0x1433 JUMP JUMPDEST DUP3 DUP2 MSTORE PUSH1 0x60 PUSH1 0x20 DUP3 ADD MSTORE PUSH1 0x60 PUSH1 0x40 DUP3 ADD MSTORE DUP3 PUSH1 0x60 DUP3 ADD MSTORE PUSH1 0x60 PUSH1 0x80 DUP3 ADD MSTORE PUSH1 0x60 PUSH1 0xA0 DUP3 ADD MSTORE PUSH1 0x60 PUSH1 0xC0 DUP3 ADD MSTORE PUSH1 0x60 PUSH1 0xE0 DUP3 ADD MSTORE PUSH1 0x60 PUSH2 0x100 DUP3 ADD MSTORE DUP3 PUSH2 0x120 DUP3 ADD MSTORE DUP3 PUSH2 0x140 DUP3 ADD MSTORE PUSH1 0x60 PUSH2 0x160 DUP3 ADD MSTORE PUSH1 0x60 PUSH2 0x180 DUP3 ADD MSTORE PUSH1 0x60 PUSH2 0x1A0 DUP3 ADD MSTORE DUP3 PUSH2 0x1C0 DUP3 ADD MSTORE ADD MSTORE DUP1 PUSH1 0x0 MSTORE PUSH1 0x1 PUSH1 0x20 MSTORE PUSH1 0x40 PUSH1 0x0 KECCAK256 SLOAD ISZERO PUSH2 0x57E JUMPI PUSH1 0x0 MSTORE PUSH1 0x1 PUSH1 0x20 MSTORE PUSH2 0x220 PUSH1 0x20 PUSH1 0x40 PUSH1 0x0 KECCAK256 PUSH1 0xE PUSH1 0x40 MLOAD SWAP2 PUSH2 0x329 DUP4 PUSH2 0x1433 JUMP JUMPDEST DUP1 SLOAD DUP4 MSTORE PUSH2 0x339 PUSH1 0x1 DUP3 ADD PUSH2 0x1572 JUMP JUMPDEST DUP5 DUP5 ADD MSTORE PUSH2 0x349 PUSH1 0x2 DUP3 ADD PUSH2 0x1572 JUMP JUMPDEST PUSH1 0x40 DUP5 ADD MSTORE PUSH1 0x3 DUP2 ADD SLOAD PUSH1 0x60 DUP5 ADD MSTORE PUSH2 0x364 PUSH1 0x4 DUP3 ADD PUSH2 0x1572 JUMP JUMPDEST PUSH1 0x80 DUP5 ADD MSTORE PUSH2 0x375 PUSH1 0x5 DUP3 ADD PUSH2 0x1572 JUMP JUMPDEST PUSH1 0xA0 DUP5 ADD MSTORE PUSH2 0x386 PUSH1 0x6 DUP3 ADD PUSH2 0x1572 JUMP JUMPDEST PUSH1 0xC0 DUP5 ADD MSTORE PUSH2 0x397 PUSH1 0x7 DUP3 ADD PUSH2 0x1572 JUMP JUMPDEST PUSH1 0xE0 DUP5 ADD MSTORE PUSH2 0x3A8 PUSH1 0x8 DUP3 ADD PUSH2 0x1572 JUMP JUMPDEST PUSH2 0x100 DUP5 ADD MSTORE PUSH4 0xFFFFFFFF PUSH1 0x9 DUP3 ADD SLOAD DUP2 DUP2 AND PUSH2 0x120 DUP7 ADD MSTORE DUP6 SHR AND PUSH2 0x140 DUP5 ADD MSTORE PUSH2 0x3D6 PUSH1 0xA DUP3 ADD PUSH2 0x1572 JUMP JUMPDEST PUSH2 0x160 DUP5 ADD MSTORE PUSH2 0x3E8 PUSH1 0xB DUP3 ADD PUSH2 0x1572 JUMP JUMPDEST PUSH2 0x180 DUP5 ADD MSTORE PUSH2 0x3FA PUSH1 0xC DUP3 ADD PUSH2 0x1572 JUMP JUMPDEST PUSH2 0x1A0 DUP5 ADD MSTORE PUSH1 0x1 DUP1 PUSH1 0xA0 SHL SUB PUSH1 0xD DUP3 ADD SLOAD AND PUSH2 0x1C0 DUP5 ADD MSTORE ADD SLOAD PUSH2 0x1E0 DUP3 ADD MSTORE PUSH2 0x1E0 PUSH2 0x55E PUSH2 0x546 PUSH2 0x52E PUSH2 0x4F2 PUSH2 0x4DA PUSH2 0x4C3 PUSH2 0x4AD PUSH2 0x497 PUSH2 0x476 PUSH2 0x460 DUP12 PUSH1 0x40 MLOAD SWAP15 DUP16 SWAP15 DUP16 SWAP3 DUP2 DUP5 MSTORE DUP1 MLOAD DUP3 DUP6 ADD MSTORE ADD MLOAD SWAP2 PUSH2 0x200 PUSH1 0x40 DUP3 ADD MSTORE ADD SWAP1 PUSH2 0x14C6 JUMP JUMPDEST PUSH1 0x40 DUP13 ADD MLOAD DUP14 DUP3 SUB PUSH1 0x1F NOT ADD PUSH1 0x60 DUP16 ADD MSTORE PUSH2 0x14C6 JUMP JUMPDEST PUSH1 0x60 DUP12 ADD MLOAD PUSH1 0x80 DUP14 ADD MSTORE PUSH1 0x80 DUP12 ADD MLOAD DUP13 PUSH1 0xA0 PUSH1 0x1F NOT DUP3 DUP6 SUB ADD SWAP2 ADD MSTORE PUSH2 0x14C6 JUMP JUMPDEST PUSH1 0xA0 DUP11 ADD MLOAD DUP12 DUP3 SUB PUSH1 0x1F NOT ADD PUSH1 0xC0 DUP14 ADD MSTORE PUSH2 0x14C6 JUMP JUMPDEST PUSH1 0xC0 DUP10 ADD MLOAD DUP11 DUP3 SUB PUSH1 0x1F NOT ADD PUSH1 0xE0 DUP13 ADD MSTORE PUSH2 0x14C6 JUMP JUMPDEST PUSH1 0xE0 DUP9 ADD MLOAD DUP10 DUP3 SUB PUSH1 0x1F NOT ADD PUSH2 0x100 DUP12 ADD MSTORE PUSH2 0x14C6 JUMP JUMPDEST PUSH2 0x100 DUP8 ADD MLOAD DUP9 DUP3 SUB PUSH1 0x1F NOT ADD PUSH2 0x120 DUP11 ADD MSTORE PUSH2 0x14C6 JUMP JUMPDEST PUSH4 0xFFFFFFFF PUSH2 0x120 DUP8 ADD MLOAD AND PUSH2 0x140 DUP9 ADD MSTORE PUSH4 0xFFFFFFFF PUSH2 0x140 DUP8 ADD MLOAD AND PUSH2 0x160 DUP9 ADD MSTORE PUSH2 0x160 DUP7 ADD MLOAD PUSH1 0x1F NOT DUP9 DUP4 SUB ADD PUSH2 0x180 DUP10 ADD MSTORE PUSH2 0x14C6 JUMP JUMPDEST PUSH2 0x180 DUP6 ADD MLOAD DUP7 DUP3 SUB PUSH1 0x1F NOT ADD PUSH2 0x1A0 DUP9 ADD MSTORE PUSH2 0x14C6 JUMP JUMPDEST PUSH2 0x1A0 DUP5 ADD MLOAD DUP6 DUP3 SUB PUSH1 0x1F NOT ADD PUSH2 0x1C0 DUP8 ADD MSTORE PUSH2 0x14C6 JUMP JUMPDEST PUSH2 0x1C0 DUP4 ADD MLOAD PUSH1 0x1 PUSH1 0x1 PUSH1 0xA0 SHL SUB AND DUP5 DUP4 ADD MSTORE SWAP2 ADD MLOAD PUSH2 0x200 DUP4 ADD MSTORE SUB SWAP1 RETURN JUMPDEST PUSH1 0x40 MLOAD PUSH3 0x461BCD PUSH1 0xE5 SHL DUP2 MSTORE PUSH1 0x20 PUSH1 0x4 DUP3 ADD MSTORE PUSH1 0x10 PUSH1 0x24 DUP3 ADD MSTORE PUSH16 0x105B9A5B585B081B9BDD08199BDD5B99 PUSH1 0x82 SHL PUSH1 0x44 DUP3 ADD MSTORE PUSH1 0x64 SWAP1 REVERT JUMPDEST CALLVALUE PUSH2 0x20A JUMPI PUSH2 0x1A0 CALLDATASIZE PUSH1 0x3 NOT ADD SLT PUSH2 0x20A JUMPI PUSH1 0x4 CALLDATALOAD PUSH1 0x1 PUSH1 0x1 PUSH1 0x40 SHL SUB DUP2 GT PUSH2 0x20A JUMPI PUSH2 0x5E7 SWAP1 CALLDATASIZE SWAP1 PUSH1 0x4 ADD PUSH2 0x1470 JUMP JUMPDEST PUSH1 0x24 CALLDATALOAD PUSH1 0x1 PUSH1 0x1 PUSH1 0x40 SHL SUB DUP2 GT PUSH2 0x20A JUMPI PUSH2 0x606 SWAP1 CALLDATASIZE SWAP1 PUSH1 0x4 ADD PUSH2 0x1470 JUMP JUMPDEST SWAP1 PUSH1 0x64 CALLDATALOAD PUSH1 0x1 PUSH1 0x1 PUSH1 0x40 SHL SUB DUP2 GT PUSH2 0x20A JUMPI PUSH2 0x626 SWAP1 CALLDATASIZE SWAP1 PUSH1 0x4 ADD PUSH2 0x1470 JUMP JUMPDEST SWAP1 PUSH1 0x84 CALLDATALOAD PUSH1 0x1 PUSH1 0x1 PUSH1 0x40 SHL SUB DUP2 GT PUSH2 0x20A JUMPI PUSH2 0x646 SWAP1 CALLDATASIZE SWAP1 PUSH1 0x4 ADD PUSH2 0x1470 JUMP JUMPDEST SWAP2 PUSH1 0xA4 CALLDATALOAD PUSH1 0x1 PUSH1 0x1 PUSH1 0x40 SHL SUB DUP2 GT PUSH2 0x20A JUMPI PUSH2 0x666 SWAP1 CALLDATASIZE SWAP1 PUSH1 0x4 ADD PUSH2 0x1470 JUMP JUMPDEST SWAP1 PUSH1 0xC4 CALLDATALOAD PUSH1 0x1 PUSH1 0x1 PUSH1 0x40 SHL SUB DUP2 GT PUSH2 0x20A JUMPI PUSH2 0x686 SWAP1 CALLDATASIZE SWAP1 PUSH1 0x4 ADD PUSH2 0x1470 JUMP JUMPDEST SWAP2 PUSH1 0xE4 CALLDATALOAD PUSH1 0x1 PUSH1 0x1 PUSH1 0x40 SHL SUB DUP2 GT PUSH2 0x20A JUMPI PUSH2 0x6A6 SWAP1 CALLDATASIZE SWAP1 PUSH1 0x4 ADD PUSH2 0x1470 JUMP JUMPDEST PUSH2 0x104 CALLDATALOAD PUSH4 0xFFFFFFFF DUP2 AND DUP1 SWAP2 SUB PUSH2 0x20A JUMPI PUSH2 0x124 CALLDATALOAD PUSH4 0xFFFFFFFF DUP2 AND DUP1 SWAP2 SUB PUSH2 0x20A JUMPI PUSH2 0x144 CALLDATALOAD PUSH1 0x1 PUSH1 0x1 PUSH1 0x40 SHL SUB DUP2 GT PUSH2 0x20A JUMPI PUSH2 0x6EA SWAP1 CALLDATASIZE SWAP1 PUSH1 0x4 ADD PUSH2 0x1470 JUMP JUMPDEST SWAP2 PUSH2 0x164 CALLDATALOAD PUSH1 0x1 PUSH1 0x1 PUSH1 0x40 SHL SUB DUP2 GT PUSH2 0x20A JUMPI PUSH2 0x70B SWAP1 CALLDATASIZE SWAP1 PUSH1 0x4 ADD PUSH2 0x1470 JUMP JUMPDEST SWAP4 PUSH2 0x184 CALLDATALOAD SWAP8 PUSH1 0x1 PUSH1 0x1 PUSH1 0x40 SHL SUB DUP10 GT PUSH2 0x20A JUMPI PUSH2 0x72E DUP13 SWAP10 CALLDATASIZE SWAP1 PUSH1 0x4 ADD PUSH2 0x1470 JUMP JUMPDEST SWAP7 PUSH1 0x0 SLOAD SWAP12 PUSH1 0x40 MLOAD SWAP10 PUSH2 0x740 DUP12 PUSH2 0x1433 JUMP JUMPDEST DUP14 DUP12 MSTORE PUSH1 0x20 DUP12 ADD SWAP12 DUP14 DUP14 MSTORE PUSH1 0x40 DUP13 ADD MSTORE PUSH1 0x44 CALLDATALOAD PUSH1 0x60 DUP13 ADD MSTORE PUSH1 0x80 DUP12 ADD MSTORE PUSH1 0xA0 DUP11 ADD MSTORE PUSH1 0xC0 DUP10 ADD MSTORE PUSH1 0xE0 DUP9 ADD MSTORE PUSH2 0x100 DUP8 ADD MSTORE PUSH2 0x120 DUP7 ADD MSTORE PUSH2 0x140 DUP6 ADD MSTORE PUSH2 0x160 DUP5 ADD MSTORE PUSH2 0x180 DUP4 ADD MSTORE PUSH2 0x1A0 DUP3 ADD MSTORE CALLER PUSH2 0x1C0 DUP3 ADD MSTORE TIMESTAMP PUSH2 0x1E0 DUP3 ADD MSTORE DUP4 PUSH1 0x0 MSTORE PUSH1 0x1 PUSH1 0x20 MSTORE PUSH1 0x40 PUSH1 0x0 KECCAK256 SWAP2 DUP2 MLOAD DUP4 SSTORE MLOAD DUP1 MLOAD SWAP1 PUSH1 0x1 PUSH1 0x1 PUSH1 0x40 SHL SUB DUP3 GT PUSH2 0xC69 JUMPI DUP2 SWAP1 PUSH2 0x7D2 PUSH1 0x1 DUP7 ADD SLOAD PUSH2 0x1538 JUMP JUMPDEST PUSH1 0x1F DUP2 GT PUSH2 0x13E0 JUMPI JUMPDEST POP PUSH1 0x20 SWAP1 PUSH1 0x1F DUP4 GT PUSH1 0x1 EQ PUSH2 0x136F JUMPI PUSH1 0x0 SWAP3 PUSH2 0x1364 JUMPI JUMPDEST POP POP DUP2 PUSH1 0x1 SHL SWAP2 PUSH1 0x0 NOT SWAP1 PUSH1 0x3 SHL SHR NOT AND OR PUSH1 0x1 DUP4 ADD SSTORE JUMPDEST PUSH1 0x40 DUP2 ADD MLOAD DUP1 MLOAD SWAP1 PUSH1 0x1 PUSH1 0x1 PUSH1 0x40 SHL SUB DUP3 GT PUSH2 0xC69 JUMPI DUP2 SWAP1 PUSH2 0x82F PUSH1 0x2 DUP7 ADD SLOAD PUSH2 0x1538 JUMP JUMPDEST PUSH1 0x1F DUP2 GT PUSH2 0x1311 JUMPI JUMPDEST POP PUSH1 0x20 SWAP1 PUSH1 0x1F DUP4 GT PUSH1 0x1 EQ PUSH2 0x12A0 JUMPI PUSH1 0x0 SWAP3 PUSH2 0x1295 JUMPI JUMPDEST POP POP DUP2 PUSH1 0x1 SHL SWAP2 PUSH1 0x0 NOT SWAP1 PUSH1 0x3 SHL SHR NOT AND OR PUSH1 0x2 DUP4 ADD SSTORE JUMPDEST PUSH1 0x60 DUP2 ADD MLOAD PUSH1 0x3 DUP4 ADD SSTORE PUSH1 0x4 DUP3 ADD PUSH1 0x80 DUP3 ADD MLOAD DUP1 MLOAD SWAP1 PUSH1 0x1 PUSH1 0x1 PUSH1 0x40 SHL SUB DUP3 GT PUSH2 0xC69 JUMPI DUP2 SWAP1 PUSH2 0x897 DUP5 SLOAD PUSH2 0x1538 JUMP JUMPDEST PUSH1 0x1F DUP2 GT PUSH2 0x1242 JUMPI JUMPDEST POP PUSH1 0x20 SWAP1 PUSH1 0x1F DUP4 GT PUSH1 0x1 EQ PUSH2 0x11DD JUMPI PUSH1 0x0 SWAP3 PUSH2 0x11D2 JUMPI JUMPDEST POP POP DUP2 PUSH1 0x1 SHL SWAP2 PUSH1 0x0 NOT SWAP1 PUSH1 0x3 SHL SHR NOT AND OR SWAP1 SSTORE JUMPDEST PUSH1 0x5 DUP3 ADD PUSH1 0xA0 DUP3 ADD MLOAD DUP1 MLOAD SWAP1 PUSH1 0x1 PUSH1 0x1 PUSH1 0x40 SHL SUB DUP3 GT PUSH2 0xC69 JUMPI DUP2 SWAP1 PUSH2 0x8F2 DUP5 SLOAD PUSH2 0x1538 JUMP JUMPDEST PUSH1 0x1F DUP2 GT PUSH2 0x117F JUMPI JUMPDEST POP PUSH1 0x20 SWAP1 PUSH1 0x1F DUP4 GT PUSH1 0x1 EQ PUSH2 0x111A JUMPI PUSH1 0x0 SWAP3 PUSH2 0x110F JUMPI JUMPDEST POP POP DUP2 PUSH1 0x1 SHL SWAP2 PUSH1 0x0 NOT SWAP1 PUSH1 0x3 SHL SHR NOT AND OR SWAP1 SSTORE JUMPDEST PUSH1 0x6 DUP3 ADD PUSH1 0xC0 DUP3 ADD MLOAD DUP1 MLOAD SWAP1 PUSH1 0x1 PUSH1 0x1 PUSH1 0x40 SHL SUB DUP3 GT PUSH2 0xC69 JUMPI DUP2 SWAP1 PUSH2 0x94D DUP5 SLOAD PUSH2 0x1538 JUMP JUMPDEST PUSH1 0x1F DUP2 GT PUSH2 0x10BC JUMPI JUMPDEST POP PUSH1 0x20 SWAP1 PUSH1 0x1F DUP4 GT PUSH1 0x1 EQ PUSH2 0x1057 JUMPI PUSH1 0x0 SWAP3 PUSH2 0x104C JUMPI JUMPDEST POP POP DUP2 PUSH1 0x1 SHL SWAP2 PUSH1 0x0 NOT SWAP1 PUSH1 0x3 SHL SHR NOT AND OR SWAP1 SSTORE JUMPDEST PUSH1 0x7 DUP3 ADD PUSH1 0xE0 DUP3 ADD MLOAD DUP1 MLOAD SWAP1 PUSH1 0x1 PUSH1 0x1 PUSH1 0x40 SHL SUB DUP3 GT PUSH2 0xC69 JUMPI DUP2 SWAP1 PUSH2 0x9A8 DUP5 SLOAD PUSH2 0x1538 JUMP JUMPDEST PUSH1 0x1F DUP2 GT PUSH2 0xFF9 JUMPI JUMPDEST POP PUSH1 0x20 SWAP1 PUSH1 0x1F DUP4 GT PUSH1 0x1 EQ PUSH2 0xF94 JUMPI PUSH1 0x0 SWAP3 PUSH2 0xF89 JUMPI JUMPDEST POP POP DUP2 PUSH1 0x1 SHL SWAP2 PUSH1 0x0 NOT SWAP1 PUSH1 0x3 SHL SHR NOT AND OR SWAP1 SSTORE JUMPDEST PUSH1 0x8 DUP3 ADD PUSH2 0x100 DUP3 ADD MLOAD DUP1 MLOAD SWAP1 PUSH1 0x1 PUSH1 0x1 PUSH1 0x40 SHL SUB DUP3 GT PUSH2 0xC69 JUMPI DUP2 SWAP1 PUSH2 0xA04 DUP5 SLOAD PUSH2 0x1538 JUMP JUMPDEST PUSH1 0x1F DUP2 GT PUSH2 0xF36 JUMPI JUMPDEST POP PUSH1 0x20 SWAP1 PUSH1 0x1F DUP4 GT PUSH1 0x1 EQ PUSH2 0xED1 JUMPI PUSH1 0x0 SWAP3 PUSH2 0xEC6 JUMPI JUMPDEST POP POP DUP2 PUSH1 0x1 SHL SWAP2 PUSH1 0x0 NOT SWAP1 PUSH1 0x3 SHL SHR NOT AND OR SWAP1 SSTORE JUMPDEST PUSH1 0x9 DUP3 ADD PUSH4 0xFFFFFFFF PUSH2 0x120 DUP4 ADD MLOAD AND DUP2 SLOAD SWAP1 PUSH8 0xFFFFFFFF00000000 PUSH2 0x140 DUP6 ADD MLOAD PUSH1 0x20 SHL AND SWAP2 PUSH1 0x1 PUSH1 0x1 PUSH1 0x40 SHL SUB NOT AND OR OR SWAP1 SSTORE PUSH1 0xA DUP3 ADD PUSH2 0x160 DUP3 ADD MLOAD DUP1 MLOAD SWAP1 PUSH1 0x1 PUSH1 0x1 PUSH1 0x40 SHL SUB DUP3 GT PUSH2 0xC69 JUMPI DUP2 SWAP1 PUSH2 0xA95 DUP5 SLOAD PUSH2 0x1538 JUMP JUMPDEST PUSH1 0x1F DUP2 GT PUSH2 0xE73 JUMPI JUMPDEST POP PUSH1 0x20 SWAP1 PUSH1 0x1F DUP4 GT PUSH1 0x1 EQ PUSH2 0xE0E JUMPI PUSH1 0x0 SWAP3 PUSH2 0xE03 JUMPI JUMPDEST POP POP DUP2 PUSH1 0x1 SHL SWAP2 PUSH1 0x0 NOT SWAP1 PUSH1 0x3 SHL SHR NOT AND OR SWAP1 SSTORE JUMPDEST PUSH1 0xB DUP3 ADD PUSH2 0x180 DUP3 ADD MLOAD DUP1 MLOAD SWAP1 PUSH1 0x1 PUSH1 0x1 PUSH1 0x40 SHL SUB DUP3 GT PUSH2 0xC69 JUMPI DUP2 SWAP1 PUSH2 0xAF1 DUP5 SLOAD PUSH2 0x1538 JUMP JUMPDEST PUSH1 0x1F DUP2 GT PUSH2 0xDB0 JUMPI JUMPDEST POP PUSH1 0x20 SWAP1 PUSH1 0x1F DUP4 GT PUSH1 0x1 EQ PUSH2 0xD4B JUMPI PUSH1 0x0 SWAP3 PUSH2 0xD40 JUMPI JUMPDEST POP POP DUP2 PUSH1 0x1 SHL SWAP2 PUSH1 0x0 NOT SWAP1 PUSH1 0x3 SHL SHR NOT AND OR SWAP1 SSTORE JUMPDEST PUSH1 0xC DUP3 ADD PUSH2 0x1A0 DUP3 ADD MLOAD DUP1 MLOAD SWAP1 PUSH1 0x1 PUSH1 0x1 PUSH1 0x40 SHL SUB DUP3 GT PUSH2 0xC69 JUMPI PUSH2 0xB4B DUP4 SLOAD PUSH2 0x1538 JUMP JUMPDEST PUSH1 0x1F DUP2 GT PUSH2 0xCF8 JUMPI JUMPDEST POP PUSH1 0x20 SWAP1 PUSH1 0x1F DUP4 GT PUSH1 0x1 EQ PUSH2 0xC8A JUMPI SWAP2 DUP1 PUSH2 0x1E0 SWAP5 SWAP3 PUSH1 0xE SWAP7 SWAP5 PUSH1 0x0 SWAP3 PUSH2 0xC7F JUMPI JUMPDEST POP POP DUP2 PUSH1 0x1 SHL SWAP2 PUSH1 0x0 NOT SWAP1 PUSH1 0x3 SHL SHR NOT AND OR SWAP1 SSTORE JUMPDEST PUSH1 0xD DUP5 ADD PUSH1 0x1 DUP1 PUSH1 0xA0 SHL SUB PUSH2 0x1C0 DUP4 ADD MLOAD AND PUSH12 0xFFFFFFFFFFFFFFFFFFFFFFFF PUSH1 0xA0 SHL DUP3 SLOAD AND OR SWAP1 SSTORE ADD MLOAD SWAP2 ADD SSTORE PUSH1 0x2 SLOAD PUSH9 0x10000000000000000 DUP2 LT ISZERO PUSH2 0xC69 JUMPI PUSH32 0xBEC88F0688FFBE1EB884C48E22DA13A44B912444F86AC435675A95F23A07DEEF SWAP2 PUSH2 0xC01 DUP3 PUSH1 0x1 PUSH2 0xC2D SWAP5 ADD PUSH1 0x2 SSTORE PUSH2 0x1507 JUMP JUMPDEST DUP2 SLOAD SWAP1 PUSH1 0x3 SHL SWAP1 DUP7 DUP3 SHL SWAP2 PUSH1 0x0 NOT SWAP1 SHL NOT AND OR SWAP1 SSTORE PUSH2 0xC3C PUSH1 0x40 MLOAD SWAP3 DUP4 SWAP3 PUSH1 0x40 DUP5 MSTORE PUSH1 0x40 DUP5 ADD SWAP1 PUSH2 0x14C6 JUMP JUMPDEST DUP3 DUP2 SUB PUSH1 0x20 DUP5 ADD MSTORE CALLER SWAP7 PUSH2 0x14C6 JUMP JUMPDEST SUB SWAP1 LOG3 PUSH1 0x0 SLOAD PUSH1 0x0 NOT DUP2 EQ PUSH2 0xC53 JUMPI PUSH1 0x1 ADD PUSH1 0x0 SSTORE STOP JUMPDEST PUSH4 0x4E487B71 PUSH1 0xE0 SHL PUSH1 0x0 MSTORE PUSH1 0x11 PUSH1 0x4 MSTORE PUSH1 0x24 PUSH1 0x0 REVERT JUMPDEST PUSH4 0x4E487B71 PUSH1 0xE0 SHL PUSH1 0x0 MSTORE PUSH1 0x41 PUSH1 0x4 MSTORE PUSH1 0x24 PUSH1 0x0 REVERT JUMPDEST ADD MLOAD SWAP1 POP DUP11 DUP1 PUSH2 0xB76 JUMP JUMPDEST SWAP1 PUSH1 0x1F NOT DUP4 AND SWAP2 DUP5 PUSH1 0x0 MSTORE DUP2 PUSH1 0x0 KECCAK256 SWAP3 PUSH1 0x0 JUMPDEST DUP2 DUP2 LT PUSH2 0xCE0 JUMPI POP SWAP3 PUSH1 0x1 SWAP3 DUP6 SWAP3 PUSH1 0xE SWAP9 SWAP7 PUSH2 0x1E0 SWAP9 SWAP7 LT PUSH2 0xCC7 JUMPI JUMPDEST POP POP POP DUP2 SHL ADD SWAP1 SSTORE PUSH2 0xB8B JUMP JUMPDEST ADD MLOAD PUSH1 0x0 NOT PUSH1 0xF8 DUP5 PUSH1 0x3 SHL AND SHR NOT AND SWAP1 SSTORE DUP11 DUP1 DUP1 PUSH2 0xCBA JUMP JUMPDEST SWAP3 SWAP4 PUSH1 0x20 PUSH1 0x1 DUP2 SWAP3 DUP8 DUP7 ADD MLOAD DUP2 SSTORE ADD SWAP6 ADD SWAP4 ADD PUSH2 0xC9D JUMP JUMPDEST DUP4 PUSH1 0x0 MSTORE PUSH1 0x20 PUSH1 0x0 KECCAK256 PUSH1 0x1F DUP5 ADD PUSH1 0x5 SHR DUP2 ADD SWAP2 PUSH1 0x20 DUP6 LT PUSH2 0xD36 JUMPI JUMPDEST PUSH1 0x1F ADD PUSH1 0x5 SHR ADD SWAP1 JUMPDEST DUP2 DUP2 LT PUSH2 0xD2A JUMPI POP PUSH2 0xB54 JUMP JUMPDEST PUSH1 0x0 DUP2 SSTORE PUSH1 0x1 ADD PUSH2 0xD1D JUMP JUMPDEST SWAP1 SWAP2 POP DUP2 SWAP1 PUSH2 0xD14 JUMP JUMPDEST ADD MLOAD SWAP1 POP DUP9 DUP1 PUSH2 0xB11 JUMP JUMPDEST PUSH1 0x0 DUP6 DUP2 MSTORE DUP3 DUP2 KECCAK256 SWAP4 POP PUSH1 0x1F NOT DUP6 AND SWAP1 JUMPDEST DUP2 DUP2 LT PUSH2 0xD98 JUMPI POP SWAP1 DUP5 PUSH1 0x1 SWAP6 SWAP5 SWAP4 SWAP3 LT PUSH2 0xD7F JUMPI JUMPDEST POP POP POP DUP2 SHL ADD SWAP1 SSTORE PUSH2 0xB26 JUMP JUMPDEST ADD MLOAD PUSH1 0x0 NOT PUSH1 0xF8 DUP5 PUSH1 0x3 SHL AND SHR NOT AND SWAP1 SSTORE DUP9 DUP1 DUP1 PUSH2 0xD72 JUMP JUMPDEST SWAP3 SWAP4 PUSH1 0x20 PUSH1 0x1 DUP2 SWAP3 DUP8 DUP7 ADD MLOAD DUP2 SSTORE ADD SWAP6 ADD SWAP4 ADD PUSH2 0xD5C JUMP JUMPDEST SWAP1 SWAP2 POP DUP4 PUSH1 0x0 MSTORE PUSH1 0x20 PUSH1 0x0 KECCAK256 PUSH1 0x1F DUP5 ADD PUSH1 0x5 SHR DUP2 ADD SWAP2 PUSH1 0x20 DUP6 LT PUSH2 0xDF9 JUMPI JUMPDEST SWAP1 PUSH1 0x1F DUP6 SWAP5 SWAP4 SWAP3 ADD PUSH1 0x5 SHR ADD SWAP1 JUMPDEST DUP2 DUP2 LT PUSH2 0xDEA JUMPI POP PUSH2 0xAFA JUMP JUMPDEST PUSH1 0x0 DUP2 SSTORE DUP5 SWAP4 POP PUSH1 0x1 ADD PUSH2 0xDDD JUMP JUMPDEST SWAP1 SWAP2 POP DUP2 SWAP1 PUSH2 0xDCF JUMP JUMPDEST ADD MLOAD SWAP1 POP DUP9 DUP1 PUSH2 0xAB5 JUMP JUMPDEST PUSH1 0x0 DUP6 DUP2 MSTORE DUP3 DUP2 KECCAK256 SWAP4 POP PUSH1 0x1F NOT DUP6 AND SWAP1 JUMPDEST DUP2 DUP2 LT PUSH2 0xE5B JUMPI POP SWAP1 DUP5 PUSH1 0x1 SWAP6 SWAP5 SWAP4 SWAP3 LT PUSH2 0xE42 JUMPI JUMPDEST POP POP POP DUP2 SHL ADD SWAP1 SSTORE PUSH2 0xACA JUMP JUMPDEST ADD MLOAD PUSH1 0x0 NOT PUSH1 0xF8 DUP5 PUSH1 0x3 SHL AND SHR NOT AND SWAP1 SSTORE DUP9 DUP1 DUP1 PUSH2 0xE35 JUMP JUMPDEST SWAP3 SWAP4 PUSH1 0x20 PUSH1 0x1 DUP2 SWAP3 DUP8 DUP7 ADD MLOAD DUP2 SSTORE ADD SWAP6 ADD SWAP4 ADD PUSH2 0xE1F JUMP JUMPDEST SWAP1 SWAP2 POP DUP4 PUSH1 0x0 MSTORE PUSH1 0x20 PUSH1 0x0 KECCAK256 PUSH1 0x1F DUP5 ADD PUSH1 0x5 SHR DUP2 ADD SWAP2 PUSH1 0x20 DUP6 LT PUSH2 0xEBC JUMPI JUMPDEST SWAP1 PUSH1 0x1F DUP6 SWAP5 SWAP4 SWAP3 ADD PUSH1 0x5 SHR ADD SWAP1 JUMPDEST DUP2 DUP2 LT PUSH2 0xEAD JUMPI POP PUSH2 0xA9E JUMP JUMPDEST PUSH1 0x0 DUP2 SSTORE DUP5 SWAP4 POP PUSH1 0x1 ADD PUSH2 0xEA0 JUMP JUMPDEST SWAP1 SWAP2 POP DUP2 SWAP1 PUSH2 0xE92 JUMP JUMPDEST ADD MLOAD SWAP1 POP DUP9 DUP1 PUSH2 0xA24 JUMP JUMPDEST PUSH1 0x0 DUP6 DUP2 MSTORE DUP3 DUP2 KECCAK256 SWAP4 POP PUSH1 0x1F NOT DUP6 AND SWAP1 JUMPDEST DUP2 DUP2 LT PUSH2 0xF1E JUMPI POP SWAP1 DUP5 PUSH1 0x1 SWAP6 SWAP5 SWAP4 SWAP3 LT PUSH2 0xF05 JUMPI JUMPDEST POP POP POP DUP2 SHL ADD SWAP1 SSTORE PUSH2 0xA39 JUMP JUMPDEST ADD MLOAD PUSH1 0x0 NOT PUSH1 0xF8 DUP5 PUSH1 0x3 SHL AND SHR NOT AND SWAP1 SSTORE DUP9 DUP1 DUP1 PUSH2 0xEF8 JUMP JUMPDEST SWAP3 SWAP4 PUSH1 0x20 PUSH1 0x1 DUP2 SWAP3 DUP8 DUP7 ADD MLOAD DUP2 SSTORE ADD SWAP6 ADD SWAP4 ADD PUSH2 0xEE2 JUMP JUMPDEST SWAP1 SWAP2 POP DUP4 PUSH1 0x0 MSTORE PUSH1 0x20 PUSH1 0x0 KECCAK256 PUSH1 0x1F DUP5 ADD PUSH1 0x5 SHR DUP2 ADD SWAP2 PUSH1 0x20 DUP6 LT PUSH2 0xF7F JUMPI JUMPDEST SWAP1 PUSH1 0x1F DUP6 SWAP5 SWAP4 SWAP3 ADD PUSH1 0x5 SHR ADD SWAP1 JUMPDEST DUP2 DUP2 LT PUSH2 0xF70 JUMPI POP PUSH2 0xA0D JUMP JUMPDEST PUSH1 0x0 DUP2 SSTORE DUP5 SWAP4 POP PUSH1 0x1 ADD PUSH2 0xF63 JUMP JUMPDEST SWAP1 SWAP2 POP DUP2 SWAP1 PUSH2 0xF55 JUMP JUMPDEST ADD MLOAD SWAP1 POP DUP9 DUP1 PUSH2 0x9C8 JUMP JUMPDEST PUSH1 0x0 DUP6 DUP2 MSTORE DUP3 DUP2 KECCAK256 SWAP4 POP PUSH1 0x1F NOT DUP6 AND SWAP1 JUMPDEST DUP2 DUP2 LT PUSH2 0xFE1 JUMPI POP SWAP1 DUP5 PUSH1 0x1 SWAP6 SWAP5 SWAP4 SWAP3 LT PUSH2 0xFC8 JUMPI JUMPDEST POP POP POP DUP2 SHL ADD SWAP1 SSTORE PUSH2 0x9DD JUMP JUMPDEST ADD MLOAD PUSH1 0x0 NOT PUSH1 0xF8 DUP5 PUSH1 0x3 SHL AND SHR NOT AND SWAP1 SSTORE DUP9 DUP1 DUP1 PUSH2 0xFBB JUMP JUMPDEST SWAP3 SWAP4 PUSH1 0x20 PUSH1 0x1 DUP2 SWAP3 DUP8 DUP7 ADD MLOAD DUP2 SSTORE ADD SWAP6 ADD SWAP4 ADD PUSH2 0xFA5 JUMP JUMPDEST SWAP1 SWAP2 POP DUP4 PUSH1 0x0 MSTORE PUSH1 0x20 PUSH1 0x0 KECCAK256 PUSH1 0x1F DUP5 ADD PUSH1 0x5 SHR DUP2 ADD SWAP2 PUSH1 0x20 DUP6 LT PUSH2 0x1042 JUMPI JUMPDEST SWAP1 PUSH1 0x1F DUP6 SWAP5 SWAP4 SWAP3 ADD PUSH1 0x5 SHR ADD SWAP1 JUMPDEST DUP2 DUP2 LT PUSH2 0x1033 JUMPI POP PUSH2 0x9B1 JUMP JUMPDEST PUSH1 0x0 DUP2 SSTORE DUP5 SWAP4 POP PUSH1 0x1 ADD PUSH2 0x1026 JUMP JUMPDEST SWAP1 SWAP2 POP DUP2 SWAP1 PUSH2 0x1018 JUMP JUMPDEST ADD MLOAD SWAP1 POP DUP9 DUP1 PUSH2 0x96D JUMP JUMPDEST PUSH1 0x0 DUP6 DUP2 MSTORE DUP3 DUP2 KECCAK256 SWAP4 POP PUSH1 0x1F NOT DUP6 AND SWAP1 JUMPDEST DUP2 DUP2 LT PUSH2 0x10A4 JUMPI POP SWAP1 DUP5 PUSH1 0x1 SWAP6 SWAP5 SWAP4 SWAP3 LT PUSH2 0x108B JUMPI JUMPDEST POP POP POP DUP2 SHL ADD SWAP1 SSTORE PUSH2 0x982 JUMP JUMPDEST ADD MLOAD PUSH1 0x0 NOT PUSH1 0xF8 DUP5 PUSH1 0x3 SHL AND SHR NOT AND SWAP1 SSTORE DUP9 DUP1 DUP1 PUSH2 0x107E JUMP JUMPDEST SWAP3 SWAP4 PUSH1 0x20 PUSH1 0x1 DUP2 SWAP3 DUP8 DUP7 ADD MLOAD DUP2 SSTORE ADD SWAP6 ADD SWAP4 ADD PUSH2 0x1068 JUMP JUMPDEST SWAP1 SWAP2 POP DUP4 PUSH1 0x0 MSTORE PUSH1 0x20 PUSH1 0x0 KECCAK256 PUSH1 0x1F DUP5 ADD PUSH1 0x5 SHR DUP2 ADD SWAP2 PUSH1 0x20 DUP6 LT PUSH2 0x1105 JUMPI JUMPDEST SWAP1 PUSH1 0x1F DUP6 SWAP5 SWAP4 SWAP3 ADD PUSH1 0x5 SHR ADD SWAP1 JUMPDEST DUP2 DUP2 LT PUSH2 0x10F6 JUMPI POP PUSH2 0x956 JUMP JUMPDEST PUSH1 0x0 DUP2 SSTORE DUP5 SWAP4 POP PUSH1 0x1 ADD PUSH2 0x10E9 JUMP JUMPDEST SWAP1 SWAP2 POP DUP2 SWAP1 PUSH2 0x10DB JUMP JUMPDEST ADD MLOAD SWAP1 POP DUP9 DUP1 PUSH2 0x912 JUMP JUMPDEST PUSH1 0x0 DUP6 DUP2 MSTORE DUP3 DUP2 KECCAK256 SWAP4 POP PUSH1 0x1F NOT DUP6 AND SWAP1 JUMPDEST DUP2 DUP2 LT PUSH2 0x1167 JUMPI POP SWAP1 DUP5 PUSH1 0x1 SWAP6 SWAP5 SWAP4 SWAP3 LT PUSH2 0x114E JUMPI JUMPDEST POP POP POP DUP2 SHL ADD SWAP1 SSTORE PUSH2 0x927 JUMP JUMPDEST ADD MLOAD PUSH1 0x0 NOT PUSH1 0xF8 DUP5 PUSH1 0x3 SHL AND SHR NOT AND SWAP1 SSTORE DUP9 DUP1 DUP1 PUSH2 0x1141 JUMP JUMPDEST SWAP3 SWAP4 PUSH1 0x20 PUSH1 0x1 DUP2 SWAP3 DUP8 DUP7 ADD MLOAD DUP2 SSTORE ADD SWAP6 ADD SWAP4 ADD PUSH2 0x112B JUMP JUMPDEST SWAP1 SWAP2 POP DUP4 PUSH1 0x0 MSTORE PUSH1 0x20 PUSH1 0x0 KECCAK256 PUSH1 0x1F DUP5 ADD PUSH1 0x5 SHR DUP2 ADD SWAP2 PUSH1 0x20 DUP6 LT PUSH2 0x11C8 JUMPI JUMPDEST SWAP1 PUSH1 0x1F DUP6 SWAP5 SWAP4 SWAP3 ADD PUSH1 0x5 SHR ADD SWAP1 JUMPDEST DUP2 DUP2 LT PUSH2 0x11B9 JUMPI POP PUSH2 0x8FB JUMP JUMPDEST PUSH1 0x0 DUP2 SSTORE DUP5 SWAP4 POP PUSH1 0x1 ADD PUSH2 0x11AC JUMP JUMPDEST SWAP1 SWAP2 POP DUP2 SWAP1 PUSH2 0x119E JUMP JUMPDEST ADD MLOAD SWAP1 POP DUP9 DUP1 PUSH2 0x8B7 JUMP JUMPDEST PUSH1 0x0 DUP6 DUP2 MSTORE DUP3 DUP2 KECCAK256 SWAP4 POP PUSH1 0x1F NOT DUP6 AND SWAP1 JUMPDEST DUP2 DUP2 LT PUSH2 0x122A JUMPI POP SWAP1 DUP5 PUSH1 0x1 SWAP6 SWAP5 SWAP4 SWAP3 LT PUSH2 0x1211 JUMPI JUMPDEST POP POP POP DUP2 SHL ADD SWAP1 SSTORE PUSH2 0x8CC JUMP JUMPDEST ADD MLOAD PUSH1 0x0 NOT PUSH1 0xF8 DUP5 PUSH1 0x3 SHL AND SHR NOT AND SWAP1 SSTORE DUP9 DUP1 DUP1 PUSH2 0x1204 JUMP JUMPDEST SWAP3 SWAP4 PUSH1 0x20 PUSH1 0x1 DUP2 SWAP3 DUP8 DUP7 ADD MLOAD DUP2 SSTORE ADD SWAP6 ADD SWAP4 ADD PUSH2 0x11EE JUMP JUMPDEST SWAP1 SWAP2 POP DUP4 PUSH1 0x0 MSTORE PUSH1 0x20 PUSH1 0x0 KECCAK256 PUSH1 0x1F DUP5 ADD PUSH1 0x5 SHR DUP2 ADD SWAP2 PUSH1 0x20 DUP6 LT PUSH2 0x128B JUMPI JUMPDEST SWAP1 PUSH1 0x1F DUP6 SWAP5 SWAP4 SWAP3 ADD PUSH1 0x5 SHR ADD SWAP1 JUMPDEST DUP2 DUP2 LT PUSH2 0x127C JUMPI POP PUSH2 0x8A0 JUMP JUMPDEST PUSH1 0x0 DUP2 SSTORE DUP5 SWAP4 POP PUSH1 0x1 ADD PUSH2 0x126F JUMP JUMPDEST SWAP1 SWAP2 POP DUP2 SWAP1 PUSH2 0x1261 JUMP JUMPDEST ADD MLOAD SWAP1 POP DUP8 DUP1 PUSH2 0x84F JUMP JUMPDEST SWAP3 POP PUSH1 0x2 DUP6 ADD PUSH1 0x0 MSTORE DUP1 PUSH1 0x0 KECCAK256 SWAP1 PUSH1 0x0 SWAP4 JUMPDEST PUSH1 0x1F NOT DUP5 AND DUP6 LT PUSH2 0x12F6 JUMPI PUSH1 0x1 SWAP5 POP DUP4 PUSH1 0x1F NOT DUP2 AND LT PUSH2 0x12DD JUMPI JUMPDEST POP POP POP DUP2 SHL ADD PUSH1 0x2 DUP4 ADD SSTORE PUSH2 0x867 JUMP JUMPDEST ADD MLOAD PUSH1 0x0 NOT PUSH1 0xF8 DUP5 PUSH1 0x3 SHL AND SHR NOT AND SWAP1 SSTORE DUP8 DUP1 DUP1 PUSH2 0x12CD JUMP JUMPDEST DUP2 DUP2 ADD MLOAD DUP4 SSTORE PUSH1 0x20 SWAP5 DUP6 ADD SWAP5 PUSH1 0x1 SWAP1 SWAP4 ADD SWAP3 SWAP1 SWAP2 ADD SWAP1 PUSH2 0x12B2 JUMP JUMPDEST SWAP1 SWAP2 POP PUSH1 0x2 DUP6 ADD PUSH1 0x0 MSTORE PUSH1 0x20 PUSH1 0x0 KECCAK256 PUSH1 0x1F DUP5 ADD PUSH1 0x5 SHR DUP2 ADD PUSH1 0x20 DUP6 LT PUSH2 0x135D JUMPI JUMPDEST SWAP1 DUP5 SWAP4 SWAP3 SWAP2 JUMPDEST PUSH1 0x1F DUP4 ADD PUSH1 0x5 SHR DUP3 ADD DUP2 LT PUSH2 0x134E JUMPI POP POP PUSH2 0x838 JUMP JUMPDEST PUSH1 0x0 DUP2 SSTORE DUP6 SWAP5 POP PUSH1 0x1 ADD PUSH2 0x1338 JUMP JUMPDEST POP DUP1 PUSH2 0x1332 JUMP JUMPDEST ADD MLOAD SWAP1 POP DUP8 DUP1 PUSH2 0x7F2 JUMP JUMPDEST SWAP3 POP PUSH1 0x1 DUP6 ADD PUSH1 0x0 MSTORE DUP1 PUSH1 0x0 KECCAK256 SWAP1 PUSH1 0x0 SWAP4 JUMPDEST PUSH1 0x1F NOT DUP5 AND DUP6 LT PUSH2 0x13C5 JUMPI PUSH1 0x1 SWAP5 POP DUP4 PUSH1 0x1F NOT DUP2 AND LT PUSH2 0x13AC JUMPI JUMPDEST POP POP POP DUP2 SHL ADD PUSH1 0x1 DUP4 ADD SSTORE PUSH2 0x80A JUMP JUMPDEST ADD MLOAD PUSH1 0x0 NOT PUSH1 0xF8 DUP5 PUSH1 0x3 SHL AND SHR NOT AND SWAP1 SSTORE DUP8 DUP1 DUP1 PUSH2 0x139C JUMP JUMPDEST DUP2 DUP2 ADD MLOAD DUP4 SSTORE PUSH1 0x20 SWAP5 DUP6 ADD SWAP5 PUSH1 0x1 SWAP1 SWAP4 ADD SWAP3 SWAP1 SWAP2 ADD SWAP1 PUSH2 0x1381 JUMP JUMPDEST SWAP1 SWAP2 POP PUSH1 0x1 DUP6 ADD PUSH1 0x0 MSTORE PUSH1 0x20 PUSH1 0x0 KECCAK256 PUSH1 0x1F DUP5 ADD PUSH1 0x5 SHR DUP2 ADD PUSH1 0x20 DUP6 LT PUSH2 0x142C JUMPI JUMPDEST SWAP1 DUP5 SWAP4 SWAP3 SWAP2 JUMPDEST PUSH1 0x1F DUP4 ADD PUSH1 0x5 SHR DUP3 ADD DUP2 LT PUSH2 0x141D JUMPI POP POP PUSH2 0x7DB JUMP JUMPDEST PUSH1 0x0 DUP2 SSTORE DUP6 SWAP5 POP PUSH1 0x1 ADD PUSH2 0x1407 JUMP JUMPDEST POP DUP1 PUSH2 0x1401 JUMP JUMPDEST PUSH2 0x200 DUP2 ADD SWAP1 DUP2 LT PUSH1 0x1 PUSH1 0x1 PUSH1 0x40 SHL SUB DUP3 GT OR PUSH2 0xC69 JUMPI PUSH1 0x40 MSTORE JUMP JUMPDEST SWAP1 PUSH1 0x1F DUP1 NOT SWAP2 ADD AND DUP2 ADD SWAP1 DUP2 LT PUSH1 0x1 PUSH1 0x1 PUSH1 0x40 SHL SUB DUP3 GT OR PUSH2 0xC69 JUMPI PUSH1 0x40 MSTORE JUMP JUMPDEST DUP2 PUSH1 0x1F DUP3 ADD SLT ISZERO PUSH2 0x20A JUMPI DUP1 CALLDATALOAD SWAP1 PUSH1 0x1 PUSH1 0x1 PUSH1 0x40 SHL SUB DUP3 GT PUSH2 0xC69 JUMPI PUSH1 0x40 MLOAD SWAP3 PUSH2 0x14A4 PUSH1 0x1F DUP5 ADD PUSH1 0x1F NOT AND PUSH1 0x20 ADD DUP6 PUSH2 0x144F JUMP JUMPDEST DUP3 DUP5 MSTORE PUSH1 0x20 DUP4 DUP4 ADD ADD GT PUSH2 0x20A JUMPI DUP2 PUSH1 0x0 SWAP3 PUSH1 0x20 DUP1 SWAP4 ADD DUP4 DUP7 ADD CALLDATACOPY DUP4 ADD ADD MSTORE SWAP1 JUMP JUMPDEST SWAP2 SWAP1 DUP3 MLOAD SWAP3 DUP4 DUP3 MSTORE PUSH1 0x0 JUMPDEST DUP5 DUP2 LT PUSH2 0x14F2 JUMPI POP POP DUP3 PUSH1 0x0 PUSH1 0x20 DUP1 SWAP5 SWAP6 DUP5 ADD ADD MSTORE PUSH1 0x1F DUP1 NOT SWAP2 ADD AND ADD ADD SWAP1 JUMP JUMPDEST DUP1 PUSH1 0x20 DUP1 SWAP3 DUP5 ADD ADD MLOAD DUP3 DUP3 DUP7 ADD ADD MSTORE ADD PUSH2 0x14D1 JUMP JUMPDEST PUSH1 0x2 SLOAD DUP2 LT ISZERO PUSH2 0x1522 JUMPI PUSH1 0x2 PUSH1 0x0 MSTORE PUSH1 0x20 PUSH1 0x0 KECCAK256 ADD SWAP1 PUSH1 0x0 SWAP1 JUMP JUMPDEST PUSH4 0x4E487B71 PUSH1 0xE0 SHL PUSH1 0x0 MSTORE PUSH1 0x32 PUSH1 0x4 MSTORE PUSH1 0x24 PUSH1 0x0 REVERT JUMPDEST SWAP1 PUSH1 0x1 DUP3 DUP2 SHR SWAP3 AND DUP1 ISZERO PUSH2 0x1568 JUMPI JUMPDEST PUSH1 0x20 DUP4 LT EQ PUSH2 0x1552 JUMPI JUMP JUMPDEST PUSH4 0x4E487B71 PUSH1 0xE0 SHL PUSH1 0x0 MSTORE PUSH1 0x22 PUSH1 0x4 MSTORE PUSH1 0x24 PUSH1 0x0 REVERT JUMPDEST SWAP2 PUSH1 0x7F AND SWAP2 PUSH2 0x1547 JUMP JUMPDEST SWAP1 PUSH1 0x40 MLOAD SWAP2 DUP3 PUSH1 0x0 DUP3 SLOAD SWAP3 PUSH2 0x1586 DUP5 PUSH2 0x1538 JUMP JUMPDEST DUP1 DUP5 MSTORE SWAP4 PUSH1 0x1 DUP2 AND SWAP1 DUP2 ISZERO PUSH2 0x15F4 JUMPI POP PUSH1 0x1 EQ PUSH2 0x15AD JUMPI JUMPDEST POP PUSH2 0x15AB SWAP3 POP SUB DUP4 PUSH2 0x144F JUMP JUMPDEST JUMP JUMPDEST SWAP1 POP PUSH1 0x0 SWAP3 SWAP2 SWAP3 MSTORE PUSH1 0x20 PUSH1 0x0 KECCAK256 SWAP1 PUSH1 0x0 SWAP2 JUMPDEST DUP2 DUP4 LT PUSH2 0x15D8 JUMPI POP POP SWAP1 PUSH1 0x20 PUSH2 0x15AB SWAP3 DUP3 ADD ADD CODESIZE PUSH2 0x159E JUMP JUMPDEST PUSH1 0x20 SWAP2 SWAP4 POP DUP1 PUSH1 0x1 SWAP2 SLOAD DUP4 DUP6 DUP10 ADD ADD MSTORE ADD SWAP2 ADD SWAP1 SWAP2 DUP5 SWAP3 PUSH2 0x15BF JUMP JUMPDEST SWAP1 POP PUSH1 0x20 SWAP3 POP PUSH2 0x15AB SWAP5 SWAP2 POP PUSH1 0xFF NOT AND DUP3 DUP5 ADD MSTORE ISZERO ISZERO PUSH1 0x5 SHL DUP3 ADD ADD CODESIZE PUSH2 0x159E JUMP INVALID LOG2 PUSH5 0x6970667358 0x22 SLT KECCAK256 0xFB 0x28 XOR XOR MSTORE8 JUMPI 0xCA CALL GT NOT REVERT 0xE0 CALLVALUE 0x22 0xDF SWAP14 PUSH23 0x8DC54E3BA596515A833A689F10CA8B64736F6C63430008 SHR STOP CALLER "
        },
        "methodIdentifiers": {
          "addAnimal(string,string,uint256,string,string,string,string,string,uint32,uint32,string,string,string)": "3b8cd9de",
          "animalIds(uint256)": "4efead56",
          "animals(uint256)": "998dd3ca",
          "getAnimal(uint256)": "45d3cc81",
          "getAnimalCount()": "66634a16"
        }
      }
    }
  }
}