{
  "contracts/AnimalTracking.sol": {
    "AnimalTracking": {
      "abi": [
        {
          "anonymous": false,
          "inputs": [
            {
              "indexed": true,
              "internalType": "uint256",
              "name": "id",
              "type": "uint256"
            },
            {
              "indexed": false,
              "internalType": "string",
              "name": "name",
              "type": "string"
            },
            {
              "indexed": false,
              "internalType": "string",
              "name": "species",
              "type": "string"
            },
            {
              "indexed": true,
              "internalType": "address",
              "name": "addedBy",
              "type": "address"
            }
          ],
          "name": "AnimalAdded",
          "type": "event"
        },
        {
          "inputs": [
            {
              "internalType": "uint256",
              "name": "_id",
              "type": "uint256"
            },
            {
              "internalType": "string",
              "name": "_name",
              "type": "string"
            },
            {
              "internalType": "string",
              "name": "_species",
              "type": "string"
            },
            {
              "internalType": "uint256",
              "name": "_age",
              "type": "uint256"
            },
            {
              "internalType": "string",
              "name": "_ownerName",
              "type": "string"
            },
            {
              "internalType": "string",
              "name": "_ownerPhone",
              "type": "string"
            },
            {
              "internalType": "string",
              "name": "_ownerAddress",
              "type": "string"
            },
            {
              "internalType": "string",
              "name": "_shelterName",
              "type": "string"
            },
            {
              "internalType": "string",
              "name": "_gender",
              "type": "string"
            },
            {
              "internalType": "uint32",
              "name": "_weight",
              "type": "uint32"
            },
            {
              "internalType": "uint32",
              "name": "_height",
              "type": "uint32"
            },
            {
              "internalType": "string",
              "name": "_illnesses",
              "type": "string"
            },
            {
              "internalType": "string",
              "name": "_vaccines",
              "type": "string"
            },
            {
              "internalType": "string",
              "name": "_additionalInfo",
              "type": "string"
            }
          ],
          "name": "addAnimal",
          "outputs": [],
          "stateMutability": "nonpayable",
          "type": "function"
        },
        {
          "inputs": [
            {
              "internalType": "uint256",
              "name": "",
              "type": "uint256"
            }
          ],
          "name": "animalIds",
          "outputs": [
            {
              "internalType": "uint256",
              "name": "",
              "type": "uint256"
            }
          ],
          "stateMutability": "view",
          "type": "function"
        },
        {
          "inputs": [
            {
              "internalType": "uint256",
              "name": "",
              "type": "uint256"
            }
          ],
          "name": "animals",
          "outputs": [
            {
              "internalType": "uint256",
              "name": "id",
              "type": "uint256"
            },
            {
              "internalType": "string",
              "name": "name",
              "type": "string"
            },
            {
              "internalType": "string",
              "name": "species",
              "type": "string"
            },
            {
              "internalType": "uint256",
              "name": "age",
              "type": "uint256"
            },
            {
              "internalType": "string",
              "name": "ownerName",
              "type": "string"
            },
            {
              "internalType": "string",
              "name": "ownerPhone",
              "type": "string"
            },
            {
              "internalType": "string",
              "name": "ownerAddress",
              "type": "string"
            },
            {
              "internalType": "string",
              "name": "shelterName",
              "type": "string"
            },
            {
              "internalType": "string",
              "name": "gender",
              "type": "string"
            },
            {
              "internalType": "uint32",
              "name": "weight",
              "type": "uint32"
            },
            {
              "internalType": "uint32",
              "name": "height",
              "type": "uint32"
            },
            {
              "internalType": "string",
              "name": "illnesses",
              "type": "string"
            },
            {
              "internalType": "string",
              "name": "vaccines",
              "type": "string"
            },
            {
              "internalType": "string",
              "name": "additionalInfo",
              "type": "string"
            },
            {
              "internalType": "address",
              "name": "addedBy",
              "type": "address"
            },
            {
              "internalType": "uint256",
              "name": "timestamp",
              "type": "uint256"
            }
          ],
          "stateMutability": "view",
          "type": "function"
        },
        {
          "inputs": [
            {
              "internalType": "uint256",
              "name": "_id",
              "type": "uint256"
            }
          ],
          "name": "getAnimal",
          "outputs": [
            {
              "components": [
                {
                  "internalType": "uint256",
                  "name": "id",
                  "type": "uint256"
                },
                {
                  "internalType": "string",
                  "name": "name",
                  "type": "string"
                },
                {
                  "internalType": "string",
                  "name": "species",
                  "type": "string"
                },
                {
                  "internalType": "uint256",
                  "name": "age",
                  "type": "uint256"
                },
                {
                  "internalType": "string",
                  "name": "ownerName",
                  "type": "string"
                },
                {
                  "internalType": "string",
                  "name": "ownerPhone",
                  "type": "string"
                },
                {
                  "internalType": "string",
                  "name": "ownerAddress",
                  "type": "string"
                },
                {
                  "internalType": "string",
                  "name": "shelterName",
                  "type": "string"
                },
                {
                  "internalType": "string",
                  "name": "gender",
                  "type": "string"
                },
                {
                  "internalType": "uint32",
                  "name": "weight",
                  "type": "uint32"
                },
                {
                  "internalType": "uint32",
                  "name": "height",
                  "type": "uint32"
                },
                {
                  "internalType": "string",
                  "name": "illnesses",
                  "type": "string"
                },
                {
                  "internalType": "string",
                  "name": "vaccines",
                  "type": "string"
                },
                {
                  "internalType": "string",
                  "name": "additionalInfo",
                  "type": "string"
                },
                {
                  "internalType": "address",
                  "name": "addedBy",
                  "type": "address"
                },
                {
                  "internalType": "uint256",
                  "name": "timestamp",
                  "type": "uint256"
                }
              ],
              "internalType": "struct AnimalTracking.Animal",
              "name": "",
              "type": "tuple"
            }
          ],
          "stateMutability": "view",
          "type": "function"
        },
        {
          "inputs": [],
          "name": "getAnimalCount",
          "outputs": [
            {
              "internalType": "uint256",
              "name": "",
              "type": "uint256"
            }
          ],
          "stateMutability": "view",
          "type": "function"
        }
      ],
      "evm": {
        "bytecode": {
          "linkReferences": {},
          "object": "60808060405234601557611686908161001b8239f35b600080fdfe6080604052600436101561001257600080fd5b60003560e01c806327ca790f146105b657806345d3cc81146102655780634efead561461022d57806366634a161461020f5763998dd3ca1461005357600080fd5b3461020a57602036600319011261020a576004356000526000602052604060002080549060018101610084906115ac565b90610091600282016115ac565b600382015490936100a4600484016115ac565b6100b0600585016115ac565b6100bc600686016115ac565b6100c8600787016115ac565b6100d4600888016115ac565b90600988015492600a89016100e8906115ac565b946100f5600b8b016115ac565b96610102600c8c016115ac565b98600160a01b60019003600d8d0154169b600e01549a6040519e8f9e8f938452602084016102009052610200840161013991611500565b838103604085015261014a91611500565b91606001528c808203906080015261016191611500565b8b810360a08d015261017291611500565b8a810360c08c015261018391611500565b89810360e08b015261019491611500565b8881036101008a01526101a691611500565b9063ffffffff811661012089015260201c63ffffffff166101408801528681036101608801526101d591611500565b8581036101808701526101e791611500565b8481036101a08601526101f991611500565b916101c08401526101e08301520390f35b600080fd5b3461020a57600036600319011261020a576020600154604051908152f35b3461020a57602036600319011261020a5760043560015481101561020a57610256602091611541565b90549060031b1c604051908152f35b3461020a57602036600319011261020a5760043560006101e060405161028a8161146d565b828152606060208201526060604082015282606082015260606080820152606060a0820152606060c0820152606060e0820152606061010082015282610120820152826101408201526060610160820152606061018082015260606101a0820152826101c082015201528060005260006020526040600020541561057e57600052600060205261022060206040600020600e604051916103298361146d565b80548352610339600182016115ac565b84840152610349600282016115ac565b604084015260038101546060840152610364600482016115ac565b6080840152610375600582016115ac565b60a0840152610386600682016115ac565b60c0840152610397600782016115ac565b60e08401526103a8600882016115ac565b61010084015263ffffffff6009820154818116610120860152851c166101408401526103d6600a82016115ac565b6101608401526103e8600b82016115ac565b6101808401526103fa600c82016115ac565b6101a084015260018060a01b03600d820154166101c084015201546101e08201526101e061055e61054661052e6104f26104da6104c36104ad6104976104766104608b6040519e8f9e8f9281845280518285015201519161020060408201520190611500565b60408c01518d8203601f190160608f0152611500565b60608b015160808d015260808b01518c60a0601f1982850301910152611500565b60a08a01518b8203601f190160c08d0152611500565b60c08901518a8203601f190160e08c0152611500565b60e0880151898203601f19016101008b0152611500565b610100870151888203601f19016101208a0152611500565b63ffffffff6101208701511661014088015263ffffffff61014087015116610160880152610160860151601f1988830301610180890152611500565b610180850151868203601f19016101a0880152611500565b6101a0840151858203601f19016101c0870152611500565b6101c08301516001600160a01b0316848301529101516102008301520390f35b60405162461bcd60e51b815260206004820152601060248201526f105b9a5b585b081b9bdd08199bdd5b9960821b6044820152606490fd5b3461020a576101c036600319011261020a576004356024356001600160401b03811161020a576105ea9036906004016114aa565b906044356001600160401b03811161020a5761060a9036906004016114aa565b916084356001600160401b03811161020a5761062a9036906004016114aa565b60a4356001600160401b03811161020a576106499036906004016114aa565b9060c4356001600160401b03811161020a576106699036906004016114aa565b60e4356001600160401b03811161020a576106889036906004016114aa565b610104356001600160401b03811161020a576106a89036906004016114aa565b6101243563ffffffff811680910361020a57610144359063ffffffff821680920361020a57610164356001600160401b03811161020a576106ed9036906004016114aa565b92610184356001600160401b03811161020a5761070e9036906004016114aa565b946101a4356001600160401b03811161020a5761072f9036906004016114aa565b968b600052600060205260406000205461141d578c99604051996107528b61146d565b8d8b5260208b019b8d8d5260408c015260643560608c015260808b015260a08a015260c089015260e08801526101008701526101208601526101408501526101608401526101808301526101a0820152336101c0820152426101e082015283600052600060205260406000209181518355518051906001600160401b038211610c535781906107e46001860154611572565b601f81116113ca575b50602090601f83116001146113595760009261134e575b50508160011b916000199060031b1c19161760018301555b60408101518051906001600160401b038211610c535781906108416002860154611572565b601f81116112fb575b50602090601f831160011461128a5760009261127f575b50508160011b916000199060031b1c19161760028301555b606081015160038301556004820160808201518051906001600160401b038211610c535781906108a98454611572565b601f811161122c575b50602090601f83116001146111c7576000926111bc575b50508160011b916000199060031b1c19161790555b6005820160a08201518051906001600160401b038211610c535781906109048454611572565b601f8111611169575b50602090601f8311600114611104576000926110f9575b50508160011b916000199060031b1c19161790555b6006820160c08201518051906001600160401b038211610c5357819061095f8454611572565b601f81116110a6575b50602090601f831160011461104157600092611036575b50508160011b916000199060031b1c19161790555b6007820160e08201518051906001600160401b038211610c535781906109ba8454611572565b601f8111610fe3575b50602090601f8311600114610f7e57600092610f73575b50508160011b916000199060031b1c19161790555b600882016101008201518051906001600160401b038211610c53578190610a168454611572565b601f8111610f20575b50602090601f8311600114610ebb57600092610eb0575b50508160011b916000199060031b1c19161790555b6009820163ffffffff6101208301511681549067ffffffff0000000061014085015160201b16916001600160401b03191617179055600a82016101608201518051906001600160401b038211610c53578190610aa78454611572565b601f8111610e5d575b50602090601f8311600114610df857600092610ded575b50508160011b916000199060031b1c19161790555b600b82016101808201518051906001600160401b038211610c53578190610b038454611572565b601f8111610d9a575b50602090601f8311600114610d3557600092610d2a575b50508160011b916000199060031b1c19161790555b600c82016101a08201518051906001600160401b038211610c5357610b5d8354611572565b601f8111610ce2575b50602090601f8311600114610c745791806101e09492600e9694600092610c69575b50508160011b916000199060031b1c19161790555b600d840160018060a01b036101c0830151166bffffffffffffffffffffffff60a01b825416179055015191015560015468010000000000000000811015610c53577fbec88f0688ffbe1eb884c48e22da13a44b912444f86ac435675a95f23a07deef91610c13826001610c3f9401600155611541565b81549060031b9086821b91600019901b1916179055610c4e604051928392604084526040840190611500565b82810360208401523396611500565b0390a3005b634e487b7160e01b600052604160045260246000fd5b015190508a80610b88565b90601f1983169184600052816000209260005b818110610cca5750926001928592600e98966101e0989610610cb1575b505050811b019055610b9d565b015160001960f88460031b161c191690558a8080610ca4565b92936020600181928786015181550195019301610c87565b836000526020600020601f840160051c81019160208510610d20575b601f0160051c01905b818110610d145750610b66565b60008155600101610d07565b9091508190610cfe565b015190508880610b23565b60008581528281209350601f198516905b818110610d825750908460019594939210610d69575b505050811b019055610b38565b015160001960f88460031b161c19169055888080610d5c565b92936020600181928786015181550195019301610d46565b909150836000526020600020601f840160051c81019160208510610de3575b90601f859493920160051c01905b818110610dd45750610b0c565b60008155849350600101610dc7565b9091508190610db9565b015190508880610ac7565b60008581528281209350601f198516905b818110610e455750908460019594939210610e2c575b505050811b019055610adc565b015160001960f88460031b161c19169055888080610e1f565b92936020600181928786015181550195019301610e09565b909150836000526020600020601f840160051c81019160208510610ea6575b90601f859493920160051c01905b818110610e975750610ab0565b60008155849350600101610e8a565b9091508190610e7c565b015190508880610a36565b60008581528281209350601f198516905b818110610f085750908460019594939210610eef575b505050811b019055610a4b565b015160001960f88460031b161c19169055888080610ee2565b92936020600181928786015181550195019301610ecc565b909150836000526020600020601f840160051c81019160208510610f69575b90601f859493920160051c01905b818110610f5a5750610a1f565b60008155849350600101610f4d565b9091508190610f3f565b0151905088806109da565b60008581528281209350601f198516905b818110610fcb5750908460019594939210610fb2575b505050811b0190556109ef565b015160001960f88460031b161c19169055888080610fa5565b92936020600181928786015181550195019301610f8f565b909150836000526020600020601f840160051c8101916020851061102c575b90601f859493920160051c01905b81811061101d57506109c3565b60008155849350600101611010565b9091508190611002565b01519050888061097f565b60008581528281209350601f198516905b81811061108e5750908460019594939210611075575b505050811b019055610994565b015160001960f88460031b161c19169055888080611068565b92936020600181928786015181550195019301611052565b909150836000526020600020601f840160051c810191602085106110ef575b90601f859493920160051c01905b8181106110e05750610968565b600081558493506001016110d3565b90915081906110c5565b015190508880610924565b60008581528281209350601f198516905b8181106111515750908460019594939210611138575b505050811b019055610939565b015160001960f88460031b161c1916905588808061112b565b92936020600181928786015181550195019301611115565b909150836000526020600020601f840160051c810191602085106111b2575b90601f859493920160051c01905b8181106111a3575061090d565b60008155849350600101611196565b9091508190611188565b0151905088806108c9565b60008581528281209350601f198516905b81811061121457509084600195949392106111fb575b505050811b0190556108de565b015160001960f88460031b161c191690558880806111ee565b929360206001819287860151815501950193016111d8565b909150836000526020600020601f840160051c81019160208510611275575b90601f859493920160051c01905b81811061126657506108b2565b60008155849350600101611259565b909150819061124b565b015190508780610861565b92506002850160005280600020906000935b601f19841685106112e0576001945083601f198116106112c7575b505050811b016002830155610879565b015160001960f88460031b161c191690558780806112b7565b8181015183556020948501946001909301929091019061129c565b909150600285016000526020600020601f840160051c810160208510611347575b90849392915b601f830160051c8201811061133857505061084a565b60008155859450600101611322565b508061131c565b015190508780610804565b92506001850160005280600020906000935b601f19841685106113af576001945083601f19811610611396575b505050811b01600183015561081c565b015160001960f88460031b161c19169055878080611386565b8181015183556020948501946001909301929091019061136b565b909150600185016000526020600020601f840160051c810160208510611416575b90849392915b601f830160051c820181106114075750506107ed565b600081558594506001016113f1565b50806113eb565b60405162461bcd60e51b815260206004820152602260248201527f416e696d616c2077697468207468697320494420616c72656164792065786973604482015261747360f01b6064820152608490fd5b61020081019081106001600160401b03821117610c5357604052565b90601f801991011681019081106001600160401b03821117610c5357604052565b81601f8201121561020a578035906001600160401b038211610c5357604051926114de601f8401601f191660200185611489565b8284526020838301011161020a57816000926020809301838601378301015290565b919082519283825260005b84811061152c575050826000602080949584010152601f8019910116010190565b8060208092840101518282860101520161150b565b60015481101561155c57600160005260206000200190600090565b634e487b7160e01b600052603260045260246000fd5b90600182811c921680156115a2575b602083101461158c57565b634e487b7160e01b600052602260045260246000fd5b91607f1691611581565b90604051918260008254926115c084611572565b808452936001811690811561162e57506001146115e7575b506115e592500383611489565b565b90506000929192526020600020906000915b8183106116125750509060206115e592820101386115d8565b60209193508060019154838589010152019101909184926115f9565b9050602092506115e594915060ff191682840152151560051b820101386115d856fea2646970667358221220c522ea988674a2249bc4aa1e46ce69c7f3ce48edec51883883ebd824a0d77e3264736f6c634300081c0033",
          "opcodes": "PUSH1 0x80 DUP1 PUSH1 0x40 MSTORE CALLVALUE PUSH1 0x15 JUMPI PUSH2 0x1686 SWAP1 DUP2 PUSH2 0x1B DUP3 CODECOPY RETURN JUMPDEST PUSH1 0x0 DUP1 REVERT INVALID PUSH1 0x80 PUSH1 0x40 MSTORE PUSH1 0x4 CALLDATASIZE LT ISZERO PUSH2 0x12 JUMPI PUSH1 0x0 DUP1 REVERT JUMPDEST PUSH1 0x0 CALLDATALOAD PUSH1 0xE0 SHR DUP1 PUSH4 0x27CA790F EQ PUSH2 0x5B6 JUMPI DUP1 PUSH4 0x45D3CC81 EQ PUSH2 0x265 JUMPI DUP1 PUSH4 0x4EFEAD56 EQ PUSH2 0x22D JUMPI DUP1 PUSH4 0x66634A16 EQ PUSH2 0x20F JUMPI PUSH4 0x998DD3CA EQ PUSH2 0x53 JUMPI PUSH1 0x0 DUP1 REVERT JUMPDEST CALLVALUE PUSH2 0x20A JUMPI PUSH1 0x20 CALLDATASIZE PUSH1 0x3 NOT ADD SLT PUSH2 0x20A JUMPI PUSH1 0x4 CALLDATALOAD PUSH1 0x0 MSTORE PUSH1 0x0 PUSH1 0x20 MSTORE PUSH1 0x40 PUSH1 0x0 KECCAK256 DUP1 SLOAD SWAP1 PUSH1 0x1 DUP2 ADD PUSH2 0x84 SWAP1 PUSH2 0x15AC JUMP JUMPDEST SWAP1 PUSH2 0x91 PUSH1 0x2 DUP3 ADD PUSH2 0x15AC JUMP JUMPDEST PUSH1 0x3 DUP3 ADD SLOAD SWAP1 SWAP4 PUSH2 0xA4 PUSH1 0x4 DUP5 ADD PUSH2 0x15AC JUMP JUMPDEST PUSH2 0xB0 PUSH1 0x5 DUP6 ADD PUSH2 0x15AC JUMP JUMPDEST PUSH2 0xBC PUSH1 0x6 DUP7 ADD PUSH2 0x15AC JUMP JUMPDEST PUSH2 0xC8 PUSH1 0x7 DUP8 ADD PUSH2 0x15AC JUMP JUMPDEST PUSH2 0xD4 PUSH1 0x8 DUP9 ADD PUSH2 0x15AC JUMP JUMPDEST SWAP1 PUSH1 0x9 DUP9 ADD SLOAD SWAP3 PUSH1 0xA DUP10 ADD PUSH2 0xE8 SWAP1 PUSH2 0x15AC JUMP JUMPDEST SWAP5 PUSH2 0xF5 PUSH1 0xB DUP12 ADD PUSH2 0x15AC JUMP JUMPDEST SWAP7 PUSH2 0x102 PUSH1 0xC DUP13 ADD PUSH2 0x15AC JUMP JUMPDEST SWAP9 PUSH1 0x1 PUSH1 0xA0 SHL PUSH1 0x1 SWAP1 SUB PUSH1 0xD DUP14 ADD SLOAD AND SWAP12 PUSH1 0xE ADD SLOAD SWAP11 PUSH1 0x40 MLOAD SWAP15 DUP16 SWAP15 DUP16 SWAP4 DUP5 MSTORE PUSH1 0x20 DUP5 ADD PUSH2 0x200 SWAP1 MSTORE PUSH2 0x200 DUP5 ADD PUSH2 0x139 SWAP2 PUSH2 0x1500 JUMP JUMPDEST DUP4 DUP2 SUB PUSH1 0x40 DUP6 ADD MSTORE PUSH2 0x14A SWAP2 PUSH2 0x1500 JUMP JUMPDEST SWAP2 PUSH1 0x60 ADD MSTORE DUP13 DUP1 DUP3 SUB SWAP1 PUSH1 0x80 ADD MSTORE PUSH2 0x161 SWAP2 PUSH2 0x1500 JUMP JUMPDEST DUP12 DUP2 SUB PUSH1 0xA0 DUP14 ADD MSTORE PUSH2 0x172 SWAP2 PUSH2 0x1500 JUMP JUMPDEST DUP11 DUP2 SUB PUSH1 0xC0 DUP13 ADD MSTORE PUSH2 0x183 SWAP2 PUSH2 0x1500 JUMP JUMPDEST DUP10 DUP2 SUB PUSH1 0xE0 DUP12 ADD MSTORE PUSH2 0x194 SWAP2 PUSH2 0x1500 JUMP JUMPDEST DUP9 DUP2 SUB PUSH2 0x100 DUP11 ADD MSTORE PUSH2 0x1A6 SWAP2 PUSH2 0x1500 JUMP JUMPDEST SWAP1 PUSH4 0xFFFFFFFF DUP2 AND PUSH2 0x120 DUP10 ADD MSTORE PUSH1 0x20 SHR PUSH4 0xFFFFFFFF AND PUSH2 0x140 DUP9 ADD MSTORE DUP7 DUP2 SUB PUSH2 0x160 DUP9 ADD MSTORE PUSH2 0x1D5 SWAP2 PUSH2 0x1500 JUMP JUMPDEST DUP6 DUP2 SUB PUSH2 0x180 DUP8 ADD MSTORE PUSH2 0x1E7 SWAP2 PUSH2 0x1500 JUMP JUMPDEST DUP5 DUP2 SUB PUSH2 0x1A0 DUP7 ADD MSTORE PUSH2 0x1F9 SWAP2 PUSH2 0x1500 JUMP JUMPDEST SWAP2 PUSH2 0x1C0 DUP5 ADD MSTORE PUSH2 0x1E0 DUP4 ADD MSTORE SUB SWAP1 RETURN JUMPDEST PUSH1 0x0 DUP1 REVERT JUMPDEST CALLVALUE PUSH2 0x20A JUMPI PUSH1 0x0 CALLDATASIZE PUSH1 0x3 NOT ADD SLT PUSH2 0x20A JUMPI PUSH1 0x20 PUSH1 0x1 SLOAD PUSH1 0x40 MLOAD SWAP1 DUP2 MSTORE RETURN JUMPDEST CALLVALUE PUSH2 0x20A JUMPI PUSH1 0x20 CALLDATASIZE PUSH1 0x3 NOT ADD SLT PUSH2 0x20A JUMPI PUSH1 0x4 CALLDATALOAD PUSH1 0x1 SLOAD DUP2 LT ISZERO PUSH2 0x20A JUMPI PUSH2 0x256 PUSH1 0x20 SWAP2 PUSH2 0x1541 JUMP JUMPDEST SWAP1 SLOAD SWAP1 PUSH1 0x3 SHL SHR PUSH1 0x40 MLOAD SWAP1 DUP2 MSTORE RETURN JUMPDEST CALLVALUE PUSH2 0x20A JUMPI PUSH1 0x20 CALLDATASIZE PUSH1 0x3 NOT ADD SLT PUSH2 0x20A JUMPI PUSH1 0x4 CALLDATALOAD PUSH1 0x0 PUSH2 0x1E0 PUSH1 0x40 MLOAD PUSH2 0x28A DUP2 PUSH2 0x146D JUMP JUMPDEST DUP3 DUP2 MSTORE PUSH1 0x60 PUSH1 0x20 DUP3 ADD MSTORE PUSH1 0x60 PUSH1 0x40 DUP3 ADD MSTORE DUP3 PUSH1 0x60 DUP3 ADD MSTORE PUSH1 0x60 PUSH1 0x80 DUP3 ADD MSTORE PUSH1 0x60 PUSH1 0xA0 DUP3 ADD MSTORE PUSH1 0x60 PUSH1 0xC0 DUP3 ADD MSTORE PUSH1 0x60 PUSH1 0xE0 DUP3 ADD MSTORE PUSH1 0x60 PUSH2 0x100 DUP3 ADD MSTORE DUP3 PUSH2 0x120 DUP3 ADD MSTORE DUP3 PUSH2 0x140 DUP3 ADD MSTORE PUSH1 0x60 PUSH2 0x160 DUP3 ADD MSTORE PUSH1 0x60 PUSH2 0x180 DUP3 ADD MSTORE PUSH1 0x60 PUSH2 0x1A0 DUP3 ADD MSTORE DUP3 PUSH2 0x1C0 DUP3 ADD MSTORE ADD MSTORE DUP1 PUSH1 0x0 MSTORE PUSH1 0x0 PUSH1 0x20 MSTORE PUSH1 0x40 PUSH1 0x0 KECCAK256 SLOAD ISZERO PUSH2 0x57E JUMPI PUSH1 0x0 MSTORE PUSH1 0x0 PUSH1 0x20 MSTORE PUSH2 0x220 PUSH1 0x20 PUSH1 0x40 PUSH1 0x0 KECCAK256 PUSH1 0xE PUSH1 0x40 MLOAD SWAP2 PUSH2 0x329 DUP4 PUSH2 0x146D JUMP JUMPDEST DUP1 SLOAD DUP4 MSTORE PUSH2 0x339 PUSH1 0x1 DUP3 ADD PUSH2 0x15AC JUMP JUMPDEST DUP5 DUP5 ADD MSTORE PUSH2 0x349 PUSH1 0x2 DUP3 ADD PUSH2 0x15AC JUMP JUMPDEST PUSH1 0x40 DUP5 ADD MSTORE PUSH1 0x3 DUP2 ADD SLOAD PUSH1 0x60 DUP5 ADD MSTORE PUSH2 0x364 PUSH1 0x4 DUP3 ADD PUSH2 0x15AC JUMP JUMPDEST PUSH1 0x80 DUP5 ADD MSTORE PUSH2 0x375 PUSH1 0x5 DUP3 ADD PUSH2 0x15AC JUMP JUMPDEST PUSH1 0xA0 DUP5 ADD MSTORE PUSH2 0x386 PUSH1 0x6 DUP3 ADD PUSH2 0x15AC JUMP JUMPDEST PUSH1 0xC0 DUP5 ADD MSTORE PUSH2 0x397 PUSH1 0x7 DUP3 ADD PUSH2 0x15AC JUMP JUMPDEST PUSH1 0xE0 DUP5 ADD MSTORE PUSH2 0x3A8 PUSH1 0x8 DUP3 ADD PUSH2 0x15AC JUMP JUMPDEST PUSH2 0x100 DUP5 ADD MSTORE PUSH4 0xFFFFFFFF PUSH1 0x9 DUP3 ADD SLOAD DUP2 DUP2 AND PUSH2 0x120 DUP7 ADD MSTORE DUP6 SHR AND PUSH2 0x140 DUP5 ADD MSTORE PUSH2 0x3D6 PUSH1 0xA DUP3 ADD PUSH2 0x15AC JUMP JUMPDEST PUSH2 0x160 DUP5 ADD MSTORE PUSH2 0x3E8 PUSH1 0xB DUP3 ADD PUSH2 0x15AC JUMP JUMPDEST PUSH2 0x180 DUP5 ADD MSTORE PUSH2 0x3FA PUSH1 0xC DUP3 ADD PUSH2 0x15AC JUMP JUMPDEST PUSH2 0x1A0 DUP5 ADD MSTORE PUSH1 0x1 DUP1 PUSH1 0xA0 SHL SUB PUSH1 0xD DUP3 ADD SLOAD AND PUSH2 0x1C0 DUP5 ADD MSTORE ADD SLOAD PUSH2 0x1E0 DUP3 ADD MSTORE PUSH2 0x1E0 PUSH2 0x55E PUSH2 0x546 PUSH2 0x52E PUSH2 0x4F2 PUSH2 0x4DA PUSH2 0x4C3 PUSH2 0x4AD PUSH2 0x497 PUSH2 0x476 PUSH2 0x460 DUP12 PUSH1 0x40 MLOAD SWAP15 DUP16 SWAP15 DUP16 SWAP3 DUP2 DUP5 MSTORE DUP1 MLOAD DUP3 DUP6 ADD MSTORE ADD MLOAD SWAP2 PUSH2 0x200 PUSH1 0x40 DUP3 ADD MSTORE ADD SWAP1 PUSH2 0x1500 JUMP JUMPDEST PUSH1 0x40 DUP13 ADD MLOAD DUP14 DUP3 SUB PUSH1 0x1F NOT ADD PUSH1 0x60 DUP16 ADD MSTORE PUSH2 0x1500 JUMP JUMPDEST PUSH1 0x60 DUP12 ADD MLOAD PUSH1 0x80 DUP14 ADD MSTORE PUSH1 0x80 DUP12 ADD MLOAD DUP13 PUSH1 0xA0 PUSH1 0x1F NOT DUP3 DUP6 SUB ADD SWAP2 ADD MSTORE PUSH2 0x1500 JUMP JUMPDEST PUSH1 0xA0 DUP11 ADD MLOAD DUP12 DUP3 SUB PUSH1 0x1F NOT ADD PUSH1 0xC0 DUP14 ADD MSTORE PUSH2 0x1500 JUMP JUMPDEST PUSH1 0xC0 DUP10 ADD MLOAD DUP11 DUP3 SUB PUSH1 0x1F NOT ADD PUSH1 0xE0 DUP13 ADD MSTORE PUSH2 0x1500 JUMP JUMPDEST PUSH1 0xE0 DUP9 ADD MLOAD DUP10 DUP3 SUB PUSH1 0x1F NOT ADD PUSH2 0x100 DUP12 ADD MSTORE PUSH2 0x1500 JUMP JUMPDEST PUSH2 0x100 DUP8 ADD MLOAD DUP9 DUP3 SUB PUSH1 0x1F NOT ADD PUSH2 0x120 DUP11 ADD MSTORE PUSH2 0x1500 JUMP JUMPDEST PUSH4 0xFFFFFFFF PUSH2 0x120 DUP8 ADD MLOAD AND PUSH2 0x140 DUP9 ADD MSTORE PUSH4 0xFFFFFFFF PUSH2 0x140 DUP8 ADD MLOAD AND PUSH2 0x160 DUP9 ADD MSTORE PUSH2 0x160 DUP7 ADD MLOAD PUSH1 0x1F NOT DUP9 DUP4 SUB ADD PUSH2 0x180 DUP10 ADD MSTORE PUSH2 0x1500 JUMP JUMPDEST PUSH2 0x180 DUP6 ADD MLOAD DUP7 DUP3 SUB PUSH1 0x1F NOT ADD PUSH2 0x1A0 DUP9 ADD MSTORE PUSH2 0x1500 JUMP JUMPDEST PUSH2 0x1A0 DUP5 ADD MLOAD DUP6 DUP3 SUB PUSH1 0x1F NOT ADD PUSH2 0x1C0 DUP8 ADD MSTORE PUSH2 0x1500 JUMP JUMPDEST PUSH2 0x1C0 DUP4 ADD MLOAD PUSH1 0x1 PUSH1 0x1 PUSH1 0xA0 SHL SUB AND DUP5 DUP4 ADD MSTORE SWAP2 ADD MLOAD PUSH2 0x200 DUP4 ADD MSTORE SUB SWAP1 RETURN JUMPDEST PUSH1 0x40 MLOAD PUSH3 0x461BCD PUSH1 0xE5 SHL DUP2 MSTORE PUSH1 0x20 PUSH1 0x4 DUP3 ADD MSTORE PUSH1 0x10 PUSH1 0x24 DUP3 ADD MSTORE PUSH16 0x105B9A5B585B081B9BDD08199BDD5B99 PUSH1 0x82 SHL PUSH1 0x44 DUP3 ADD MSTORE PUSH1 0x64 SWAP1 REVERT JUMPDEST CALLVALUE PUSH2 0x20A JUMPI PUSH2 0x1C0 CALLDATASIZE PUSH1 0x3 NOT ADD SLT PUSH2 0x20A JUMPI PUSH1 0x4 CALLDATALOAD PUSH1 0x24 CALLDATALOAD PUSH1 0x1 PUSH1 0x1 PUSH1 0x40 SHL SUB DUP2 GT PUSH2 0x20A JUMPI PUSH2 0x5EA SWAP1 CALLDATASIZE SWAP1 PUSH1 0x4 ADD PUSH2 0x14AA JUMP JUMPDEST SWAP1 PUSH1 0x44 CALLDATALOAD PUSH1 0x1 PUSH1 0x1 PUSH1 0x40 SHL SUB DUP2 GT PUSH2 0x20A JUMPI PUSH2 0x60A SWAP1 CALLDATASIZE SWAP1 PUSH1 0x4 ADD PUSH2 0x14AA JUMP JUMPDEST SWAP2 PUSH1 0x84 CALLDATALOAD PUSH1 0x1 PUSH1 0x1 PUSH1 0x40 SHL SUB DUP2 GT PUSH2 0x20A JUMPI PUSH2 0x62A SWAP1 CALLDATASIZE SWAP1 PUSH1 0x4 ADD PUSH2 0x14AA JUMP JUMPDEST PUSH1 0xA4 CALLDATALOAD PUSH1 0x1 PUSH1 0x1 PUSH1 0x40 SHL SUB DUP2 GT PUSH2 0x20A JUMPI PUSH2 0x649 SWAP1 CALLDATASIZE SWAP1 PUSH1 0x4 ADD PUSH2 0x14AA JUMP JUMPDEST SWAP1 PUSH1 0xC4 CALLDATALOAD PUSH1 0x1 PUSH1 0x1 PUSH1 0x40 SHL SUB DUP2 GT PUSH2 0x20A JUMPI PUSH2 0x669 SWAP1 CALLDATASIZE SWAP1 PUSH1 0x4 ADD PUSH2 0x14AA JUMP JUMPDEST PUSH1 0xE4 CALLDATALOAD PUSH1 0x1 PUSH1 0x1 PUSH1 0x40 SHL SUB DUP2 GT PUSH2 0x20A JUMPI PUSH2 0x688 SWAP1 CALLDATASIZE SWAP1 PUSH1 0x4 ADD PUSH2 0x14AA JUMP JUMPDEST PUSH2 0x104 CALLDATALOAD PUSH1 0x1 PUSH1 0x1 PUSH1 0x40 SHL SUB DUP2 GT PUSH2 0x20A JUMPI PUSH2 0x6A8 SWAP1 CALLDATASIZE SWAP1 PUSH1 0x4 ADD PUSH2 0x14AA JUMP JUMPDEST PUSH2 0x124 CALLDATALOAD PUSH4 0xFFFFFFFF DUP2 AND DUP1 SWAP2 SUB PUSH2 0x20A JUMPI PUSH2 0x144 CALLDATALOAD SWAP1 PUSH4 0xFFFFFFFF DUP3 AND DUP1 SWAP3 SUB PUSH2 0x20A JUMPI PUSH2 0x164 CALLDATALOAD PUSH1 0x1 PUSH1 0x1 PUSH1 0x40 SHL SUB DUP2 GT PUSH2 0x20A JUMPI PUSH2 0x6ED SWAP1 CALLDATASIZE SWAP1 PUSH1 0x4 ADD PUSH2 0x14AA JUMP JUMPDEST SWAP3 PUSH2 0x184 CALLDATALOAD PUSH1 0x1 PUSH1 0x1 PUSH1 0x40 SHL SUB DUP2 GT PUSH2 0x20A JUMPI PUSH2 0x70E SWAP1 CALLDATASIZE SWAP1 PUSH1 0x4 ADD PUSH2 0x14AA JUMP JUMPDEST SWAP5 PUSH2 0x1A4 CALLDATALOAD PUSH1 0x1 PUSH1 0x1 PUSH1 0x40 SHL SUB DUP2 GT PUSH2 0x20A JUMPI PUSH2 0x72F SWAP1 CALLDATASIZE SWAP1 PUSH1 0x4 ADD PUSH2 0x14AA JUMP JUMPDEST SWAP7 DUP12 PUSH1 0x0 MSTORE PUSH1 0x0 PUSH1 0x20 MSTORE PUSH1 0x40 PUSH1 0x0 KECCAK256 SLOAD PUSH2 0x141D JUMPI DUP13 SWAP10 PUSH1 0x40 MLOAD SWAP10 PUSH2 0x752 DUP12 PUSH2 0x146D JUMP JUMPDEST DUP14 DUP12 MSTORE PUSH1 0x20 DUP12 ADD SWAP12 DUP14 DUP14 MSTORE PUSH1 0x40 DUP13 ADD MSTORE PUSH1 0x64 CALLDATALOAD PUSH1 0x60 DUP13 ADD MSTORE PUSH1 0x80 DUP12 ADD MSTORE PUSH1 0xA0 DUP11 ADD MSTORE PUSH1 0xC0 DUP10 ADD MSTORE PUSH1 0xE0 DUP9 ADD MSTORE PUSH2 0x100 DUP8 ADD MSTORE PUSH2 0x120 DUP7 ADD MSTORE PUSH2 0x140 DUP6 ADD MSTORE PUSH2 0x160 DUP5 ADD MSTORE PUSH2 0x180 DUP4 ADD MSTORE PUSH2 0x1A0 DUP3 ADD MSTORE CALLER PUSH2 0x1C0 DUP3 ADD MSTORE TIMESTAMP PUSH2 0x1E0 DUP3 ADD MSTORE DUP4 PUSH1 0x0 MSTORE PUSH1 0x0 PUSH1 0x20 MSTORE PUSH1 0x40 PUSH1 0x0 KECCAK256 SWAP2 DUP2 MLOAD DUP4 SSTORE MLOAD DUP1 MLOAD SWAP1 PUSH1 0x1 PUSH1 0x1 PUSH1 0x40 SHL SUB DUP3 GT PUSH2 0xC53 JUMPI DUP2 SWAP1 PUSH2 0x7E4 PUSH1 0x1 DUP7 ADD SLOAD PUSH2 0x1572 JUMP JUMPDEST PUSH1 0x1F DUP2 GT PUSH2 0x13CA JUMPI JUMPDEST POP PUSH1 0x20 SWAP1 PUSH1 0x1F DUP4 GT PUSH1 0x1 EQ PUSH2 0x1359 JUMPI PUSH1 0x0 SWAP3 PUSH2 0x134E JUMPI JUMPDEST POP POP DUP2 PUSH1 0x1 SHL SWAP2 PUSH1 0x0 NOT SWAP1 PUSH1 0x3 SHL SHR NOT AND OR PUSH1 0x1 DUP4 ADD SSTORE JUMPDEST PUSH1 0x40 DUP2 ADD MLOAD DUP1 MLOAD SWAP1 PUSH1 0x1 PUSH1 0x1 PUSH1 0x40 SHL SUB DUP3 GT PUSH2 0xC53 JUMPI DUP2 SWAP1 PUSH2 0x841 PUSH1 0x2 DUP7 ADD SLOAD PUSH2 0x1572 JUMP JUMPDEST PUSH1 0x1F DUP2 GT PUSH2 0x12FB JUMPI JUMPDEST POP PUSH1 0x20 SWAP1 PUSH1 0x1F DUP4 GT PUSH1 0x1 EQ PUSH2 0x128A JUMPI PUSH1 0x0 SWAP3 PUSH2 0x127F JUMPI JUMPDEST POP POP DUP2 PUSH1 0x1 SHL SWAP2 PUSH1 0x0 NOT SWAP1 PUSH1 0x3 SHL SHR NOT AND OR PUSH1 0x2 DUP4 ADD SSTORE JUMPDEST PUSH1 0x60 DUP2 ADD MLOAD PUSH1 0x3 DUP4 ADD SSTORE PUSH1 0x4 DUP3 ADD PUSH1 0x80 DUP3 ADD MLOAD DUP1 MLOAD SWAP1 PUSH1 0x1 PUSH1 0x1 PUSH1 0x40 SHL SUB DUP3 GT PUSH2 0xC53 JUMPI DUP2 SWAP1 PUSH2 0x8A9 DUP5 SLOAD PUSH2 0x1572 JUMP JUMPDEST PUSH1 0x1F DUP2 GT PUSH2 0x122C JUMPI JUMPDEST POP PUSH1 0x20 SWAP1 PUSH1 0x1F DUP4 GT PUSH1 0x1 EQ PUSH2 0x11C7 JUMPI PUSH1 0x0 SWAP3 PUSH2 0x11BC JUMPI JUMPDEST POP POP DUP2 PUSH1 0x1 SHL SWAP2 PUSH1 0x0 NOT SWAP1 PUSH1 0x3 SHL SHR NOT AND OR SWAP1 SSTORE JUMPDEST PUSH1 0x5 DUP3 ADD PUSH1 0xA0 DUP3 ADD MLOAD DUP1 MLOAD SWAP1 PUSH1 0x1 PUSH1 0x1 PUSH1 0x40 SHL SUB DUP3 GT PUSH2 0xC53 JUMPI DUP2 SWAP1 PUSH2 0x904 DUP5 SLOAD PUSH2 0x1572 JUMP JUMPDEST PUSH1 0x1F DUP2 GT PUSH2 0x1169 JUMPI JUMPDEST POP PUSH1 0x20 SWAP1 PUSH1 0x1F DUP4 GT PUSH1 0x1 EQ PUSH2 0x1104 JUMPI PUSH1 0x0 SWAP3 PUSH2 0x10F9 JUMPI JUMPDEST POP POP DUP2 PUSH1 0x1 SHL SWAP2 PUSH1 0x0 NOT SWAP1 PUSH1 0x3 SHL SHR NOT AND OR SWAP1 SSTORE JUMPDEST PUSH1 0x6 DUP3 ADD PUSH1 0xC0 DUP3 ADD MLOAD DUP1 MLOAD SWAP1 PUSH1 0x1 PUSH1 0x1 PUSH1 0x40 SHL SUB DUP3 GT PUSH2 0xC53 JUMPI DUP2 SWAP1 PUSH2 0x95F DUP5 SLOAD PUSH2 0x1572 JUMP JUMPDEST PUSH1 0x1F DUP2 GT PUSH2 0x10A6 JUMPI JUMPDEST POP PUSH1 0x20 SWAP1 PUSH1 0x1F DUP4 GT PUSH1 0x1 EQ PUSH2 0x1041 JUMPI PUSH1 0x0 SWAP3 PUSH2 0x1036 JUMPI JUMPDEST POP POP DUP2 PUSH1 0x1 SHL SWAP2 PUSH1 0x0 NOT SWAP1 PUSH1 0x3 SHL SHR NOT AND OR SWAP1 SSTORE JUMPDEST PUSH1 0x7 DUP3 ADD PUSH1 0xE0 DUP3 ADD MLOAD DUP1 MLOAD SWAP1 PUSH1 0x1 PUSH1 0x1 PUSH1 0x40 SHL SUB DUP3 GT PUSH2 0xC53 JUMPI DUP2 SWAP1 PUSH2 0x9BA DUP5 SLOAD PUSH2 0x1572 JUMP JUMPDEST PUSH1 0x1F DUP2 GT PUSH2 0xFE3 JUMPI JUMPDEST POP PUSH1 0x20 SWAP1 PUSH1 0x1F DUP4 GT PUSH1 0x1 EQ PUSH2 0xF7E JUMPI PUSH1 0x0 SWAP3 PUSH2 0xF73 JUMPI JUMPDEST POP POP DUP2 PUSH1 0x1 SHL SWAP2 PUSH1 0x0 NOT SWAP1 PUSH1 0x3 SHL SHR NOT AND OR SWAP1 SSTORE JUMPDEST PUSH1 0x8 DUP3 ADD PUSH2 0x100 DUP3 ADD MLOAD DUP1 MLOAD SWAP1 PUSH1 0x1 PUSH1 0x1 PUSH1 0x40 SHL SUB DUP3 GT PUSH2 0xC53 JUMPI DUP2 SWAP1 PUSH2 0xA16 DUP5 SLOAD PUSH2 0x1572 JUMP JUMPDEST PUSH1 0x1F DUP2 GT PUSH2 0xF20 JUMPI JUMPDEST POP PUSH1 0x20 SWAP1 PUSH1 0x1F DUP4 GT PUSH1 0x1 EQ PUSH2 0xEBB JUMPI PUSH1 0x0 SWAP3 PUSH2 0xEB0 JUMPI JUMPDEST POP POP DUP2 PUSH1 0x1 SHL SWAP2 PUSH1 0x0 NOT SWAP1 PUSH1 0x3 SHL SHR NOT AND OR SWAP1 SSTORE JUMPDEST PUSH1 0x9 DUP3 ADD PUSH4 0xFFFFFFFF PUSH2 0x120 DUP4 ADD MLOAD AND DUP2 SLOAD SWAP1 PUSH8 0xFFFFFFFF00000000 PUSH2 0x140 DUP6 ADD MLOAD PUSH1 0x20 SHL AND SWAP2 PUSH1 0x1 PUSH1 0x1 PUSH1 0x40 SHL SUB NOT AND OR OR SWAP1 SSTORE PUSH1 0xA DUP3 ADD PUSH2 0x160 DUP3 ADD MLOAD DUP1 MLOAD SWAP1 PUSH1 0x1 PUSH1 0x1 PUSH1 0x40 SHL SUB DUP3 GT PUSH2 0xC53 JUMPI DUP2 SWAP1 PUSH2 0xAA7 DUP5 SLOAD PUSH2 0x1572 JUMP JUMPDEST PUSH1 0x1F DUP2 GT PUSH2 0xE5D JUMPI JUMPDEST POP PUSH1 0x20 SWAP1 PUSH1 0x1F DUP4 GT PUSH1 0x1 EQ PUSH2 0xDF8 JUMPI PUSH1 0x0 SWAP3 PUSH2 0xDED JUMPI JUMPDEST POP POP DUP2 PUSH1 0x1 SHL SWAP2 PUSH1 0x0 NOT SWAP1 PUSH1 0x3 SHL SHR NOT AND OR SWAP1 SSTORE JUMPDEST PUSH1 0xB DUP3 ADD PUSH2 0x180 DUP3 ADD MLOAD DUP1 MLOAD SWAP1 PUSH1 0x1 PUSH1 0x1 PUSH1 0x40 SHL SUB DUP3 GT PUSH2 0xC53 JUMPI DUP2 SWAP1 PUSH2 0xB03 DUP5 SLOAD PUSH2 0x1572 JUMP JUMPDEST PUSH1 0x1F DUP2 GT PUSH2 0xD9A JUMPI JUMPDEST POP PUSH1 0x20 SWAP1 PUSH1 0x1F DUP4 GT PUSH1 0x1 EQ PUSH2 0xD35 JUMPI PUSH1 0x0 SWAP3 PUSH2 0xD2A JUMPI JUMPDEST POP POP DUP2 PUSH1 0x1 SHL SWAP2 PUSH1 0x0 NOT SWAP1 PUSH1 0x3 SHL SHR NOT AND OR SWAP1 SSTORE JUMPDEST PUSH1 0xC DUP3 ADD PUSH2 0x1A0 DUP3 ADD MLOAD DUP1 MLOAD SWAP1 PUSH1 0x1 PUSH1 0x1 PUSH1 0x40 SHL SUB DUP3 GT PUSH2 0xC53 JUMPI PUSH2 0xB5D DUP4 SLOAD PUSH2 0x1572 JUMP JUMPDEST PUSH1 0x1F DUP2 GT PUSH2 0xCE2 JUMPI JUMPDEST POP PUSH1 0x20 SWAP1 PUSH1 0x1F DUP4 GT PUSH1 0x1 EQ PUSH2 0xC74 JUMPI SWAP2 DUP1 PUSH2 0x1E0 SWAP5 SWAP3 PUSH1 0xE SWAP7 SWAP5 PUSH1 0x0 SWAP3 PUSH2 0xC69 JUMPI JUMPDEST POP POP DUP2 PUSH1 0x1 SHL SWAP2 PUSH1 0x0 NOT SWAP1 PUSH1 0x3 SHL SHR NOT AND OR SWAP1 SSTORE JUMPDEST PUSH1 0xD DUP5 ADD PUSH1 0x1 DUP1 PUSH1 0xA0 SHL SUB PUSH2 0x1C0 DUP4 ADD MLOAD AND PUSH12 0xFFFFFFFFFFFFFFFFFFFFFFFF PUSH1 0xA0 SHL DUP3 SLOAD AND OR SWAP1 SSTORE ADD MLOAD SWAP2 ADD SSTORE PUSH1 0x1 SLOAD PUSH9 0x10000000000000000 DUP2 LT ISZERO PUSH2 0xC53 JUMPI PUSH32 0xBEC88F0688FFBE1EB884C48E22DA13A44B912444F86AC435675A95F23A07DEEF SWAP2 PUSH2 0xC13 DUP3 PUSH1 0x1 PUSH2 0xC3F SWAP5 ADD PUSH1 0x1 SSTORE PUSH2 0x1541 JUMP JUMPDEST DUP2 SLOAD SWAP1 PUSH1 0x3 SHL SWAP1 DUP7 DUP3 SHL SWAP2 PUSH1 0x0 NOT SWAP1 SHL NOT AND OR SWAP1 SSTORE PUSH2 0xC4E PUSH1 0x40 MLOAD SWAP3 DUP4 SWAP3 PUSH1 0x40 DUP5 MSTORE PUSH1 0x40 DUP5 ADD SWAP1 PUSH2 0x1500 JUMP JUMPDEST DUP3 DUP2 SUB PUSH1 0x20 DUP5 ADD MSTORE CALLER SWAP7 PUSH2 0x1500 JUMP JUMPDEST SUB SWAP1 LOG3 STOP JUMPDEST PUSH4 0x4E487B71 PUSH1 0xE0 SHL PUSH1 0x0 MSTORE PUSH1 0x41 PUSH1 0x4 MSTORE PUSH1 0x24 PUSH1 0x0 REVERT JUMPDEST ADD MLOAD SWAP1 POP DUP11 DUP1 PUSH2 0xB88 JUMP JUMPDEST SWAP1 PUSH1 0x1F NOT DUP4 AND SWAP2 DUP5 PUSH1 0x0 MSTORE DUP2 PUSH1 0x0 KECCAK256 SWAP3 PUSH1 0x0 JUMPDEST DUP2 DUP2 LT PUSH2 0xCCA JUMPI POP SWAP3 PUSH1 0x1 SWAP3 DUP6 SWAP3 PUSH1 0xE SWAP9 SWAP7 PUSH2 0x1E0 SWAP9 SWAP7 LT PUSH2 0xCB1 JUMPI JUMPDEST POP POP POP DUP2 SHL ADD SWAP1 SSTORE PUSH2 0xB9D JUMP JUMPDEST ADD MLOAD PUSH1 0x0 NOT PUSH1 0xF8 DUP5 PUSH1 0x3 SHL AND SHR NOT AND SWAP1 SSTORE DUP11 DUP1 DUP1 PUSH2 0xCA4 JUMP JUMPDEST SWAP3 SWAP4 PUSH1 0x20 PUSH1 0x1 DUP2 SWAP3 DUP8 DUP7 ADD MLOAD DUP2 SSTORE ADD SWAP6 ADD SWAP4 ADD PUSH2 0xC87 JUMP JUMPDEST DUP4 PUSH1 0x0 MSTORE PUSH1 0x20 PUSH1 0x0 KECCAK256 PUSH1 0x1F DUP5 ADD PUSH1 0x5 SHR DUP2 ADD SWAP2 PUSH1 0x20 DUP6 LT PUSH2 0xD20 JUMPI JUMPDEST PUSH1 0x1F ADD PUSH1 0x5 SHR ADD SWAP1 JUMPDEST DUP2 DUP2 LT PUSH2 0xD14 JUMPI POP PUSH2 0xB66 JUMP JUMPDEST PUSH1 0x0 DUP2 SSTORE PUSH1 0x1 ADD PUSH2 0xD07 JUMP JUMPDEST SWAP1 SWAP2 POP DUP2 SWAP1 PUSH2 0xCFE JUMP JUMPDEST ADD MLOAD SWAP1 POP DUP9 DUP1 PUSH2 0xB23 JUMP JUMPDEST PUSH1 0x0 DUP6 DUP2 MSTORE DUP3 DUP2 KECCAK256 SWAP4 POP PUSH1 0x1F NOT DUP6 AND SWAP1 JUMPDEST DUP2 DUP2 LT PUSH2 0xD82 JUMPI POP SWAP1 DUP5 PUSH1 0x1 SWAP6 SWAP5 SWAP4 SWAP3 LT PUSH2 0xD69 JUMPI JUMPDEST POP POP POP DUP2 SHL ADD SWAP1 SSTORE PUSH2 0xB38 JUMP JUMPDEST ADD MLOAD PUSH1 0x0 NOT PUSH1 0xF8 DUP5 PUSH1 0x3 SHL AND SHR NOT AND SWAP1 SSTORE DUP9 DUP1 DUP1 PUSH2 0xD5C JUMP JUMPDEST SWAP3 SWAP4 PUSH1 0x20 PUSH1 0x1 DUP2 SWAP3 DUP8 DUP7 ADD MLOAD DUP2 SSTORE ADD SWAP6 ADD SWAP4 ADD PUSH2 0xD46 JUMP JUMPDEST SWAP1 SWAP2 POP DUP4 PUSH1 0x0 MSTORE PUSH1 0x20 PUSH1 0x0 KECCAK256 PUSH1 0x1F DUP5 ADD PUSH1 0x5 SHR DUP2 ADD SWAP2 PUSH1 0x20 DUP6 LT PUSH2 0xDE3 JUMPI JUMPDEST SWAP1 PUSH1 0x1F DUP6 SWAP5 SWAP4 SWAP3 ADD PUSH1 0x5 SHR ADD SWAP1 JUMPDEST DUP2 DUP2 LT PUSH2 0xDD4 JUMPI POP PUSH2 0xB0C JUMP JUMPDEST PUSH1 0x0 DUP2 SSTORE DUP5 SWAP4 POP PUSH1 0x1 ADD PUSH2 0xDC7 JUMP JUMPDEST SWAP1 SWAP2 POP DUP2 SWAP1 PUSH2 0xDB9 JUMP JUMPDEST ADD MLOAD SWAP1 POP DUP9 DUP1 PUSH2 0xAC7 JUMP JUMPDEST PUSH1 0x0 DUP6 DUP2 MSTORE DUP3 DUP2 KECCAK256 SWAP4 POP PUSH1 0x1F NOT DUP6 AND SWAP1 JUMPDEST DUP2 DUP2 LT PUSH2 0xE45 JUMPI POP SWAP1 DUP5 PUSH1 0x1 SWAP6 SWAP5 SWAP4 SWAP3 LT PUSH2 0xE2C JUMPI JUMPDEST POP POP POP DUP2 SHL ADD SWAP1 SSTORE PUSH2 0xADC JUMP JUMPDEST ADD MLOAD PUSH1 0x0 NOT PUSH1 0xF8 DUP5 PUSH1 0x3 SHL AND SHR NOT AND SWAP1 SSTORE DUP9 DUP1 DUP1 PUSH2 0xE1F JUMP JUMPDEST SWAP3 SWAP4 PUSH1 0x20 PUSH1 0x1 DUP2 SWAP3 DUP8 DUP7 ADD MLOAD DUP2 SSTORE ADD SWAP6 ADD SWAP4 ADD PUSH2 0xE09 JUMP JUMPDEST SWAP1 SWAP2 POP DUP4 PUSH1 0x0 MSTORE PUSH1 0x20 PUSH1 0x0 KECCAK256 PUSH1 0x1F DUP5 ADD PUSH1 0x5 SHR DUP2 ADD SWAP2 PUSH1 0x20 DUP6 LT PUSH2 0xEA6 JUMPI JUMPDEST SWAP1 PUSH1 0x1F DUP6 SWAP5 SWAP4 SWAP3 ADD PUSH1 0x5 SHR ADD SWAP1 JUMPDEST DUP2 DUP2 LT PUSH2 0xE97 JUMPI POP PUSH2 0xAB0 JUMP JUMPDEST PUSH1 0x0 DUP2 SSTORE DUP5 SWAP4 POP PUSH1 0x1 ADD PUSH2 0xE8A JUMP JUMPDEST SWAP1 SWAP2 POP DUP2 SWAP1 PUSH2 0xE7C JUMP JUMPDEST ADD MLOAD SWAP1 POP DUP9 DUP1 PUSH2 0xA36 JUMP JUMPDEST PUSH1 0x0 DUP6 DUP2 MSTORE DUP3 DUP2 KECCAK256 SWAP4 POP PUSH1 0x1F NOT DUP6 AND SWAP1 JUMPDEST DUP2 DUP2 LT PUSH2 0xF08 JUMPI POP SWAP1 DUP5 PUSH1 0x1 SWAP6 SWAP5 SWAP4 SWAP3 LT PUSH2 0xEEF JUMPI JUMPDEST POP POP POP DUP2 SHL ADD SWAP1 SSTORE PUSH2 0xA4B JUMP JUMPDEST ADD MLOAD PUSH1 0x0 NOT PUSH1 0xF8 DUP5 PUSH1 0x3 SHL AND SHR NOT AND SWAP1 SSTORE DUP9 DUP1 DUP1 PUSH2 0xEE2 JUMP JUMPDEST SWAP3 SWAP4 PUSH1 0x20 PUSH1 0x1 DUP2 SWAP3 DUP8 DUP7 ADD MLOAD DUP2 SSTORE ADD SWAP6 ADD SWAP4 ADD PUSH2 0xECC JUMP JUMPDEST SWAP1 SWAP2 POP DUP4 PUSH1 0x0 MSTORE PUSH1 0x20 PUSH1 0x0 KECCAK256 PUSH1 0x1F DUP5 ADD PUSH1 0x5 SHR DUP2 ADD SWAP2 PUSH1 0x20 DUP6 LT PUSH2 0xF69 JUMPI JUMPDEST SWAP1 PUSH1 0x1F DUP6 SWAP5 SWAP4 SWAP3 ADD PUSH1 0x5 SHR ADD SWAP1 JUMPDEST DUP2 DUP2 LT PUSH2 0xF5A JUMPI POP PUSH2 0xA1F JUMP JUMPDEST PUSH1 0x0 DUP2 SSTORE DUP5 SWAP4 POP PUSH1 0x1 ADD PUSH2 0xF4D JUMP JUMPDEST SWAP1 SWAP2 POP DUP2 SWAP1 PUSH2 0xF3F JUMP JUMPDEST ADD MLOAD SWAP1 POP DUP9 DUP1 PUSH2 0x9DA JUMP JUMPDEST PUSH1 0x0 DUP6 DUP2 MSTORE DUP3 DUP2 KECCAK256 SWAP4 POP PUSH1 0x1F NOT DUP6 AND SWAP1 JUMPDEST DUP2 DUP2 LT PUSH2 0xFCB JUMPI POP SWAP1 DUP5 PUSH1 0x1 SWAP6 SWAP5 SWAP4 SWAP3 LT PUSH2 0xFB2 JUMPI JUMPDEST POP POP POP DUP2 SHL ADD SWAP1 SSTORE PUSH2 0x9EF JUMP JUMPDEST ADD MLOAD PUSH1 0x0 NOT PUSH1 0xF8 DUP5 PUSH1 0x3 SHL AND SHR NOT AND SWAP1 SSTORE DUP9 DUP1 DUP1 PUSH2 0xFA5 JUMP JUMPDEST SWAP3 SWAP4 PUSH1 0x20 PUSH1 0x1 DUP2 SWAP3 DUP8 DUP7 ADD MLOAD DUP2 SSTORE ADD SWAP6 ADD SWAP4 ADD PUSH2 0xF8F JUMP JUMPDEST SWAP1 SWAP2 POP DUP4 PUSH1 0x0 MSTORE PUSH1 0x20 PUSH1 0x0 KECCAK256 PUSH1 0x1F DUP5 ADD PUSH1 0x5 SHR DUP2 ADD SWAP2 PUSH1 0x20 DUP6 LT PUSH2 0x102C JUMPI JUMPDEST SWAP1 PUSH1 0x1F DUP6 SWAP5 SWAP4 SWAP3 ADD PUSH1 0x5 SHR ADD SWAP1 JUMPDEST DUP2 DUP2 LT PUSH2 0x101D JUMPI POP PUSH2 0x9C3 JUMP JUMPDEST PUSH1 0x0 DUP2 SSTORE DUP5 SWAP4 POP PUSH1 0x1 ADD PUSH2 0x1010 JUMP JUMPDEST SWAP1 SWAP2 POP DUP2 SWAP1 PUSH2 0x1002 JUMP JUMPDEST ADD MLOAD SWAP1 POP DUP9 DUP1 PUSH2 0x97F JUMP JUMPDEST PUSH1 0x0 DUP6 DUP2 MSTORE DUP3 DUP2 KECCAK256 SWAP4 POP PUSH1 0x1F NOT DUP6 AND SWAP1 JUMPDEST DUP2 DUP2 LT PUSH2 0x108E JUMPI POP SWAP1 DUP5 PUSH1 0x1 SWAP6 SWAP5 SWAP4 SWAP3 LT PUSH2 0x1075 JUMPI JUMPDEST POP POP POP DUP2 SHL ADD SWAP1 SSTORE PUSH2 0x994 JUMP JUMPDEST ADD MLOAD PUSH1 0x0 NOT PUSH1 0xF8 DUP5 PUSH1 0x3 SHL AND SHR NOT AND SWAP1 SSTORE DUP9 DUP1 DUP1 PUSH2 0x1068 JUMP JUMPDEST SWAP3 SWAP4 PUSH1 0x20 PUSH1 0x1 DUP2 SWAP3 DUP8 DUP7 ADD MLOAD DUP2 SSTORE ADD SWAP6 ADD SWAP4 ADD PUSH2 0x1052 JUMP JUMPDEST SWAP1 SWAP2 POP DUP4 PUSH1 0x0 MSTORE PUSH1 0x20 PUSH1 0x0 KECCAK256 PUSH1 0x1F DUP5 ADD PUSH1 0x5 SHR DUP2 ADD SWAP2 PUSH1 0x20 DUP6 LT PUSH2 0x10EF JUMPI JUMPDEST SWAP1 PUSH1 0x1F DUP6 SWAP5 SWAP4 SWAP3 ADD PUSH1 0x5 SHR ADD SWAP1 JUMPDEST DUP2 DUP2 LT PUSH2 0x10E0 JUMPI POP PUSH2 0x968 JUMP JUMPDEST PUSH1 0x0 DUP2 SSTORE DUP5 SWAP4 POP PUSH1 0x1 ADD PUSH2 0x10D3 JUMP JUMPDEST SWAP1 SWAP2 POP DUP2 SWAP1 PUSH2 0x10C5 JUMP JUMPDEST ADD MLOAD SWAP1 POP DUP9 DUP1 PUSH2 0x924 JUMP JUMPDEST PUSH1 0x0 DUP6 DUP2 MSTORE DUP3 DUP2 KECCAK256 SWAP4 POP PUSH1 0x1F NOT DUP6 AND SWAP1 JUMPDEST DUP2 DUP2 LT PUSH2 0x1151 JUMPI POP SWAP1 DUP5 PUSH1 0x1 SWAP6 SWAP5 SWAP4 SWAP3 LT PUSH2 0x1138 JUMPI JUMPDEST POP POP POP DUP2 SHL ADD SWAP1 SSTORE PUSH2 0x939 JUMP JUMPDEST ADD MLOAD PUSH1 0x0 NOT PUSH1 0xF8 DUP5 PUSH1 0x3 SHL AND SHR NOT AND SWAP1 SSTORE DUP9 DUP1 DUP1 PUSH2 0x112B JUMP JUMPDEST SWAP3 SWAP4 PUSH1 0x20 PUSH1 0x1 DUP2 SWAP3 DUP8 DUP7 ADD MLOAD DUP2 SSTORE ADD SWAP6 ADD SWAP4 ADD PUSH2 0x1115 JUMP JUMPDEST SWAP1 SWAP2 POP DUP4 PUSH1 0x0 MSTORE PUSH1 0x20 PUSH1 0x0 KECCAK256 PUSH1 0x1F DUP5 ADD PUSH1 0x5 SHR DUP2 ADD SWAP2 PUSH1 0x20 DUP6 LT PUSH2 0x11B2 JUMPI JUMPDEST SWAP1 PUSH1 0x1F DUP6 SWAP5 SWAP4 SWAP3 ADD PUSH1 0x5 SHR ADD SWAP1 JUMPDEST DUP2 DUP2 LT PUSH2 0x11A3 JUMPI POP PUSH2 0x90D JUMP JUMPDEST PUSH1 0x0 DUP2 SSTORE DUP5 SWAP4 POP PUSH1 0x1 ADD PUSH2 0x1196 JUMP JUMPDEST SWAP1 SWAP2 POP DUP2 SWAP1 PUSH2 0x1188 JUMP JUMPDEST ADD MLOAD SWAP1 POP DUP9 DUP1 PUSH2 0x8C9 JUMP JUMPDEST PUSH1 0x0 DUP6 DUP2 MSTORE DUP3 DUP2 KECCAK256 SWAP4 POP PUSH1 0x1F NOT DUP6 AND SWAP1 JUMPDEST DUP2 DUP2 LT PUSH2 0x1214 JUMPI POP SWAP1 DUP5 PUSH1 0x1 SWAP6 SWAP5 SWAP4 SWAP3 LT PUSH2 0x11FB JUMPI JUMPDEST POP POP POP DUP2 SHL ADD SWAP1 SSTORE PUSH2 0x8DE JUMP JUMPDEST ADD MLOAD PUSH1 0x0 NOT PUSH1 0xF8 DUP5 PUSH1 0x3 SHL AND SHR NOT AND SWAP1 SSTORE DUP9 DUP1 DUP1 PUSH2 0x11EE JUMP JUMPDEST SWAP3 SWAP4 PUSH1 0x20 PUSH1 0x1 DUP2 SWAP3 DUP8 DUP7 ADD MLOAD DUP2 SSTORE ADD SWAP6 ADD SWAP4 ADD PUSH2 0x11D8 JUMP JUMPDEST SWAP1 SWAP2 POP DUP4 PUSH1 0x0 MSTORE PUSH1 0x20 PUSH1 0x0 KECCAK256 PUSH1 0x1F DUP5 ADD PUSH1 0x5 SHR DUP2 ADD SWAP2 PUSH1 0x20 DUP6 LT PUSH2 0x1275 JUMPI JUMPDEST SWAP1 PUSH1 0x1F DUP6 SWAP5 SWAP4 SWAP3 ADD PUSH1 0x5 SHR ADD SWAP1 JUMPDEST DUP2 DUP2 LT PUSH2 0x1266 JUMPI POP PUSH2 0x8B2 JUMP JUMPDEST PUSH1 0x0 DUP2 SSTORE DUP5 SWAP4 POP PUSH1 0x1 ADD PUSH2 0x1259 JUMP JUMPDEST SWAP1 SWAP2 POP DUP2 SWAP1 PUSH2 0x124B JUMP JUMPDEST ADD MLOAD SWAP1 POP DUP8 DUP1 PUSH2 0x861 JUMP JUMPDEST SWAP3 POP PUSH1 0x2 DUP6 ADD PUSH1 0x0 MSTORE DUP1 PUSH1 0x0 KECCAK256 SWAP1 PUSH1 0x0 SWAP4 JUMPDEST PUSH1 0x1F NOT DUP5 AND DUP6 LT PUSH2 0x12E0 JUMPI PUSH1 0x1 SWAP5 POP DUP4 PUSH1 0x1F NOT DUP2 AND LT PUSH2 0x12C7 JUMPI JUMPDEST POP POP POP DUP2 SHL ADD PUSH1 0x2 DUP4 ADD SSTORE PUSH2 0x879 JUMP JUMPDEST ADD MLOAD PUSH1 0x0 NOT PUSH1 0xF8 DUP5 PUSH1 0x3 SHL AND SHR NOT AND SWAP1 SSTORE DUP8 DUP1 DUP1 PUSH2 0x12B7 JUMP JUMPDEST DUP2 DUP2 ADD MLOAD DUP4 SSTORE PUSH1 0x20 SWAP5 DUP6 ADD SWAP5 PUSH1 0x1 SWAP1 SWAP4 ADD SWAP3 SWAP1 SWAP2 ADD SWAP1 PUSH2 0x129C JUMP JUMPDEST SWAP1 SWAP2 POP PUSH1 0x2 DUP6 ADD PUSH1 0x0 MSTORE PUSH1 0x20 PUSH1 0x0 KECCAK256 PUSH1 0x1F DUP5 ADD PUSH1 0x5 SHR DUP2 ADD PUSH1 0x20 DUP6 LT PUSH2 0x1347 JUMPI JUMPDEST SWAP1 DUP5 SWAP4 SWAP3 SWAP2 JUMPDEST PUSH1 0x1F DUP4 ADD PUSH1 0x5 SHR DUP3 ADD DUP2 LT PUSH2 0x1338 JUMPI POP POP PUSH2 0x84A JUMP JUMPDEST PUSH1 0x0 DUP2 SSTORE DUP6 SWAP5 POP PUSH1 0x1 ADD PUSH2 0x1322 JUMP JUMPDEST POP DUP1 PUSH2 0x131C JUMP JUMPDEST ADD MLOAD SWAP1 POP DUP8 DUP1 PUSH2 0x804 JUMP JUMPDEST SWAP3 POP PUSH1 0x1 DUP6 ADD PUSH1 0x0 MSTORE DUP1 PUSH1 0x0 KECCAK256 SWAP1 PUSH1 0x0 SWAP4 JUMPDEST PUSH1 0x1F NOT DUP5 AND DUP6 LT PUSH2 0x13AF JUMPI PUSH1 0x1 SWAP5 POP DUP4 PUSH1 0x1F NOT DUP2 AND LT PUSH2 0x1396 JUMPI JUMPDEST POP POP POP DUP2 SHL ADD PUSH1 0x1 DUP4 ADD SSTORE PUSH2 0x81C JUMP JUMPDEST ADD MLOAD PUSH1 0x0 NOT PUSH1 0xF8 DUP5 PUSH1 0x3 SHL AND SHR NOT AND SWAP1 SSTORE DUP8 DUP1 DUP1 PUSH2 0x1386 JUMP JUMPDEST DUP2 DUP2 ADD MLOAD DUP4 SSTORE PUSH1 0x20 SWAP5 DUP6 ADD SWAP5 PUSH1 0x1 SWAP1 SWAP4 ADD SWAP3 SWAP1 SWAP2 ADD SWAP1 PUSH2 0x136B JUMP JUMPDEST SWAP1 SWAP2 POP PUSH1 0x1 DUP6 ADD PUSH1 0x0 MSTORE PUSH1 0x20 PUSH1 0x0 KECCAK256 PUSH1 0x1F DUP5 ADD PUSH1 0x5 SHR DUP2 ADD PUSH1 0x20 DUP6 LT PUSH2 0x1416 JUMPI JUMPDEST SWAP1 DUP5 SWAP4 SWAP3 SWAP2 JUMPDEST PUSH1 0x1F DUP4 ADD PUSH1 0x5 SHR DUP3 ADD DUP2 LT PUSH2 0x1407 JUMPI POP POP PUSH2 0x7ED JUMP JUMPDEST PUSH1 0x0 DUP2 SSTORE DUP6 SWAP5 POP PUSH1 0x1 ADD PUSH2 0x13F1 JUMP JUMPDEST POP DUP1 PUSH2 0x13EB JUMP JUMPDEST PUSH1 0x40 MLOAD PUSH3 0x461BCD PUSH1 0xE5 SHL DUP2 MSTORE PUSH1 0x20 PUSH1 0x4 DUP3 ADD MSTORE PUSH1 0x22 PUSH1 0x24 DUP3 ADD MSTORE PUSH32 0x416E696D616C2077697468207468697320494420616C72656164792065786973 PUSH1 0x44 DUP3 ADD MSTORE PUSH2 0x7473 PUSH1 0xF0 SHL PUSH1 0x64 DUP3 ADD MSTORE PUSH1 0x84 SWAP1 REVERT JUMPDEST PUSH2 0x200 DUP2 ADD SWAP1 DUP2 LT PUSH1 0x1 PUSH1 0x1 PUSH1 0x40 SHL SUB DUP3 GT OR PUSH2 0xC53 JUMPI PUSH1 0x40 MSTORE JUMP JUMPDEST SWAP1 PUSH1 0x1F DUP1 NOT SWAP2 ADD AND DUP2 ADD SWAP1 DUP2 LT PUSH1 0x1 PUSH1 0x1 PUSH1 0x40 SHL SUB DUP3 GT OR PUSH2 0xC53 JUMPI PUSH1 0x40 MSTORE JUMP JUMPDEST DUP2 PUSH1 0x1F DUP3 ADD SLT ISZERO PUSH2 0x20A JUMPI DUP1 CALLDATALOAD SWAP1 PUSH1 0x1 PUSH1 0x1 PUSH1 0x40 SHL SUB DUP3 GT PUSH2 0xC53 JUMPI PUSH1 0x40 MLOAD SWAP3 PUSH2 0x14DE PUSH1 0x1F DUP5 ADD PUSH1 0x1F NOT AND PUSH1 0x20 ADD DUP6 PUSH2 0x1489 JUMP JUMPDEST DUP3 DUP5 MSTORE PUSH1 0x20 DUP4 DUP4 ADD ADD GT PUSH2 0x20A JUMPI DUP2 PUSH1 0x0 SWAP3 PUSH1 0x20 DUP1 SWAP4 ADD DUP4 DUP7 ADD CALLDATACOPY DUP4 ADD ADD MSTORE SWAP1 JUMP JUMPDEST SWAP2 SWAP1 DUP3 MLOAD SWAP3 DUP4 DUP3 MSTORE PUSH1 0x0 JUMPDEST DUP5 DUP2 LT PUSH2 0x152C JUMPI POP POP DUP3 PUSH1 0x0 PUSH1 0x20 DUP1 SWAP5 SWAP6 DUP5 ADD ADD MSTORE PUSH1 0x1F DUP1 NOT SWAP2 ADD AND ADD ADD SWAP1 JUMP JUMPDEST DUP1 PUSH1 0x20 DUP1 SWAP3 DUP5 ADD ADD MLOAD DUP3 DUP3 DUP7 ADD ADD MSTORE ADD PUSH2 0x150B JUMP JUMPDEST PUSH1 0x1 SLOAD DUP2 LT ISZERO PUSH2 0x155C JUMPI PUSH1 0x1 PUSH1 0x0 MSTORE PUSH1 0x20 PUSH1 0x0 KECCAK256 ADD SWAP1 PUSH1 0x0 SWAP1 JUMP JUMPDEST PUSH4 0x4E487B71 PUSH1 0xE0 SHL PUSH1 0x0 MSTORE PUSH1 0x32 PUSH1 0x4 MSTORE PUSH1 0x24 PUSH1 0x0 REVERT JUMPDEST SWAP1 PUSH1 0x1 DUP3 DUP2 SHR SWAP3 AND DUP1 ISZERO PUSH2 0x15A2 JUMPI JUMPDEST PUSH1 0x20 DUP4 LT EQ PUSH2 0x158C JUMPI JUMP JUMPDEST PUSH4 0x4E487B71 PUSH1 0xE0 SHL PUSH1 0x0 MSTORE PUSH1 0x22 PUSH1 0x4 MSTORE PUSH1 0x24 PUSH1 0x0 REVERT JUMPDEST SWAP2 PUSH1 0x7F AND SWAP2 PUSH2 0x1581 JUMP JUMPDEST SWAP1 PUSH1 0x40 MLOAD SWAP2 DUP3 PUSH1 0x0 DUP3 SLOAD SWAP3 PUSH2 0x15C0 DUP5 PUSH2 0x1572 JUMP JUMPDEST DUP1 DUP5 MSTORE SWAP4 PUSH1 0x1 DUP2 AND SWAP1 DUP2 ISZERO PUSH2 0x162E JUMPI POP PUSH1 0x1 EQ PUSH2 0x15E7 JUMPI JUMPDEST POP PUSH2 0x15E5 SWAP3 POP SUB DUP4 PUSH2 0x1489 JUMP JUMPDEST JUMP JUMPDEST SWAP1 POP PUSH1 0x0 SWAP3 SWAP2 SWAP3 MSTORE PUSH1 0x20 PUSH1 0x0 KECCAK256 SWAP1 PUSH1 0x0 SWAP2 JUMPDEST DUP2 DUP4 LT PUSH2 0x1612 JUMPI POP POP SWAP1 PUSH1 0x20 PUSH2 0x15E5 SWAP3 DUP3 ADD ADD CODESIZE PUSH2 0x15D8 JUMP JUMPDEST PUSH1 0x20 SWAP2 SWAP4 POP DUP1 PUSH1 0x1 SWAP2 SLOAD DUP4 DUP6 DUP10 ADD ADD MSTORE ADD SWAP2 ADD SWAP1 SWAP2 DUP5 SWAP3 PUSH2 0x15F9 JUMP JUMPDEST SWAP1 POP PUSH1 0x20 SWAP3 POP PUSH2 0x15E5 SWAP5 SWAP2 POP PUSH1 0xFF NOT AND DUP3 DUP5 ADD MSTORE ISZERO ISZERO PUSH1 0x5 SHL DUP3 ADD ADD CODESIZE PUSH2 0x15D8 JUMP INVALID LOG2 PUSH5 0x6970667358 0x22 SLT KECCAK256 0xC5 0x22 0xEA SWAP9 DUP7 PUSH21 0xA2249BC4AA1E46CE69C7F3CE48EDEC51883883EBD8 0x24 LOG0 0xD7 PUSH31 0x3264736F6C634300081C003300000000000000000000000000000000000000 "
        },
        "methodIdentifiers": {
          "addAnimal(uint256,string,string,uint256,string,string,string,string,string,uint32,uint32,string,string,string)": "27ca790f",
          "animalIds(uint256)": "4efead56",
          "animals(uint256)": "998dd3ca",
          "getAnimal(uint256)": "45d3cc81",
          "getAnimalCount()": "66634a16"
        }
      }
    }
  }
}