{"contracts/AnimalTracking.sol":{"AnimalTracking":{"abi":[{"inputs":[],"stateMutability":"nonpayable","type":"constructor"},{"anonymous":false,"inputs":[{"indexed":true,"internalType":"uint256","name":"id","type":"uint256"},{"indexed":false,"internalType":"string","name":"name","type":"string"},{"indexed":false,"internalType":"string","name":"species","type":"string"},{"indexed":false,"internalType":"uint256","name":"age","type":"uint256"},{"indexed":false,"internalType":"string","name":"ownerName","type":"string"},{"indexed":false,"internalType":"string","name":"ownerPhone","type":"string"},{"indexed":false,"internalType":"string","name":"ownerAddress","type":"string"},{"indexed":false,"internalType":"string","name":"shelterName","type":"string"},{"indexed":false,"internalType":"string","name":"gender","type":"string"},{"indexed":false,"internalType":"uint32","name":"weight","type":"uint32"},{"indexed":false,"internalType":"uint32","name":"height","type":"uint32"},{"indexed":false,"internalType":"string","name":"illnesses","type":"string"},{"indexed":false,"internalType":"string","name":"vaccines","type":"string"},{"indexed":true,"internalType":"address","name":"addedBy","type":"address"}],"name":"AnimalAdded","type":"event"},{"inputs":[{"internalType":"string","name":"_name","type":"string"},{"internalType":"string","name":"_species","type":"string"},{"internalType":"uint256","name":"_age","type":"uint256"},{"internalType":"string","name":"_ownerName","type":"string"},{"internalType":"string","name":"_ownerPhone","type":"string"},{"internalType":"string","name":"_ownerAddress","type":"string"},{"internalType":"string","name":"_shelterName","type":"string"},{"internalType":"string","name":"_gender","type":"string"},{"internalType":"uint32","name":"_weight","type":"uint32"},{"internalType":"uint32","name":"_height","type":"uint32"},{"internalType":"string","name":"_illnesses","type":"string"},{"internalType":"string","name":"_vaccines","type":"string"},{"internalType":"string","name":"_additionalInfo","type":"string"}],"name":"addAnimal","outputs":[],"stateMutability":"nonpayable","type":"function"},{"inputs":[{"internalType":"uint256","name":"","type":"uint256"}],"name":"animalIds","outputs":[{"internalType":"uint256","name":"","type":"uint256"}],"stateMutability":"view","type":"function"},{"inputs":[{"internalType":"uint256","name":"","type":"uint256"}],"name":"animals","outputs":[{"internalType":"uint256","name":"id","type":"uint256"},{"internalType":"string","name":"name","type":"string"},{"internalType":"string","name":"species","type":"string"},{"internalType":"uint256","name":"age","type":"uint256"},{"internalType":"string","name":"ownerName","type":"string"},{"internalType":"string","name":"ownerPhone","type":"string"},{"internalType":"string","name":"ownerAddress","type":"string"},{"internalType":"string","name":"shelterName","type":"string"},{"internalType":"string","name":"gender","type":"string"},{"internalType":"uint32","name":"weight","type":"uint32"},{"internalType":"uint32","name":"height","type":"uint32"},{"internalType":"string","name":"illnesses","type":"string"},{"internalType":"string","name":"vaccines","type":"string"},{"internalType":"string","name":"additionalInfo","type":"string"},{"internalType":"address","name":"addedBy","type":"address"},{"internalType":"uint256","name":"timestamp","type":"uint256"}],"stateMutability":"view","type":"function"},{"inputs":[{"internalType":"uint256","name":"animalId","type":"uint256"}],"name":"getAnimal","outputs":[{"components":[{"internalType":"uint256","name":"id","type":"uint256"},{"internalType":"string","name":"name","type":"string"},{"internalType":"string","name":"species","type":"string"},{"internalType":"uint256","name":"age","type":"uint256"},{"internalType":"string","name":"ownerName","type":"string"},{"internalType":"string","name":"ownerPhone","type":"string"},{"internalType":"string","name":"ownerAddress","type":"string"},{"internalType":"string","name":"shelterName","type":"string"},{"internalType":"string","name":"gender","type":"string"},{"internalType":"uint32","name":"weight","type":"uint32"},{"internalType":"uint32","name":"height","type":"uint32"},{"internalType":"string","name":"illnesses","type":"string"},{"internalType":"string","name":"vaccines","type":"string"},{"internalType":"string","name":"additionalInfo","type":"string"},{"internalType":"address","name":"addedBy","type":"address"},{"internalType":"uint256","name":"timestamp","type":"uint256"}],"internalType":"struct AnimalTracking.Animal","name":"","type":"tuple"}],"stateMutability":"view","type":"function"},{"inputs":[],"name":"getAnimalCount","outputs":[{"internalType":"uint256","name":"","type":"uint256"}],"stateMutability":"view","type":"function"},{"inputs":[],"name":"getNextId","outputs":[{"internalType":"uint256","name":"","type":"uint256"}],"stateMutability":"view","type":"function"}],"evm":{"bytecode":{"linkReferences":{},"object":"60808060405234601a57600160005561172490816100208239f35b600080fdfe6080604052600436101561001257600080fd5b60003560e01c80633b8cd9de146105df57806345d3cc811461028e5780634efead561461025657806366634a1614610238578063998dd3ca146100815763bc9683261461005e57600080fd5b3461007c57600036600319011261007c576020600054604051908152f35b600080fd5b3461007c57602036600319011261007c5760043560005260016020526040600020805490600181016100b29061164a565b906100bf6002820161164a565b600382015490936100d26004840161164a565b6100de6005850161164a565b6100ea6006860161164a565b6100f66007870161164a565b6101026008880161164a565b90600988015492600a89016101169061164a565b94610123600b8b0161164a565b96610130600c8c0161164a565b98600160a01b60019003600d8d0154169b600e01549a6040519e8f9e8f93845260208401610200905261020084016101679161159e565b83810360408501526101789161159e565b91606001528c808203906080015261018f9161159e565b8b810360a08d01526101a09161159e565b8a810360c08c01526101b19161159e565b89810360e08b01526101c29161159e565b8881036101008a01526101d49161159e565b9063ffffffff811661012089015260201c63ffffffff166101408801528681036101608801526102039161159e565b8581036101808701526102159161159e565b8481036101a08601526102279161159e565b916101c08401526101e08301520390f35b3461007c57600036600319011261007c576020600254604051908152f35b3461007c57602036600319011261007c5760043560025481101561007c5761027f6020916115df565b90549060031b1c604051908152f35b3461007c57602036600319011261007c5760043560006101e06040516102b38161150b565b828152606060208201526060604082015282606082015260606080820152606060a0820152606060c0820152606060e0820152606061010082015282610120820152826101408201526060610160820152606061018082015260606101a0820152826101c08201520152806000526001602052604060002054156105a757600052600160205261022060206040600020600e604051916103528361150b565b805483526103626001820161164a565b848401526103726002820161164a565b60408401526003810154606084015261038d6004820161164a565b608084015261039e6005820161164a565b60a08401526103af6006820161164a565b60c08401526103c06007820161164a565b60e08401526103d16008820161164a565b61010084015263ffffffff6009820154818116610120860152851c166101408401526103ff600a820161164a565b610160840152610411600b820161164a565b610180840152610423600c820161164a565b6101a084015260018060a01b03600d820154166101c084015201546101e08201526101e061058761056f61055761051b6105036104ec6104d66104c061049f6104898b6040519e8f9e8f928184528051828501520151916102006040820152019061159e565b60408c01518d8203601f190160608f015261159e565b60608b015160808d015260808b01518c60a0601f198285030191015261159e565b60a08a01518b8203601f190160c08d015261159e565b60c08901518a8203601f190160e08c015261159e565b60e0880151898203601f19016101008b015261159e565b610100870151888203601f19016101208a015261159e565b63ffffffff6101208701511661014088015263ffffffff61014087015116610160880152610160860151601f198883030161018089015261159e565b610180850151868203601f19016101a088015261159e565b6101a0840151858203601f19016101c087015261159e565b6101c08301516001600160a01b0316848301529101516102008301520390f35b60405162461bcd60e51b815260206004820152601060248201526f105b9a5b585b081b9bdd08199bdd5b9960821b6044820152606490fd5b3461007c576101a036600319011261007c576004356001600160401b03811161007c57610610903690600401611548565b6024356001600160401b03811161007c5761062f903690600401611548565b6064356001600160401b03811161007c5761064e903690600401611548565b906084356001600160401b03811161007c5761066e903690600401611548565b9260a4356001600160401b03811161007c5761068e903690600401611548565b60c4356001600160401b03811161007c576106ad903690600401611548565b60e4356001600160401b03811161007c576106cc903690600401611548565b90610104359163ffffffff8316830361007c57610124359163ffffffff8316830361007c57610144356001600160401b03811161007c57610711903690600401611548565b94610164356001600160401b03811161007c57610732903690600401611548565b99610184356001600160401b03811161007c57610753903690600401611548565b998b6000549b604051906107668261150b565b8d825260208201928c84528d604084015260443560608401528460808401528560a08401528660c08401528760e08401528861010084015263ffffffff8b1661012084015263ffffffff8a166101408401528b6101608401526101808301526101a0820152336101c0820152426101e08201528c600052600160205260406000209181518355518051906001600160401b038211610d4157819061080d6001860154611610565b601f81116114b8575b50602090601f83116001146114475760009261143c575b50508160011b916000199060031b1c19161760018301555b60408101518051906001600160401b038211610d4157819061086a6002860154611610565b601f81116113e9575b50602090601f83116001146113785760009261136d575b50508160011b916000199060031b1c19161760028301555b606081015160038301556004820160808201518051906001600160401b038211610d415781906108d28454611610565b601f811161131a575b50602090601f83116001146112b5576000926112aa575b50508160011b916000199060031b1c19161790555b6005820160a08201518051906001600160401b038211610d4157819061092d8454611610565b601f8111611257575b50602090601f83116001146111f2576000926111e7575b50508160011b916000199060031b1c19161790555b6006820160c08201518051906001600160401b038211610d415781906109888454611610565b601f8111611194575b50602090601f831160011461112f57600092611124575b50508160011b916000199060031b1c19161790555b6007820160e08201518051906001600160401b038211610d415781906109e38454611610565b601f81116110d1575b50602090601f831160011461106c57600092611061575b50508160011b916000199060031b1c19161790555b600882016101008201518051906001600160401b038211610d41578190610a3f8454611610565b601f811161100e575b50602090601f8311600114610fa957600092610f9e575b50508160011b916000199060031b1c19161790555b6009820163ffffffff6101208301511681549067ffffffff0000000061014085015160201b16916001600160401b03191617179055600a82016101608201518051906001600160401b038211610d41578190610ad08454611610565b601f8111610f4b575b50602090601f8311600114610ee657600092610edb575b50508160011b916000199060031b1c19161790555b600b82016101808201518051906001600160401b038211610d41578190610b2c8454611610565b601f8111610e88575b50602090601f8311600114610e2357600092610e18575b50508160011b916000199060031b1c19161790555b600c82016101a08201518051906001600160401b038211610d4157610b868354611610565b601f8111610dd0575b50602090601f8311600114610d625791806101e09492600e9694600092610d57575b50508160011b916000199060031b1c19161790555b600d840160018060a01b036101c0830151166bffffffffffffffffffffffff60a01b825416179055015191015560025468010000000000000000811015610d415760018101600255610c17906115df565b81549060031b908d821b91600019901b1916179055604051998a996101808b526101808b01610c459161159e565b8a810360208c0152610c569161159e565b60443560408b015289810360608b0152610c6f9161159e565b88810360808a0152610c809161159e565b87810360a0890152610c919161159e565b86810360c0880152610ca29161159e565b85810360e0870152610cb39161159e565b9163ffffffff1661010085015263ffffffff16610120840152828103610140840152610cde9161159e565b938185036101608301523394610cf39161159e565b037f96eddd90beb787d447ae60c3556b219d3aa5e175d8b72c9c66c5a348f01e8dde91a36000546000198114610d2b57600101600055005b634e487b7160e01b600052601160045260246000fd5b634e487b7160e01b600052604160045260246000fd5b015190503880610bb1565b90601f1983169184600052816000209260005b818110610db85750926001928592600e98966101e0989610610d9f575b505050811b019055610bc6565b015160001960f88460031b161c19169055388080610d92565b92936020600181928786015181550195019301610d75565b836000526020600020601f840160051c81019160208510610e0e575b601f0160051c01905b818110610e025750610b8f565b60008155600101610df5565b9091508190610dec565b015190503880610b4c565b60008581528281209350601f198516905b818110610e705750908460019594939210610e57575b505050811b019055610b61565b015160001960f88460031b161c19169055388080610e4a565b92936020600181928786015181550195019301610e34565b909150836000526020600020601f840160051c81019160208510610ed1575b90601f859493920160051c01905b818110610ec25750610b35565b60008155849350600101610eb5565b9091508190610ea7565b015190503880610af0565b60008581528281209350601f198516905b818110610f335750908460019594939210610f1a575b505050811b019055610b05565b015160001960f88460031b161c19169055388080610f0d565b92936020600181928786015181550195019301610ef7565b909150836000526020600020601f840160051c81019160208510610f94575b90601f859493920160051c01905b818110610f855750610ad9565b60008155849350600101610f78565b9091508190610f6a565b015190503880610a5f565b60008581528281209350601f198516905b818110610ff65750908460019594939210610fdd575b505050811b019055610a74565b015160001960f88460031b161c19169055388080610fd0565b92936020600181928786015181550195019301610fba565b909150836000526020600020601f840160051c81019160208510611057575b90601f859493920160051c01905b8181106110485750610a48565b6000815584935060010161103b565b909150819061102d565b015190503880610a03565b60008581528281209350601f198516905b8181106110b957509084600195949392106110a0575b505050811b019055610a18565b015160001960f88460031b161c19169055388080611093565b9293602060018192878601518155019501930161107d565b909150836000526020600020601f840160051c8101916020851061111a575b90601f859493920160051c01905b81811061110b57506109ec565b600081558493506001016110fe565b90915081906110f0565b0151905038806109a8565b60008581528281209350601f198516905b81811061117c5750908460019594939210611163575b505050811b0190556109bd565b015160001960f88460031b161c19169055388080611156565b92936020600181928786015181550195019301611140565b909150836000526020600020601f840160051c810191602085106111dd575b90601f859493920160051c01905b8181106111ce5750610991565b600081558493506001016111c1565b90915081906111b3565b01519050388061094d565b60008581528281209350601f198516905b81811061123f5750908460019594939210611226575b505050811b019055610962565b015160001960f88460031b161c19169055388080611219565b92936020600181928786015181550195019301611203565b909150836000526020600020601f840160051c810191602085106112a0575b90601f859493920160051c01905b8181106112915750610936565b60008155849350600101611284565b9091508190611276565b0151905038806108f2565b60008581528281209350601f198516905b81811061130257509084600195949392106112e9575b505050811b019055610907565b015160001960f88460031b161c191690553880806112dc565b929360206001819287860151815501950193016112c6565b909150836000526020600020601f840160051c81019160208510611363575b90601f859493920160051c01905b81811061135457506108db565b60008155849350600101611347565b9091508190611339565b01519050388061088a565b92506002850160005280600020906000935b601f19841685106113ce576001945083601f198116106113b5575b505050811b0160028301556108a2565b015160001960f88460031b161c191690553880806113a5565b8181015183556020948501946001909301929091019061138a565b909150600285016000526020600020601f840160051c810160208510611435575b90849392915b601f830160051c82018110611426575050610873565b60008155859450600101611410565b508061140a565b01519050388061082d565b92506001850160005280600020906000935b601f198416851061149d576001945083601f19811610611484575b505050811b016001830155610845565b015160001960f88460031b161c19169055388080611474565b81810151835560209485019460019093019290910190611459565b909150600185016000526020600020601f840160051c810160208510611504575b90849392915b601f830160051c820181106114f5575050610816565b600081558594506001016114df565b50806114d9565b61020081019081106001600160401b03821117610d4157604052565b90601f801991011681019081106001600160401b03821117610d4157604052565b81601f8201121561007c578035906001600160401b038211610d41576040519261157c601f8401601f191660200185611527565b8284526020838301011161007c57816000926020809301838601378301015290565b919082519283825260005b8481106115ca575050826000602080949584010152601f8019910116010190565b806020809284010151828286010152016115a9565b6002548110156115fa57600260005260206000200190600090565b634e487b7160e01b600052603260045260246000fd5b90600182811c92168015611640575b602083101461162a57565b634e487b7160e01b600052602260045260246000fd5b91607f169161161f565b906040519182600082549261165e84611610565b80845293600181169081156116cc5750600114611685575b5061168392500383611527565b565b90506000929192526020600020906000915b8183106116b05750509060206116839282010138611676565b6020919350806001915483858901015201910190918492611697565b90506020925061168394915060ff191682840152151560051b8201013861167656fea2646970667358221220aad4ac36f78c73aae67fda29b5f6ddb2814eb046b77ff1ad46d1f6e61f424a5164736f6c634300081c0033","opcodes":"PUSH1 0x80 DUP1 PUSH1 0x40 MSTORE CALLVALUE PUSH1 0x1A JUMPI PUSH1 0x1 PUSH1 0x0 SSTORE PUSH2 0x1724 SWAP1 DUP2 PUSH2 0x20 DUP3 CODECOPY RETURN JUMPDEST PUSH1 0x0 DUP1 REVERT INVALID PUSH1 0x80 PUSH1 0x40 MSTORE PUSH1 0x4 CALLDATASIZE LT ISZERO PUSH2 0x12 JUMPI PUSH1 0x0 DUP1 REVERT JUMPDEST PUSH1 0x0 CALLDATALOAD PUSH1 0xE0 SHR DUP1 PUSH4 0x3B8CD9DE EQ PUSH2 0x5DF JUMPI DUP1 PUSH4 0x45D3CC81 EQ PUSH2 0x28E JUMPI DUP1 PUSH4 0x4EFEAD56 EQ PUSH2 0x256 JUMPI DUP1 PUSH4 0x66634A16 EQ PUSH2 0x238 JUMPI DUP1 PUSH4 0x998DD3CA EQ PUSH2 0x81 JUMPI PUSH4 0xBC968326 EQ PUSH2 0x5E JUMPI PUSH1 0x0 DUP1 REVERT JUMPDEST CALLVALUE PUSH2 0x7C JUMPI PUSH1 0x0 CALLDATASIZE PUSH1 0x3 NOT ADD SLT PUSH2 0x7C JUMPI PUSH1 0x20 PUSH1 0x0 SLOAD PUSH1 0x40 MLOAD SWAP1 DUP2 MSTORE RETURN JUMPDEST PUSH1 0x0 DUP1 REVERT JUMPDEST CALLVALUE PUSH2 0x7C JUMPI PUSH1 0x20 CALLDATASIZE PUSH1 0x3 NOT ADD SLT PUSH2 0x7C JUMPI PUSH1 0x4 CALLDATALOAD PUSH1 0x0 MSTORE PUSH1 0x1 PUSH1 0x20 MSTORE PUSH1 0x40 PUSH1 0x0 KECCAK256 DUP1 SLOAD SWAP1 PUSH1 0x1 DUP2 ADD PUSH2 0xB2 SWAP1 PUSH2 0x164A JUMP JUMPDEST SWAP1 PUSH2 0xBF PUSH1 0x2 DUP3 ADD PUSH2 0x164A JUMP JUMPDEST PUSH1 0x3 DUP3 ADD SLOAD SWAP1 SWAP4 PUSH2 0xD2 PUSH1 0x4 DUP5 ADD PUSH2 0x164A JUMP JUMPDEST PUSH2 0xDE PUSH1 0x5 DUP6 ADD PUSH2 0x164A JUMP JUMPDEST PUSH2 0xEA PUSH1 0x6 DUP7 ADD PUSH2 0x164A JUMP JUMPDEST PUSH2 0xF6 PUSH1 0x7 DUP8 ADD PUSH2 0x164A JUMP JUMPDEST PUSH2 0x102 PUSH1 0x8 DUP9 ADD PUSH2 0x164A JUMP JUMPDEST SWAP1 PUSH1 0x9 DUP9 ADD SLOAD SWAP3 PUSH1 0xA DUP10 ADD PUSH2 0x116 SWAP1 PUSH2 0x164A JUMP JUMPDEST SWAP5 PUSH2 0x123 PUSH1 0xB DUP12 ADD PUSH2 0x164A JUMP JUMPDEST SWAP7 PUSH2 0x130 PUSH1 0xC DUP13 ADD PUSH2 0x164A JUMP JUMPDEST SWAP9 PUSH1 0x1 PUSH1 0xA0 SHL PUSH1 0x1 SWAP1 SUB PUSH1 0xD DUP14 ADD SLOAD AND SWAP12 PUSH1 0xE ADD SLOAD SWAP11 PUSH1 0x40 MLOAD SWAP15 DUP16 SWAP15 DUP16 SWAP4 DUP5 MSTORE PUSH1 0x20 DUP5 ADD PUSH2 0x200 SWAP1 MSTORE PUSH2 0x200 DUP5 ADD PUSH2 0x167 SWAP2 PUSH2 0x159E JUMP JUMPDEST DUP4 DUP2 SUB PUSH1 0x40 DUP6 ADD MSTORE PUSH2 0x178 SWAP2 PUSH2 0x159E JUMP JUMPDEST SWAP2 PUSH1 0x60 ADD MSTORE DUP13 DUP1 DUP3 SUB SWAP1 PUSH1 0x80 ADD MSTORE PUSH2 0x18F SWAP2 PUSH2 0x159E JUMP JUMPDEST DUP12 DUP2 SUB PUSH1 0xA0 DUP14 ADD MSTORE PUSH2 0x1A0 SWAP2 PUSH2 0x159E JUMP JUMPDEST DUP11 DUP2 SUB PUSH1 0xC0 DUP13 ADD MSTORE PUSH2 0x1B1 SWAP2 PUSH2 0x159E JUMP JUMPDEST DUP10 DUP2 SUB PUSH1 0xE0 DUP12 ADD MSTORE PUSH2 0x1C2 SWAP2 PUSH2 0x159E JUMP JUMPDEST DUP9 DUP2 SUB PUSH2 0x100 DUP11 ADD MSTORE PUSH2 0x1D4 SWAP2 PUSH2 0x159E JUMP JUMPDEST SWAP1 PUSH4 0xFFFFFFFF DUP2 AND PUSH2 0x120 DUP10 ADD MSTORE PUSH1 0x20 SHR PUSH4 0xFFFFFFFF AND PUSH2 0x140 DUP9 ADD MSTORE DUP7 DUP2 SUB PUSH2 0x160 DUP9 ADD MSTORE PUSH2 0x203 SWAP2 PUSH2 0x159E JUMP JUMPDEST DUP6 DUP2 SUB PUSH2 0x180 DUP8 ADD MSTORE PUSH2 0x215 SWAP2 PUSH2 0x159E JUMP JUMPDEST DUP5 DUP2 SUB PUSH2 0x1A0 DUP7 ADD MSTORE PUSH2 0x227 SWAP2 PUSH2 0x159E JUMP JUMPDEST SWAP2 PUSH2 0x1C0 DUP5 ADD MSTORE PUSH2 0x1E0 DUP4 ADD MSTORE SUB SWAP1 RETURN JUMPDEST CALLVALUE PUSH2 0x7C JUMPI PUSH1 0x0 CALLDATASIZE PUSH1 0x3 NOT ADD SLT PUSH2 0x7C JUMPI PUSH1 0x20 PUSH1 0x2 SLOAD PUSH1 0x40 MLOAD SWAP1 DUP2 MSTORE RETURN JUMPDEST CALLVALUE PUSH2 0x7C JUMPI PUSH1 0x20 CALLDATASIZE PUSH1 0x3 NOT ADD SLT PUSH2 0x7C JUMPI PUSH1 0x4 CALLDATALOAD PUSH1 0x2 SLOAD DUP2 LT ISZERO PUSH2 0x7C JUMPI PUSH2 0x27F PUSH1 0x20 SWAP2 PUSH2 0x15DF JUMP JUMPDEST SWAP1 SLOAD SWAP1 PUSH1 0x3 SHL SHR PUSH1 0x40 MLOAD SWAP1 DUP2 MSTORE RETURN JUMPDEST CALLVALUE PUSH2 0x7C JUMPI PUSH1 0x20 CALLDATASIZE PUSH1 0x3 NOT ADD SLT PUSH2 0x7C JUMPI PUSH1 0x4 CALLDATALOAD PUSH1 0x0 PUSH2 0x1E0 PUSH1 0x40 MLOAD PUSH2 0x2B3 DUP2 PUSH2 0x150B JUMP JUMPDEST DUP3 DUP2 MSTORE PUSH1 0x60 PUSH1 0x20 DUP3 ADD MSTORE PUSH1 0x60 PUSH1 0x40 DUP3 ADD MSTORE DUP3 PUSH1 0x60 DUP3 ADD MSTORE PUSH1 0x60 PUSH1 0x80 DUP3 ADD MSTORE PUSH1 0x60 PUSH1 0xA0 DUP3 ADD MSTORE PUSH1 0x60 PUSH1 0xC0 DUP3 ADD MSTORE PUSH1 0x60 PUSH1 0xE0 DUP3 ADD MSTORE PUSH1 0x60 PUSH2 0x100 DUP3 ADD MSTORE DUP3 PUSH2 0x120 DUP3 ADD MSTORE DUP3 PUSH2 0x140 DUP3 ADD MSTORE PUSH1 0x60 PUSH2 0x160 DUP3 ADD MSTORE PUSH1 0x60 PUSH2 0x180 DUP3 ADD MSTORE PUSH1 0x60 PUSH2 0x1A0 DUP3 ADD MSTORE DUP3 PUSH2 0x1C0 DUP3 ADD MSTORE ADD MSTORE DUP1 PUSH1 0x0 MSTORE PUSH1 0x1 PUSH1 0x20 MSTORE PUSH1 0x40 PUSH1 0x0 KECCAK256 SLOAD ISZERO PUSH2 0x5A7 JUMPI PUSH1 0x0 MSTORE PUSH1 0x1 PUSH1 0x20 MSTORE PUSH2 0x220 PUSH1 0x20 PUSH1 0x40 PUSH1 0x0 KECCAK256 PUSH1 0xE PUSH1 0x40 MLOAD SWAP2 PUSH2 0x352 DUP4 PUSH2 0x150B JUMP JUMPDEST DUP1 SLOAD DUP4 MSTORE PUSH2 0x362 PUSH1 0x1 DUP3 ADD PUSH2 0x164A JUMP JUMPDEST DUP5 DUP5 ADD MSTORE PUSH2 0x372 PUSH1 0x2 DUP3 ADD PUSH2 0x164A JUMP JUMPDEST PUSH1 0x40 DUP5 ADD MSTORE PUSH1 0x3 DUP2 ADD SLOAD PUSH1 0x60 DUP5 ADD MSTORE PUSH2 0x38D PUSH1 0x4 DUP3 ADD PUSH2 0x164A JUMP JUMPDEST PUSH1 0x80 DUP5 ADD MSTORE PUSH2 0x39E PUSH1 0x5 DUP3 ADD PUSH2 0x164A JUMP JUMPDEST PUSH1 0xA0 DUP5 ADD MSTORE PUSH2 0x3AF PUSH1 0x6 DUP3 ADD PUSH2 0x164A JUMP JUMPDEST PUSH1 0xC0 DUP5 ADD MSTORE PUSH2 0x3C0 PUSH1 0x7 DUP3 ADD PUSH2 0x164A JUMP JUMPDEST PUSH1 0xE0 DUP5 ADD MSTORE PUSH2 0x3D1 PUSH1 0x8 DUP3 ADD PUSH2 0x164A JUMP JUMPDEST PUSH2 0x100 DUP5 ADD MSTORE PUSH4 0xFFFFFFFF PUSH1 0x9 DUP3 ADD SLOAD DUP2 DUP2 AND PUSH2 0x120 DUP7 ADD MSTORE DUP6 SHR AND PUSH2 0x140 DUP5 ADD MSTORE PUSH2 0x3FF PUSH1 0xA DUP3 ADD PUSH2 0x164A JUMP JUMPDEST PUSH2 0x160 DUP5 ADD MSTORE PUSH2 0x411 PUSH1 0xB DUP3 ADD PUSH2 0x164A JUMP JUMPDEST PUSH2 0x180 DUP5 ADD MSTORE PUSH2 0x423 PUSH1 0xC DUP3 ADD PUSH2 0x164A JUMP JUMPDEST PUSH2 0x1A0 DUP5 ADD MSTORE PUSH1 0x1 DUP1 PUSH1 0xA0 SHL SUB PUSH1 0xD DUP3 ADD SLOAD AND PUSH2 0x1C0 DUP5 ADD MSTORE ADD SLOAD PUSH2 0x1E0 DUP3 ADD MSTORE PUSH2 0x1E0 PUSH2 0x587 PUSH2 0x56F PUSH2 0x557 PUSH2 0x51B PUSH2 0x503 PUSH2 0x4EC PUSH2 0x4D6 PUSH2 0x4C0 PUSH2 0x49F PUSH2 0x489 DUP12 PUSH1 0x40 MLOAD SWAP15 DUP16 SWAP15 DUP16 SWAP3 DUP2 DUP5 MSTORE DUP1 MLOAD DUP3 DUP6 ADD MSTORE ADD MLOAD SWAP2 PUSH2 0x200 PUSH1 0x40 DUP3 ADD MSTORE ADD SWAP1 PUSH2 0x159E JUMP JUMPDEST PUSH1 0x40 DUP13 ADD MLOAD DUP14 DUP3 SUB PUSH1 0x1F NOT ADD PUSH1 0x60 DUP16 ADD MSTORE PUSH2 0x159E JUMP JUMPDEST PUSH1 0x60 DUP12 ADD MLOAD PUSH1 0x80 DUP14 ADD MSTORE PUSH1 0x80 DUP12 ADD MLOAD DUP13 PUSH1 0xA0 PUSH1 0x1F NOT DUP3 DUP6 SUB ADD SWAP2 ADD MSTORE PUSH2 0x159E JUMP JUMPDEST PUSH1 0xA0 DUP11 ADD MLOAD DUP12 DUP3 SUB PUSH1 0x1F NOT ADD PUSH1 0xC0 DUP14 ADD MSTORE PUSH2 0x159E JUMP JUMPDEST PUSH1 0xC0 DUP10 ADD MLOAD DUP11 DUP3 SUB PUSH1 0x1F NOT ADD PUSH1 0xE0 DUP13 ADD MSTORE PUSH2 0x159E JUMP JUMPDEST PUSH1 0xE0 DUP9 ADD MLOAD DUP10 DUP3 SUB PUSH1 0x1F NOT ADD PUSH2 0x100 DUP12 ADD MSTORE PUSH2 0x159E JUMP JUMPDEST PUSH2 0x100 DUP8 ADD MLOAD DUP9 DUP3 SUB PUSH1 0x1F NOT ADD PUSH2 0x120 DUP11 ADD MSTORE PUSH2 0x159E JUMP JUMPDEST PUSH4 0xFFFFFFFF PUSH2 0x120 DUP8 ADD MLOAD AND PUSH2 0x140 DUP9 ADD MSTORE PUSH4 0xFFFFFFFF PUSH2 0x140 DUP8 ADD MLOAD AND PUSH2 0x160 DUP9 ADD MSTORE PUSH2 0x160 DUP7 ADD MLOAD PUSH1 0x1F NOT DUP9 DUP4 SUB ADD PUSH2 0x180 DUP10 ADD MSTORE PUSH2 0x159E JUMP JUMPDEST PUSH2 0x180 DUP6 ADD MLOAD DUP7 DUP3 SUB PUSH1 0x1F NOT ADD PUSH2 0x1A0 DUP9 ADD MSTORE PUSH2 0x159E JUMP JUMPDEST PUSH2 0x1A0 DUP5 ADD MLOAD DUP6 DUP3 SUB PUSH1 0x1F NOT ADD PUSH2 0x1C0 DUP8 ADD MSTORE PUSH2 0x159E JUMP JUMPDEST PUSH2 0x1C0 DUP4 ADD MLOAD PUSH1 0x1 PUSH1 0x1 PUSH1 0xA0 SHL SUB AND DUP5 DUP4 ADD MSTORE SWAP2 ADD MLOAD PUSH2 0x200 DUP4 ADD MSTORE SUB SWAP1 RETURN JUMPDEST PUSH1 0x40 MLOAD PUSH3 0x461BCD PUSH1 0xE5 SHL DUP2 MSTORE PUSH1 0x20 PUSH1 0x4 DUP3 ADD MSTORE PUSH1 0x10 PUSH1 0x24 DUP3 ADD MSTORE PUSH16 0x105B9A5B585B081B9BDD08199BDD5B99 PUSH1 0x82 SHL PUSH1 0x44 DUP3 ADD MSTORE PUSH1 0x64 SWAP1 REVERT JUMPDEST CALLVALUE PUSH2 0x7C JUMPI PUSH2 0x1A0 CALLDATASIZE PUSH1 0x3 NOT ADD SLT PUSH2 0x7C JUMPI PUSH1 0x4 CALLDATALOAD PUSH1 0x1 PUSH1 0x1 PUSH1 0x40 SHL SUB DUP2 GT PUSH2 0x7C JUMPI PUSH2 0x610 SWAP1 CALLDATASIZE SWAP1 PUSH1 0x4 ADD PUSH2 0x1548 JUMP JUMPDEST PUSH1 0x24 CALLDATALOAD PUSH1 0x1 PUSH1 0x1 PUSH1 0x40 SHL SUB DUP2 GT PUSH2 0x7C JUMPI PUSH2 0x62F SWAP1 CALLDATASIZE SWAP1 PUSH1 0x4 ADD PUSH2 0x1548 JUMP JUMPDEST PUSH1 0x64 CALLDATALOAD PUSH1 0x1 PUSH1 0x1 PUSH1 0x40 SHL SUB DUP2 GT PUSH2 0x7C JUMPI PUSH2 0x64E SWAP1 CALLDATASIZE SWAP1 PUSH1 0x4 ADD PUSH2 0x1548 JUMP JUMPDEST SWAP1 PUSH1 0x84 CALLDATALOAD PUSH1 0x1 PUSH1 0x1 PUSH1 0x40 SHL SUB DUP2 GT PUSH2 0x7C JUMPI PUSH2 0x66E SWAP1 CALLDATASIZE SWAP1 PUSH1 0x4 ADD PUSH2 0x1548 JUMP JUMPDEST SWAP3 PUSH1 0xA4 CALLDATALOAD PUSH1 0x1 PUSH1 0x1 PUSH1 0x40 SHL SUB DUP2 GT PUSH2 0x7C JUMPI PUSH2 0x68E SWAP1 CALLDATASIZE SWAP1 PUSH1 0x4 ADD PUSH2 0x1548 JUMP JUMPDEST PUSH1 0xC4 CALLDATALOAD PUSH1 0x1 PUSH1 0x1 PUSH1 0x40 SHL SUB DUP2 GT PUSH2 0x7C JUMPI PUSH2 0x6AD SWAP1 CALLDATASIZE SWAP1 PUSH1 0x4 ADD PUSH2 0x1548 JUMP JUMPDEST PUSH1 0xE4 CALLDATALOAD PUSH1 0x1 PUSH1 0x1 PUSH1 0x40 SHL SUB DUP2 GT PUSH2 0x7C JUMPI PUSH2 0x6CC SWAP1 CALLDATASIZE SWAP1 PUSH1 0x4 ADD PUSH2 0x1548 JUMP JUMPDEST SWAP1 PUSH2 0x104 CALLDATALOAD SWAP2 PUSH4 0xFFFFFFFF DUP4 AND DUP4 SUB PUSH2 0x7C JUMPI PUSH2 0x124 CALLDATALOAD SWAP2 PUSH4 0xFFFFFFFF DUP4 AND DUP4 SUB PUSH2 0x7C JUMPI PUSH2 0x144 CALLDATALOAD PUSH1 0x1 PUSH1 0x1 PUSH1 0x40 SHL SUB DUP2 GT PUSH2 0x7C JUMPI PUSH2 0x711 SWAP1 CALLDATASIZE SWAP1 PUSH1 0x4 ADD PUSH2 0x1548 JUMP JUMPDEST SWAP5 PUSH2 0x164 CALLDATALOAD PUSH1 0x1 PUSH1 0x1 PUSH1 0x40 SHL SUB DUP2 GT PUSH2 0x7C JUMPI PUSH2 0x732 SWAP1 CALLDATASIZE SWAP1 PUSH1 0x4 ADD PUSH2 0x1548 JUMP JUMPDEST SWAP10 PUSH2 0x184 CALLDATALOAD PUSH1 0x1 PUSH1 0x1 PUSH1 0x40 SHL SUB DUP2 GT PUSH2 0x7C JUMPI PUSH2 0x753 SWAP1 CALLDATASIZE SWAP1 PUSH1 0x4 ADD PUSH2 0x1548 JUMP JUMPDEST SWAP10 DUP12 PUSH1 0x0 SLOAD SWAP12 PUSH1 0x40 MLOAD SWAP1 PUSH2 0x766 DUP3 PUSH2 0x150B JUMP JUMPDEST DUP14 DUP3 MSTORE PUSH1 0x20 DUP3 ADD SWAP3 DUP13 DUP5 MSTORE DUP14 PUSH1 0x40 DUP5 ADD MSTORE PUSH1 0x44 CALLDATALOAD PUSH1 0x60 DUP5 ADD MSTORE DUP5 PUSH1 0x80 DUP5 ADD MSTORE DUP6 PUSH1 0xA0 DUP5 ADD MSTORE DUP7 PUSH1 0xC0 DUP5 ADD MSTORE DUP8 PUSH1 0xE0 DUP5 ADD MSTORE DUP9 PUSH2 0x100 DUP5 ADD MSTORE PUSH4 0xFFFFFFFF DUP12 AND PUSH2 0x120 DUP5 ADD MSTORE PUSH4 0xFFFFFFFF DUP11 AND PUSH2 0x140 DUP5 ADD MSTORE DUP12 PUSH2 0x160 DUP5 ADD MSTORE PUSH2 0x180 DUP4 ADD MSTORE PUSH2 0x1A0 DUP3 ADD MSTORE CALLER PUSH2 0x1C0 DUP3 ADD MSTORE TIMESTAMP PUSH2 0x1E0 DUP3 ADD MSTORE DUP13 PUSH1 0x0 MSTORE PUSH1 0x1 PUSH1 0x20 MSTORE PUSH1 0x40 PUSH1 0x0 KECCAK256 SWAP2 DUP2 MLOAD DUP4 SSTORE MLOAD DUP1 MLOAD SWAP1 PUSH1 0x1 PUSH1 0x1 PUSH1 0x40 SHL SUB DUP3 GT PUSH2 0xD41 JUMPI DUP2 SWAP1 PUSH2 0x80D PUSH1 0x1 DUP7 ADD SLOAD PUSH2 0x1610 JUMP JUMPDEST PUSH1 0x1F DUP2 GT PUSH2 0x14B8 JUMPI JUMPDEST POP PUSH1 0x20 SWAP1 PUSH1 0x1F DUP4 GT PUSH1 0x1 EQ PUSH2 0x1447 JUMPI PUSH1 0x0 SWAP3 PUSH2 0x143C JUMPI JUMPDEST POP POP DUP2 PUSH1 0x1 SHL SWAP2 PUSH1 0x0 NOT SWAP1 PUSH1 0x3 SHL SHR NOT AND OR PUSH1 0x1 DUP4 ADD SSTORE JUMPDEST PUSH1 0x40 DUP2 ADD MLOAD DUP1 MLOAD SWAP1 PUSH1 0x1 PUSH1 0x1 PUSH1 0x40 SHL SUB DUP3 GT PUSH2 0xD41 JUMPI DUP2 SWAP1 PUSH2 0x86A PUSH1 0x2 DUP7 ADD SLOAD PUSH2 0x1610 JUMP JUMPDEST PUSH1 0x1F DUP2 GT PUSH2 0x13E9 JUMPI JUMPDEST POP PUSH1 0x20 SWAP1 PUSH1 0x1F DUP4 GT PUSH1 0x1 EQ PUSH2 0x1378 JUMPI PUSH1 0x0 SWAP3 PUSH2 0x136D JUMPI JUMPDEST POP POP DUP2 PUSH1 0x1 SHL SWAP2 PUSH1 0x0 NOT SWAP1 PUSH1 0x3 SHL SHR NOT AND OR PUSH1 0x2 DUP4 ADD SSTORE JUMPDEST PUSH1 0x60 DUP2 ADD MLOAD PUSH1 0x3 DUP4 ADD SSTORE PUSH1 0x4 DUP3 ADD PUSH1 0x80 DUP3 ADD MLOAD DUP1 MLOAD SWAP1 PUSH1 0x1 PUSH1 0x1 PUSH1 0x40 SHL SUB DUP3 GT PUSH2 0xD41 JUMPI DUP2 SWAP1 PUSH2 0x8D2 DUP5 SLOAD PUSH2 0x1610 JUMP JUMPDEST PUSH1 0x1F DUP2 GT PUSH2 0x131A JUMPI JUMPDEST POP PUSH1 0x20 SWAP1 PUSH1 0x1F DUP4 GT PUSH1 0x1 EQ PUSH2 0x12B5 JUMPI PUSH1 0x0 SWAP3 PUSH2 0x12AA JUMPI JUMPDEST POP POP DUP2 PUSH1 0x1 SHL SWAP2 PUSH1 0x0 NOT SWAP1 PUSH1 0x3 SHL SHR NOT AND OR SWAP1 SSTORE JUMPDEST PUSH1 0x5 DUP3 ADD PUSH1 0xA0 DUP3 ADD MLOAD DUP1 MLOAD SWAP1 PUSH1 0x1 PUSH1 0x1 PUSH1 0x40 SHL SUB DUP3 GT PUSH2 0xD41 JUMPI DUP2 SWAP1 PUSH2 0x92D DUP5 SLOAD PUSH2 0x1610 JUMP JUMPDEST PUSH1 0x1F DUP2 GT PUSH2 0x1257 JUMPI JUMPDEST POP PUSH1 0x20 SWAP1 PUSH1 0x1F DUP4 GT PUSH1 0x1 EQ PUSH2 0x11F2 JUMPI PUSH1 0x0 SWAP3 PUSH2 0x11E7 JUMPI JUMPDEST POP POP DUP2 PUSH1 0x1 SHL SWAP2 PUSH1 0x0 NOT SWAP1 PUSH1 0x3 SHL SHR NOT AND OR SWAP1 SSTORE JUMPDEST PUSH1 0x6 DUP3 ADD PUSH1 0xC0 DUP3 ADD MLOAD DUP1 MLOAD SWAP1 PUSH1 0x1 PUSH1 0x1 PUSH1 0x40 SHL SUB DUP3 GT PUSH2 0xD41 JUMPI DUP2 SWAP1 PUSH2 0x988 DUP5 SLOAD PUSH2 0x1610 JUMP JUMPDEST PUSH1 0x1F DUP2 GT PUSH2 0x1194 JUMPI JUMPDEST POP PUSH1 0x20 SWAP1 PUSH1 0x1F DUP4 GT PUSH1 0x1 EQ PUSH2 0x112F JUMPI PUSH1 0x0 SWAP3 PUSH2 0x1124 JUMPI JUMPDEST POP POP DUP2 PUSH1 0x1 SHL SWAP2 PUSH1 0x0 NOT SWAP1 PUSH1 0x3 SHL SHR NOT AND OR SWAP1 SSTORE JUMPDEST PUSH1 0x7 DUP3 ADD PUSH1 0xE0 DUP3 ADD MLOAD DUP1 MLOAD SWAP1 PUSH1 0x1 PUSH1 0x1 PUSH1 0x40 SHL SUB DUP3 GT PUSH2 0xD41 JUMPI DUP2 SWAP1 PUSH2 0x9E3 DUP5 SLOAD PUSH2 0x1610 JUMP JUMPDEST PUSH1 0x1F DUP2 GT PUSH2 0x10D1 JUMPI JUMPDEST POP PUSH1 0x20 SWAP1 PUSH1 0x1F DUP4 GT PUSH1 0x1 EQ PUSH2 0x106C JUMPI PUSH1 0x0 SWAP3 PUSH2 0x1061 JUMPI JUMPDEST POP POP DUP2 PUSH1 0x1 SHL SWAP2 PUSH1 0x0 NOT SWAP1 PUSH1 0x3 SHL SHR NOT AND OR SWAP1 SSTORE JUMPDEST PUSH1 0x8 DUP3 ADD PUSH2 0x100 DUP3 ADD MLOAD DUP1 MLOAD SWAP1 PUSH1 0x1 PUSH1 0x1 PUSH1 0x40 SHL SUB DUP3 GT PUSH2 0xD41 JUMPI DUP2 SWAP1 PUSH2 0xA3F DUP5 SLOAD PUSH2 0x1610 JUMP JUMPDEST PUSH1 0x1F DUP2 GT PUSH2 0x100E JUMPI JUMPDEST POP PUSH1 0x20 SWAP1 PUSH1 0x1F DUP4 GT PUSH1 0x1 EQ PUSH2 0xFA9 JUMPI PUSH1 0x0 SWAP3 PUSH2 0xF9E JUMPI JUMPDEST POP POP DUP2 PUSH1 0x1 SHL SWAP2 PUSH1 0x0 NOT SWAP1 PUSH1 0x3 SHL SHR NOT AND OR SWAP1 SSTORE JUMPDEST PUSH1 0x9 DUP3 ADD PUSH4 0xFFFFFFFF PUSH2 0x120 DUP4 ADD MLOAD AND DUP2 SLOAD SWAP1 PUSH8 0xFFFFFFFF00000000 PUSH2 0x140 DUP6 ADD MLOAD PUSH1 0x20 SHL AND SWAP2 PUSH1 0x1 PUSH1 0x1 PUSH1 0x40 SHL SUB NOT AND OR OR SWAP1 SSTORE PUSH1 0xA DUP3 ADD PUSH2 0x160 DUP3 ADD MLOAD DUP1 MLOAD SWAP1 PUSH1 0x1 PUSH1 0x1 PUSH1 0x40 SHL SUB DUP3 GT PUSH2 0xD41 JUMPI DUP2 SWAP1 PUSH2 0xAD0 DUP5 SLOAD PUSH2 0x1610 JUMP JUMPDEST PUSH1 0x1F DUP2 GT PUSH2 0xF4B JUMPI JUMPDEST POP PUSH1 0x20 SWAP1 PUSH1 0x1F DUP4 GT PUSH1 0x1 EQ PUSH2 0xEE6 JUMPI PUSH1 0x0 SWAP3 PUSH2 0xEDB JUMPI JUMPDEST POP POP DUP2 PUSH1 0x1 SHL SWAP2 PUSH1 0x0 NOT SWAP1 PUSH1 0x3 SHL SHR NOT AND OR SWAP1 SSTORE JUMPDEST PUSH1 0xB DUP3 ADD PUSH2 0x180 DUP3 ADD MLOAD DUP1 MLOAD SWAP1 PUSH1 0x1 PUSH1 0x1 PUSH1 0x40 SHL SUB DUP3 GT PUSH2 0xD41 JUMPI DUP2 SWAP1 PUSH2 0xB2C DUP5 SLOAD PUSH2 0x1610 JUMP JUMPDEST PUSH1 0x1F DUP2 GT PUSH2 0xE88 JUMPI JUMPDEST POP PUSH1 0x20 SWAP1 PUSH1 0x1F DUP4 GT PUSH1 0x1 EQ PUSH2 0xE23 JUMPI PUSH1 0x0 SWAP3 PUSH2 0xE18 JUMPI JUMPDEST POP POP DUP2 PUSH1 0x1 SHL SWAP2 PUSH1 0x0 NOT SWAP1 PUSH1 0x3 SHL SHR NOT AND OR SWAP1 SSTORE JUMPDEST PUSH1 0xC DUP3 ADD PUSH2 0x1A0 DUP3 ADD MLOAD DUP1 MLOAD SWAP1 PUSH1 0x1 PUSH1 0x1 PUSH1 0x40 SHL SUB DUP3 GT PUSH2 0xD41 JUMPI PUSH2 0xB86 DUP4 SLOAD PUSH2 0x1610 JUMP JUMPDEST PUSH1 0x1F DUP2 GT PUSH2 0xDD0 JUMPI JUMPDEST POP PUSH1 0x20 SWAP1 PUSH1 0x1F DUP4 GT PUSH1 0x1 EQ PUSH2 0xD62 JUMPI SWAP2 DUP1 PUSH2 0x1E0 SWAP5 SWAP3 PUSH1 0xE SWAP7 SWAP5 PUSH1 0x0 SWAP3 PUSH2 0xD57 JUMPI JUMPDEST POP POP DUP2 PUSH1 0x1 SHL SWAP2 PUSH1 0x0 NOT SWAP1 PUSH1 0x3 SHL SHR NOT AND OR SWAP1 SSTORE JUMPDEST PUSH1 0xD DUP5 ADD PUSH1 0x1 DUP1 PUSH1 0xA0 SHL SUB PUSH2 0x1C0 DUP4 ADD MLOAD AND PUSH12 0xFFFFFFFFFFFFFFFFFFFFFFFF PUSH1 0xA0 SHL DUP3 SLOAD AND OR SWAP1 SSTORE ADD MLOAD SWAP2 ADD SSTORE PUSH1 0x2 SLOAD PUSH9 0x10000000000000000 DUP2 LT ISZERO PUSH2 0xD41 JUMPI PUSH1 0x1 DUP2 ADD PUSH1 0x2 SSTORE PUSH2 0xC17 SWAP1 PUSH2 0x15DF JUMP JUMPDEST DUP2 SLOAD SWAP1 PUSH1 0x3 SHL SWAP1 DUP14 DUP3 SHL SWAP2 PUSH1 0x0 NOT SWAP1 SHL NOT AND OR SWAP1 SSTORE PUSH1 0x40 MLOAD SWAP10 DUP11 SWAP10 PUSH2 0x180 DUP12 MSTORE PUSH2 0x180 DUP12 ADD PUSH2 0xC45 SWAP2 PUSH2 0x159E JUMP JUMPDEST DUP11 DUP2 SUB PUSH1 0x20 DUP13 ADD MSTORE PUSH2 0xC56 SWAP2 PUSH2 0x159E JUMP JUMPDEST PUSH1 0x44 CALLDATALOAD PUSH1 0x40 DUP12 ADD MSTORE DUP10 DUP2 SUB PUSH1 0x60 DUP12 ADD MSTORE PUSH2 0xC6F SWAP2 PUSH2 0x159E JUMP JUMPDEST DUP9 DUP2 SUB PUSH1 0x80 DUP11 ADD MSTORE PUSH2 0xC80 SWAP2 PUSH2 0x159E JUMP JUMPDEST DUP8 DUP2 SUB PUSH1 0xA0 DUP10 ADD MSTORE PUSH2 0xC91 SWAP2 PUSH2 0x159E JUMP JUMPDEST DUP7 DUP2 SUB PUSH1 0xC0 DUP9 ADD MSTORE PUSH2 0xCA2 SWAP2 PUSH2 0x159E JUMP JUMPDEST DUP6 DUP2 SUB PUSH1 0xE0 DUP8 ADD MSTORE PUSH2 0xCB3 SWAP2 PUSH2 0x159E JUMP JUMPDEST SWAP2 PUSH4 0xFFFFFFFF AND PUSH2 0x100 DUP6 ADD MSTORE PUSH4 0xFFFFFFFF AND PUSH2 0x120 DUP5 ADD MSTORE DUP3 DUP2 SUB PUSH2 0x140 DUP5 ADD MSTORE PUSH2 0xCDE SWAP2 PUSH2 0x159E JUMP JUMPDEST SWAP4 DUP2 DUP6 SUB PUSH2 0x160 DUP4 ADD MSTORE CALLER SWAP5 PUSH2 0xCF3 SWAP2 PUSH2 0x159E JUMP JUMPDEST SUB PUSH32 0x96EDDD90BEB787D447AE60C3556B219D3AA5E175D8B72C9C66C5A348F01E8DDE SWAP2 LOG3 PUSH1 0x0 SLOAD PUSH1 0x0 NOT DUP2 EQ PUSH2 0xD2B JUMPI PUSH1 0x1 ADD PUSH1 0x0 SSTORE STOP JUMPDEST PUSH4 0x4E487B71 PUSH1 0xE0 SHL PUSH1 0x0 MSTORE PUSH1 0x11 PUSH1 0x4 MSTORE PUSH1 0x24 PUSH1 0x0 REVERT JUMPDEST PUSH4 0x4E487B71 PUSH1 0xE0 SHL PUSH1 0x0 MSTORE PUSH1 0x41 PUSH1 0x4 MSTORE PUSH1 0x24 PUSH1 0x0 REVERT JUMPDEST ADD MLOAD SWAP1 POP CODESIZE DUP1 PUSH2 0xBB1 JUMP JUMPDEST SWAP1 PUSH1 0x1F NOT DUP4 AND SWAP2 DUP5 PUSH1 0x0 MSTORE DUP2 PUSH1 0x0 KECCAK256 SWAP3 PUSH1 0x0 JUMPDEST DUP2 DUP2 LT PUSH2 0xDB8 JUMPI POP SWAP3 PUSH1 0x1 SWAP3 DUP6 SWAP3 PUSH1 0xE SWAP9 SWAP7 PUSH2 0x1E0 SWAP9 SWAP7 LT PUSH2 0xD9F JUMPI JUMPDEST POP POP POP DUP2 SHL ADD SWAP1 SSTORE PUSH2 0xBC6 JUMP JUMPDEST ADD MLOAD PUSH1 0x0 NOT PUSH1 0xF8 DUP5 PUSH1 0x3 SHL AND SHR NOT AND SWAP1 SSTORE CODESIZE DUP1 DUP1 PUSH2 0xD92 JUMP JUMPDEST SWAP3 SWAP4 PUSH1 0x20 PUSH1 0x1 DUP2 SWAP3 DUP8 DUP7 ADD MLOAD DUP2 SSTORE ADD SWAP6 ADD SWAP4 ADD PUSH2 0xD75 JUMP JUMPDEST DUP4 PUSH1 0x0 MSTORE PUSH1 0x20 PUSH1 0x0 KECCAK256 PUSH1 0x1F DUP5 ADD PUSH1 0x5 SHR DUP2 ADD SWAP2 PUSH1 0x20 DUP6 LT PUSH2 0xE0E JUMPI JUMPDEST PUSH1 0x1F ADD PUSH1 0x5 SHR ADD SWAP1 JUMPDEST DUP2 DUP2 LT PUSH2 0xE02 JUMPI POP PUSH2 0xB8F JUMP JUMPDEST PUSH1 0x0 DUP2 SSTORE PUSH1 0x1 ADD PUSH2 0xDF5 JUMP JUMPDEST SWAP1 SWAP2 POP DUP2 SWAP1 PUSH2 0xDEC JUMP JUMPDEST ADD MLOAD SWAP1 POP CODESIZE DUP1 PUSH2 0xB4C JUMP JUMPDEST PUSH1 0x0 DUP6 DUP2 MSTORE DUP3 DUP2 KECCAK256 SWAP4 POP PUSH1 0x1F NOT DUP6 AND SWAP1 JUMPDEST DUP2 DUP2 LT PUSH2 0xE70 JUMPI POP SWAP1 DUP5 PUSH1 0x1 SWAP6 SWAP5 SWAP4 SWAP3 LT PUSH2 0xE57 JUMPI JUMPDEST POP POP POP DUP2 SHL ADD SWAP1 SSTORE PUSH2 0xB61 JUMP JUMPDEST ADD MLOAD PUSH1 0x0 NOT PUSH1 0xF8 DUP5 PUSH1 0x3 SHL AND SHR NOT AND SWAP1 SSTORE CODESIZE DUP1 DUP1 PUSH2 0xE4A JUMP JUMPDEST SWAP3 SWAP4 PUSH1 0x20 PUSH1 0x1 DUP2 SWAP3 DUP8 DUP7 ADD MLOAD DUP2 SSTORE ADD SWAP6 ADD SWAP4 ADD PUSH2 0xE34 JUMP JUMPDEST SWAP1 SWAP2 POP DUP4 PUSH1 0x0 MSTORE PUSH1 0x20 PUSH1 0x0 KECCAK256 PUSH1 0x1F DUP5 ADD PUSH1 0x5 SHR DUP2 ADD SWAP2 PUSH1 0x20 DUP6 LT PUSH2 0xED1 JUMPI JUMPDEST SWAP1 PUSH1 0x1F DUP6 SWAP5 SWAP4 SWAP3 ADD PUSH1 0x5 SHR ADD SWAP1 JUMPDEST DUP2 DUP2 LT PUSH2 0xEC2 JUMPI POP PUSH2 0xB35 JUMP JUMPDEST PUSH1 0x0 DUP2 SSTORE DUP5 SWAP4 POP PUSH1 0x1 ADD PUSH2 0xEB5 JUMP JUMPDEST SWAP1 SWAP2 POP DUP2 SWAP1 PUSH2 0xEA7 JUMP JUMPDEST ADD MLOAD SWAP1 POP CODESIZE DUP1 PUSH2 0xAF0 JUMP JUMPDEST PUSH1 0x0 DUP6 DUP2 MSTORE DUP3 DUP2 KECCAK256 SWAP4 POP PUSH1 0x1F NOT DUP6 AND SWAP1 JUMPDEST DUP2 DUP2 LT PUSH2 0xF33 JUMPI POP SWAP1 DUP5 PUSH1 0x1 SWAP6 SWAP5 SWAP4 SWAP3 LT PUSH2 0xF1A JUMPI JUMPDEST POP POP POP DUP2 SHL ADD SWAP1 SSTORE PUSH2 0xB05 JUMP JUMPDEST ADD MLOAD PUSH1 0x0 NOT PUSH1 0xF8 DUP5 PUSH1 0x3 SHL AND SHR NOT AND SWAP1 SSTORE CODESIZE DUP1 DUP1 PUSH2 0xF0D JUMP JUMPDEST SWAP3 SWAP4 PUSH1 0x20 PUSH1 0x1 DUP2 SWAP3 DUP8 DUP7 ADD MLOAD DUP2 SSTORE ADD SWAP6 ADD SWAP4 ADD PUSH2 0xEF7 JUMP JUMPDEST SWAP1 SWAP2 POP DUP4 PUSH1 0x0 MSTORE PUSH1 0x20 PUSH1 0x0 KECCAK256 PUSH1 0x1F DUP5 ADD PUSH1 0x5 SHR DUP2 ADD SWAP2 PUSH1 0x20 DUP6 LT PUSH2 0xF94 JUMPI JUMPDEST SWAP1 PUSH1 0x1F DUP6 SWAP5 SWAP4 SWAP3 ADD PUSH1 0x5 SHR ADD SWAP1 JUMPDEST DUP2 DUP2 LT PUSH2 0xF85 JUMPI POP PUSH2 0xAD9 JUMP JUMPDEST PUSH1 0x0 DUP2 SSTORE DUP5 SWAP4 POP PUSH1 0x1 ADD PUSH2 0xF78 JUMP JUMPDEST SWAP1 SWAP2 POP DUP2 SWAP1 PUSH2 0xF6A JUMP JUMPDEST ADD MLOAD SWAP1 POP CODESIZE DUP1 PUSH2 0xA5F JUMP JUMPDEST PUSH1 0x0 DUP6 DUP2 MSTORE DUP3 DUP2 KECCAK256 SWAP4 POP PUSH1 0x1F NOT DUP6 AND SWAP1 JUMPDEST DUP2 DUP2 LT PUSH2 0xFF6 JUMPI POP SWAP1 DUP5 PUSH1 0x1 SWAP6 SWAP5 SWAP4 SWAP3 LT PUSH2 0xFDD JUMPI JUMPDEST POP POP POP DUP2 SHL ADD SWAP1 SSTORE PUSH2 0xA74 JUMP JUMPDEST ADD MLOAD PUSH1 0x0 NOT PUSH1 0xF8 DUP5 PUSH1 0x3 SHL AND SHR NOT AND SWAP1 SSTORE CODESIZE DUP1 DUP1 PUSH2 0xFD0 JUMP JUMPDEST SWAP3 SWAP4 PUSH1 0x20 PUSH1 0x1 DUP2 SWAP3 DUP8 DUP7 ADD MLOAD DUP2 SSTORE ADD SWAP6 ADD SWAP4 ADD PUSH2 0xFBA JUMP JUMPDEST SWAP1 SWAP2 POP DUP4 PUSH1 0x0 MSTORE PUSH1 0x20 PUSH1 0x0 KECCAK256 PUSH1 0x1F DUP5 ADD PUSH1 0x5 SHR DUP2 ADD SWAP2 PUSH1 0x20 DUP6 LT PUSH2 0x1057 JUMPI JUMPDEST SWAP1 PUSH1 0x1F DUP6 SWAP5 SWAP4 SWAP3 ADD PUSH1 0x5 SHR ADD SWAP1 JUMPDEST DUP2 DUP2 LT PUSH2 0x1048 JUMPI POP PUSH2 0xA48 JUMP JUMPDEST PUSH1 0x0 DUP2 SSTORE DUP5 SWAP4 POP PUSH1 0x1 ADD PUSH2 0x103B JUMP JUMPDEST SWAP1 SWAP2 POP DUP2 SWAP1 PUSH2 0x102D JUMP JUMPDEST ADD MLOAD SWAP1 POP CODESIZE DUP1 PUSH2 0xA03 JUMP JUMPDEST PUSH1 0x0 DUP6 DUP2 MSTORE DUP3 DUP2 KECCAK256 SWAP4 POP PUSH1 0x1F NOT DUP6 AND SWAP1 JUMPDEST DUP2 DUP2 LT PUSH2 0x10B9 JUMPI POP SWAP1 DUP5 PUSH1 0x1 SWAP6 SWAP5 SWAP4 SWAP3 LT PUSH2 0x10A0 JUMPI JUMPDEST POP POP POP DUP2 SHL ADD SWAP1 SSTORE PUSH2 0xA18 JUMP JUMPDEST ADD MLOAD PUSH1 0x0 NOT PUSH1 0xF8 DUP5 PUSH1 0x3 SHL AND SHR NOT AND SWAP1 SSTORE CODESIZE DUP1 DUP1 PUSH2 0x1093 JUMP JUMPDEST SWAP3 SWAP4 PUSH1 0x20 PUSH1 0x1 DUP2 SWAP3 DUP8 DUP7 ADD MLOAD DUP2 SSTORE ADD SWAP6 ADD SWAP4 ADD PUSH2 0x107D JUMP JUMPDEST SWAP1 SWAP2 POP DUP4 PUSH1 0x0 MSTORE PUSH1 0x20 PUSH1 0x0 KECCAK256 PUSH1 0x1F DUP5 ADD PUSH1 0x5 SHR DUP2 ADD SWAP2 PUSH1 0x20 DUP6 LT PUSH2 0x111A JUMPI JUMPDEST SWAP1 PUSH1 0x1F DUP6 SWAP5 SWAP4 SWAP3 ADD PUSH1 0x5 SHR ADD SWAP1 JUMPDEST DUP2 DUP2 LT PUSH2 0x110B JUMPI POP PUSH2 0x9EC JUMP JUMPDEST PUSH1 0x0 DUP2 SSTORE DUP5 SWAP4 POP PUSH1 0x1 ADD PUSH2 0x10FE JUMP JUMPDEST SWAP1 SWAP2 POP DUP2 SWAP1 PUSH2 0x10F0 JUMP JUMPDEST ADD MLOAD SWAP1 POP CODESIZE DUP1 PUSH2 0x9A8 JUMP JUMPDEST PUSH1 0x0 DUP6 DUP2 MSTORE DUP3 DUP2 KECCAK256 SWAP4 POP PUSH1 0x1F NOT DUP6 AND SWAP1 JUMPDEST DUP2 DUP2 LT PUSH2 0x117C JUMPI POP SWAP1 DUP5 PUSH1 0x1 SWAP6 SWAP5 SWAP4 SWAP3 LT PUSH2 0x1163 JUMPI JUMPDEST POP POP POP DUP2 SHL ADD SWAP1 SSTORE PUSH2 0x9BD JUMP JUMPDEST ADD MLOAD PUSH1 0x0 NOT PUSH1 0xF8 DUP5 PUSH1 0x3 SHL AND SHR NOT AND SWAP1 SSTORE CODESIZE DUP1 DUP1 PUSH2 0x1156 JUMP JUMPDEST SWAP3 SWAP4 PUSH1 0x20 PUSH1 0x1 DUP2 SWAP3 DUP8 DUP7 ADD MLOAD DUP2 SSTORE ADD SWAP6 ADD SWAP4 ADD PUSH2 0x1140 JUMP JUMPDEST SWAP1 SWAP2 POP DUP4 PUSH1 0x0 MSTORE PUSH1 0x20 PUSH1 0x0 KECCAK256 PUSH1 0x1F DUP5 ADD PUSH1 0x5 SHR DUP2 ADD SWAP2 PUSH1 0x20 DUP6 LT PUSH2 0x11DD JUMPI JUMPDEST SWAP1 PUSH1 0x1F DUP6 SWAP5 SWAP4 SWAP3 ADD PUSH1 0x5 SHR ADD SWAP1 JUMPDEST DUP2 DUP2 LT PUSH2 0x11CE JUMPI POP PUSH2 0x991 JUMP JUMPDEST PUSH1 0x0 DUP2 SSTORE DUP5 SWAP4 POP PUSH1 0x1 ADD PUSH2 0x11C1 JUMP JUMPDEST SWAP1 SWAP2 POP DUP2 SWAP1 PUSH2 0x11B3 JUMP JUMPDEST ADD MLOAD SWAP1 POP CODESIZE DUP1 PUSH2 0x94D JUMP JUMPDEST PUSH1 0x0 DUP6 DUP2 MSTORE DUP3 DUP2 KECCAK256 SWAP4 POP PUSH1 0x1F NOT DUP6 AND SWAP1 JUMPDEST DUP2 DUP2 LT PUSH2 0x123F JUMPI POP SWAP1 DUP5 PUSH1 0x1 SWAP6 SWAP5 SWAP4 SWAP3 LT PUSH2 0x1226 JUMPI JUMPDEST POP POP POP DUP2 SHL ADD SWAP1 SSTORE PUSH2 0x962 JUMP JUMPDEST ADD MLOAD PUSH1 0x0 NOT PUSH1 0xF8 DUP5 PUSH1 0x3 SHL AND SHR NOT AND SWAP1 SSTORE CODESIZE DUP1 DUP1 PUSH2 0x1219 JUMP JUMPDEST SWAP3 SWAP4 PUSH1 0x20 PUSH1 0x1 DUP2 SWAP3 DUP8 DUP7 ADD MLOAD DUP2 SSTORE ADD SWAP6 ADD SWAP4 ADD PUSH2 0x1203 JUMP JUMPDEST SWAP1 SWAP2 POP DUP4 PUSH1 0x0 MSTORE PUSH1 0x20 PUSH1 0x0 KECCAK256 PUSH1 0x1F DUP5 ADD PUSH1 0x5 SHR DUP2 ADD SWAP2 PUSH1 0x20 DUP6 LT PUSH2 0x12A0 JUMPI JUMPDEST SWAP1 PUSH1 0x1F DUP6 SWAP5 SWAP4 SWAP3 ADD PUSH1 0x5 SHR ADD SWAP1 JUMPDEST DUP2 DUP2 LT PUSH2 0x1291 JUMPI POP PUSH2 0x936 JUMP JUMPDEST PUSH1 0x0 DUP2 SSTORE DUP5 SWAP4 POP PUSH1 0x1 ADD PUSH2 0x1284 JUMP JUMPDEST SWAP1 SWAP2 POP DUP2 SWAP1 PUSH2 0x1276 JUMP JUMPDEST ADD MLOAD SWAP1 POP CODESIZE DUP1 PUSH2 0x8F2 JUMP JUMPDEST PUSH1 0x0 DUP6 DUP2 MSTORE DUP3 DUP2 KECCAK256 SWAP4 POP PUSH1 0x1F NOT DUP6 AND SWAP1 JUMPDEST DUP2 DUP2 LT PUSH2 0x1302 JUMPI POP SWAP1 DUP5 PUSH1 0x1 SWAP6 SWAP5 SWAP4 SWAP3 LT PUSH2 0x12E9 JUMPI JUMPDEST POP POP POP DUP2 SHL ADD SWAP1 SSTORE PUSH2 0x907 JUMP JUMPDEST ADD MLOAD PUSH1 0x0 NOT PUSH1 0xF8 DUP5 PUSH1 0x3 SHL AND SHR NOT AND SWAP1 SSTORE CODESIZE DUP1 DUP1 PUSH2 0x12DC JUMP JUMPDEST SWAP3 SWAP4 PUSH1 0x20 PUSH1 0x1 DUP2 SWAP3 DUP8 DUP7 ADD MLOAD DUP2 SSTORE ADD SWAP6 ADD SWAP4 ADD PUSH2 0x12C6 JUMP JUMPDEST SWAP1 SWAP2 POP DUP4 PUSH1 0x0 MSTORE PUSH1 0x20 PUSH1 0x0 KECCAK256 PUSH1 0x1F DUP5 ADD PUSH1 0x5 SHR DUP2 ADD SWAP2 PUSH1 0x20 DUP6 LT PUSH2 0x1363 JUMPI JUMPDEST SWAP1 PUSH1 0x1F DUP6 SWAP5 SWAP4 SWAP3 ADD PUSH1 0x5 SHR ADD SWAP1 JUMPDEST DUP2 DUP2 LT PUSH2 0x1354 JUMPI POP PUSH2 0x8DB JUMP JUMPDEST PUSH1 0x0 DUP2 SSTORE DUP5 SWAP4 POP PUSH1 0x1 ADD PUSH2 0x1347 JUMP JUMPDEST SWAP1 SWAP2 POP DUP2 SWAP1 PUSH2 0x1339 JUMP JUMPDEST ADD MLOAD SWAP1 POP CODESIZE DUP1 PUSH2 0x88A JUMP JUMPDEST SWAP3 POP PUSH1 0x2 DUP6 ADD PUSH1 0x0 MSTORE DUP1 PUSH1 0x0 KECCAK256 SWAP1 PUSH1 0x0 SWAP4 JUMPDEST PUSH1 0x1F NOT DUP5 AND DUP6 LT PUSH2 0x13CE JUMPI PUSH1 0x1 SWAP5 POP DUP4 PUSH1 0x1F NOT DUP2 AND LT PUSH2 0x13B5 JUMPI JUMPDEST POP POP POP DUP2 SHL ADD PUSH1 0x2 DUP4 ADD SSTORE PUSH2 0x8A2 JUMP JUMPDEST ADD MLOAD PUSH1 0x0 NOT PUSH1 0xF8 DUP5 PUSH1 0x3 SHL AND SHR NOT AND SWAP1 SSTORE CODESIZE DUP1 DUP1 PUSH2 0x13A5 JUMP JUMPDEST DUP2 DUP2 ADD MLOAD DUP4 SSTORE PUSH1 0x20 SWAP5 DUP6 ADD SWAP5 PUSH1 0x1 SWAP1 SWAP4 ADD SWAP3 SWAP1 SWAP2 ADD SWAP1 PUSH2 0x138A JUMP JUMPDEST SWAP1 SWAP2 POP PUSH1 0x2 DUP6 ADD PUSH1 0x0 MSTORE PUSH1 0x20 PUSH1 0x0 KECCAK256 PUSH1 0x1F DUP5 ADD PUSH1 0x5 SHR DUP2 ADD PUSH1 0x20 DUP6 LT PUSH2 0x1435 JUMPI JUMPDEST SWAP1 DUP5 SWAP4 SWAP3 SWAP2 JUMPDEST PUSH1 0x1F DUP4 ADD PUSH1 0x5 SHR DUP3 ADD DUP2 LT PUSH2 0x1426 JUMPI POP POP PUSH2 0x873 JUMP JUMPDEST PUSH1 0x0 DUP2 SSTORE DUP6 SWAP5 POP PUSH1 0x1 ADD PUSH2 0x1410 JUMP JUMPDEST POP DUP1 PUSH2 0x140A JUMP JUMPDEST ADD MLOAD SWAP1 POP CODESIZE DUP1 PUSH2 0x82D JUMP JUMPDEST SWAP3 POP PUSH1 0x1 DUP6 ADD PUSH1 0x0 MSTORE DUP1 PUSH1 0x0 KECCAK256 SWAP1 PUSH1 0x0 SWAP4 JUMPDEST PUSH1 0x1F NOT DUP5 AND DUP6 LT PUSH2 0x149D JUMPI PUSH1 0x1 SWAP5 POP DUP4 PUSH1 0x1F NOT DUP2 AND LT PUSH2 0x1484 JUMPI JUMPDEST POP POP POP DUP2 SHL ADD PUSH1 0x1 DUP4 ADD SSTORE PUSH2 0x845 JUMP JUMPDEST ADD MLOAD PUSH1 0x0 NOT PUSH1 0xF8 DUP5 PUSH1 0x3 SHL AND SHR NOT AND SWAP1 SSTORE CODESIZE DUP1 DUP1 PUSH2 0x1474 JUMP JUMPDEST DUP2 DUP2 ADD MLOAD DUP4 SSTORE PUSH1 0x20 SWAP5 DUP6 ADD SWAP5 PUSH1 0x1 SWAP1 SWAP4 ADD SWAP3 SWAP1 SWAP2 ADD SWAP1 PUSH2 0x1459 JUMP JUMPDEST SWAP1 SWAP2 POP PUSH1 0x1 DUP6 ADD PUSH1 0x0 MSTORE PUSH1 0x20 PUSH1 0x0 KECCAK256 PUSH1 0x1F DUP5 ADD PUSH1 0x5 SHR DUP2 ADD PUSH1 0x20 DUP6 LT PUSH2 0x1504 JUMPI JUMPDEST SWAP1 DUP5 SWAP4 SWAP3 SWAP2 JUMPDEST PUSH1 0x1F DUP4 ADD PUSH1 0x5 SHR DUP3 ADD DUP2 LT PUSH2 0x14F5 JUMPI POP POP PUSH2 0x816 JUMP JUMPDEST PUSH1 0x0 DUP2 SSTORE DUP6 SWAP5 POP PUSH1 0x1 ADD PUSH2 0x14DF JUMP JUMPDEST POP DUP1 PUSH2 0x14D9 JUMP JUMPDEST PUSH2 0x200 DUP2 ADD SWAP1 DUP2 LT PUSH1 0x1 PUSH1 0x1 PUSH1 0x40 SHL SUB DUP3 GT OR PUSH2 0xD41 JUMPI PUSH1 0x40 MSTORE JUMP JUMPDEST SWAP1 PUSH1 0x1F DUP1 NOT SWAP2 ADD AND DUP2 ADD SWAP1 DUP2 LT PUSH1 0x1 PUSH1 0x1 PUSH1 0x40 SHL SUB DUP3 GT OR PUSH2 0xD41 JUMPI PUSH1 0x40 MSTORE JUMP JUMPDEST DUP2 PUSH1 0x1F DUP3 ADD SLT ISZERO PUSH2 0x7C JUMPI DUP1 CALLDATALOAD SWAP1 PUSH1 0x1 PUSH1 0x1 PUSH1 0x40 SHL SUB DUP3 GT PUSH2 0xD41 JUMPI PUSH1 0x40 MLOAD SWAP3 PUSH2 0x157C PUSH1 0x1F DUP5 ADD PUSH1 0x1F NOT AND PUSH1 0x20 ADD DUP6 PUSH2 0x1527 JUMP JUMPDEST DUP3 DUP5 MSTORE PUSH1 0x20 DUP4 DUP4 ADD ADD GT PUSH2 0x7C JUMPI DUP2 PUSH1 0x0 SWAP3 PUSH1 0x20 DUP1 SWAP4 ADD DUP4 DUP7 ADD CALLDATACOPY DUP4 ADD ADD MSTORE SWAP1 JUMP JUMPDEST SWAP2 SWAP1 DUP3 MLOAD SWAP3 DUP4 DUP3 MSTORE PUSH1 0x0 JUMPDEST DUP5 DUP2 LT PUSH2 0x15CA JUMPI POP POP DUP3 PUSH1 0x0 PUSH1 0x20 DUP1 SWAP5 SWAP6 DUP5 ADD ADD MSTORE PUSH1 0x1F DUP1 NOT SWAP2 ADD AND ADD ADD SWAP1 JUMP JUMPDEST DUP1 PUSH1 0x20 DUP1 SWAP3 DUP5 ADD ADD MLOAD DUP3 DUP3 DUP7 ADD ADD MSTORE ADD PUSH2 0x15A9 JUMP JUMPDEST PUSH1 0x2 SLOAD DUP2 LT ISZERO PUSH2 0x15FA JUMPI PUSH1 0x2 PUSH1 0x0 MSTORE PUSH1 0x20 PUSH1 0x0 KECCAK256 ADD SWAP1 PUSH1 0x0 SWAP1 JUMP JUMPDEST PUSH4 0x4E487B71 PUSH1 0xE0 SHL PUSH1 0x0 MSTORE PUSH1 0x32 PUSH1 0x4 MSTORE PUSH1 0x24 PUSH1 0x0 REVERT JUMPDEST SWAP1 PUSH1 0x1 DUP3 DUP2 SHR SWAP3 AND DUP1 ISZERO PUSH2 0x1640 JUMPI JUMPDEST PUSH1 0x20 DUP4 LT EQ PUSH2 0x162A JUMPI JUMP JUMPDEST PUSH4 0x4E487B71 PUSH1 0xE0 SHL PUSH1 0x0 MSTORE PUSH1 0x22 PUSH1 0x4 MSTORE PUSH1 0x24 PUSH1 0x0 REVERT JUMPDEST SWAP2 PUSH1 0x7F AND SWAP2 PUSH2 0x161F JUMP JUMPDEST SWAP1 PUSH1 0x40 MLOAD SWAP2 DUP3 PUSH1 0x0 DUP3 SLOAD SWAP3 PUSH2 0x165E DUP5 PUSH2 0x1610 JUMP JUMPDEST DUP1 DUP5 MSTORE SWAP4 PUSH1 0x1 DUP2 AND SWAP1 DUP2 ISZERO PUSH2 0x16CC JUMPI POP PUSH1 0x1 EQ PUSH2 0x1685 JUMPI JUMPDEST POP PUSH2 0x1683 SWAP3 POP SUB DUP4 PUSH2 0x1527 JUMP JUMPDEST JUMP JUMPDEST SWAP1 POP PUSH1 0x0 SWAP3 SWAP2 SWAP3 MSTORE PUSH1 0x20 PUSH1 0x0 KECCAK256 SWAP1 PUSH1 0x0 SWAP2 JUMPDEST DUP2 DUP4 LT PUSH2 0x16B0 JUMPI POP POP SWAP1 PUSH1 0x20 PUSH2 0x1683 SWAP3 DUP3 ADD ADD CODESIZE PUSH2 0x1676 JUMP JUMPDEST PUSH1 0x20 SWAP2 SWAP4 POP DUP1 PUSH1 0x1 SWAP2 SLOAD DUP4 DUP6 DUP10 ADD ADD MSTORE ADD SWAP2 ADD SWAP1 SWAP2 DUP5 SWAP3 PUSH2 0x1697 JUMP JUMPDEST SWAP1 POP PUSH1 0x20 SWAP3 POP PUSH2 0x1683 SWAP5 SWAP2 POP PUSH1 0xFF NOT AND DUP3 DUP5 ADD MSTORE ISZERO ISZERO PUSH1 0x5 SHL DUP3 ADD ADD CODESIZE PUSH2 0x1676 JUMP INVALID LOG2 PUSH5 0x6970667358 0x22 SLT KECCAK256 0xAA 0xD4 0xAC CALLDATASIZE 0xF7 DUP13 PUSH20 0xAAE67FDA29B5F6DDB2814EB046B77FF1AD46D1F6 0xE6 0x1F TIMESTAMP BLOBBASEFEE MLOAD PUSH5 0x736F6C6343 STOP ADDMOD SHR STOP CALLER "},"methodIdentifiers":{"addAnimal(string,string,uint256,string,string,string,string,string,uint32,uint32,string,string,string)":"3b8cd9de","animalIds(uint256)":"4efead56","animals(uint256)":"998dd3ca","getAnimal(uint256)":"45d3cc81","getAnimalCount()":"66634a16","getNextId()":"bc968326"}}}}}